:020000040800F2
:1000000030E900209D010008431B00088D1A0008FC
:100010003F1B0008810A00087D3100080000000035
:100020000000000000000000000000005D22000849
:100030009D140008000000008D1D00087D2B0008A5
:10004000D5010008D5010008D5010008D501000838
:10005000D5010008D5010008D5010008D501000828
:10006000D5010008D5010008D5010008D501000818
:10007000D5010008D5010008D5010008D501000808
:10008000D5010008D5010008D5010008D5010008F8
:100090004D310008D5010008D5010008D501000840
:1000A000D5010008D5010008D5010008D5010008D8
:1000B000D50100084D2C0008D5010008D501000825
:1000C000D5010008D5010008D5010008D5010008B8
:1000D000D5010008D5010008D5010008D5010008A8
:1000E000D5010008D5010008392F0008D501000806
:1000F000D5010008D5010008D5010008D501000888
:10010000000000000000000000000000D501000811
:10011000D5010008D5010008D5010008D501000867
:10012000D5010008D5010008D5010008D501000857
:10013000D5010008D5010008000000000000000003
:10014000D5010008D5010008D50100080000000015
:10015000000000000000000000000000000000009F
:100160000000000000000000D5010008D5010008D3
:10017000D5010008000000000000000000000000A1
:1001800000000000D5010008DFF80CD000F02CF8CA
:10019000004800472D38000830E900200E4801686B
:1001A00041F470010160BFF34F8FDFF83000016848
:1001B00021F040410160BFF36F8F09488047094833
:1001C0000047FEE7FEE7FEE7FEE7FEE7FEE7FEE7A5
:1001D000FEE7FEE7FEE7000088ED00E034EF00E018
:1001E000812B000889010008064C074D06E0E068F5
:1001F00040F0010394E8070098471034AC42F6D36E
:10020000FFF7C6FFC43E0008E43E000870B58C1836
:1002100010F8015B15F0070301D110F8013B2A111A
:1002200006D110F8012B03E010F8016B01F8016B07
:100230005B1EF9D12B0705D40023521E0DD401F803
:10024000013BFAE710F8013BCB1A921C03E013F8CC
:10025000015B01F8015B521EF9D5A142D8D3002001
:1002600070BD21B1826842F00102826003E08268C1
:1002700042F002028260704710B50022B0F1A04F38
:1002800002D0124B984204D1114B1A68114B1A40FC
:1002900003E0114B1A680F4B1A40D1E90034234395
:1002A0008C682343CC6843EA04330C7C43EA042380
:1002B0001A43B0F1A04F02D0044B984202D1044B34
:1002C0001A6001E0044B1A6010BD000000010050EC
:1002D00008030050E010FCFF0807005021B1C2687D
:1002E00042F00102C26003E0C26822F00102C26073
:1002F0007047C26822F00202C260C2680A43C2604C
:1003000070470000F0B59BB00024002500260027B0
:10031000FE4800F0E7FDFE4800F0E4FDFC485030E8
:1003200000F0E0FDFA48143000F0DCFDF9481090D0
:10033000F9481190002012900920ADF84C000020DF
:100340001490802015904000169080001790202077
:1003500018900002199000201A9010A9EB4800F0A4
:1003600067FE0121E94800F0B0FDEC481090EC4830
:100370001190002012900620ADF84C00002014903F
:100380008020159040001690800017902020189033
:100390000002199000201A9010A9DD4800F048FED4
:1003A0000121DB4800F091FDDE481090DE481190FD
:1003B000002012900A20ADF84C00002014908020FC
:1003C0001590400016908000179020201890000291
:1003D000199000201A9010A9CD48503000F028FE46
:1003E0000121CB48503000F070FDD0481090D0482B
:1003F0001190002012900720ADF84C0000201490BE
:1004000080201590400016908000179020201890B2
:100410000002199000201A9010A9BD48143000F075
:1004200007FE0121BA48143000F04FFDEF20019083
:1004300003208DF8080000208DF80B0001A94FF073
:10044000904001F063FA4DF20700019003208DF80F
:10045000080000208DF80B0001A9B64801F056FAFB
:100460003F20019003208DF8080000208DF80B003C
:1004700001A9B14801F04AFA4FF4706001900320DD
:100480008DF8080000208DF80B0001A9AB4801F0A1
:100490003DFA4FF68070019003208DF8080000208F
:1004A0008DF80B0001A9A64801F030FA0420019054
:1004B00003208DF8080000208DF80B0001A9A14849
:1004C00001F024FA01214FF0A04000F0CAFA012106
:1004D0009248403800F0C5FA01219248403800F0B7
:1004E000C0FA01219148403800F0BBFA00214FF0DA
:1004F000A04000F0A4FA4FF0A04000F0A8FA00BF1E
:100500004FF0A04000F0E6F90028F9D14FF0A040EC
:1005100000F0EAF9044600218048403800F08FFAE4
:100520007E48403800F093FA00BF7C48403800F025
:10053000D1F90028F9D17948403800F0D5F90546BD
:1005400000217848403800F07AFA7648403800F0C8
:100550007EFA00BF7348403800F0BCF90028F9D19A
:100560007048403800F0C0F9064600216F48403816
:1005700000F065FA6D48403800F069FA00BF6B483A
:10058000403800F0A7F90028F9D16848403800F059
:10059000ABF9074600200B904FF400300C90002080
:1005A0000D9002200E908DF83C000BA94FF0A0405A
:1005B000FFF762FE0BA959484038FFF75DFE0BA913
:1005C00058484038FFF758FE0BA958484038FFF705
:1005D00053FE002003900490069007900890099025
:1005E00009208DF8280003A94FF0A04000F08AF9F7
:1005F0000020039004900690079008900990062030
:100600008DF8280003A94548403800F07BF9002008
:100610000390049006900790089009900A208DF8A6
:10062000280003A93F48403800F06CF900200390EF
:100630000490069007900890099007208DF82800F4
:1006400003A93A48403800F05DF90323012206214E
:100650004FF0A04000F076F90323022207214FF06B
:10066000A04000F06FF903231A4608214FF0A04084
:1006700000F068F90323042209214FF0A04000F0A4
:1006800061F9032305220A21C80600F05BF9032360
:10069000062201214FF0A04000F054F90323072265
:1006A00002214FF0A04000F04DF903230822194623
:1006B0004FF0A04000F046F90323092204214FF037
:1006C000A04000F03FF903230122022113484038E3
:1006D00000F038F90323022219461048403800F090
:1006E00031F903231A4604210C48403800F02AF956
:1006F0000323042205210948403800F023F903238D
:1007000005220B21054840381EE000000800024089
:100710000804024040000050E481002040010050E5
:10072000F681002040040050028200204005005065
:10073000168200200004004800080048000C004811
:10074000001000480014004800F0FCF803230622C3
:100750000C215D4800F0F6F80323012207215B48D5
:1007600000F0F0F8032302220C21584800F0EAF8C8
:1007700003231A460121554800F0E4F8032304221C
:100780000D21524800F0DEF80323052206214F48D0
:1007900000F0D8F80323062202214C4800F0D2F8DA
:1007A000032307220E21494800F0CCF80323082236
:1007B0000F21464800F0C6F80323092210214348C0
:1007C00000F0C0F803230A221946404800F0BAF8A6
:1007D0000323012211463E4800F0B4F8032302220D
:1007E00011463B4800F0AEF803231A461946384834
:1007F00000F0A8F8032304220D21354800F0A2F8E8
:10080000032305220421324800F09CF8032306222A
:1008100005212F4800F096F8032307220C212C48CD
:1008200000F090F801214FF0A040FFF71AFD0121E0
:100830002548FFF716FD01212448FFF712FD01218D
:100840002348FFF70EFD00BF01214FF0A04000F04C
:100850004FF80028F8D000BF01211B4800F048F8ED
:100860000028F9D000BF0121184800F041F8002805
:10087000F9D000BF0121164800F03AF80028F9D05D
:1008800001214FF0A040FFF729FD01210E48FFF79D
:1008900025FD01210D48FFF721FD01210C48FFF73F
:1008A0001DFD02214FF0A040FFF723FD0221064865
:1008B000FFF71FFD02210548FFF71BFD0221044839
:1008C000FFF717FD1BB0F0BD000100500004005001
:1008D00000050050014600208A6802F000420AB17B
:1008E000012000E0002070470146D1F8B4007047B5
:1008F0000246002013680B400BB1012000E00020ED
:100900007047000010B502460020D0680C4B18401C
:10091000D1E9003423438C682343CC6823430C691A
:1009200023434C6923438C6923431843D060106BE5
:1009300020F00F000B7F5B1E1843106310BD0000FA
:1009400007C0FFFDF0B50C461D4600BF00BF052ADD
:100950000FDA016B02EB420677001F2606FA07F357
:10096000994302EB4206760004FA06F31943016349
:100970003CE00A2A11DA416B561F06EB4606770067
:100980001F2606FA07F39943561F06EB4606760024
:1009900004FA06F31943416328E00F2A13DA816B46
:1009A000A2F10A0606EB460677001F2606FA07F3B1
:1009B0009943A2F10A0606EB4606760004FA06F30E
:1009C0001943816312E0C16BA2F10F0606EB4606E4
:1009D00077001F2606FA07F39943A2F10F0606EBEC
:1009E0004606760004FA06F31943C163092C14DDA8
:1009F0008169A4F10A0606EB4607072606FA07F303
:100A000086699E4386618669A4F10A0707EB47075A
:100A100005FA07F73E43866110E04169661E06EB62
:100A20004607382606FA07F346699E43466146693B
:100A300004EB440705FA07F73E434661F0BD8268C0
:100A400022F08042826082680A4382607047816837
:100A500041F0004181607047816841F0040181608C
:100A60007047826822F04052826021B1826842F071
:100A70008052826003E0826842F0005282607047D8
:100A800000BFFEE70146CAB20B1243EA02207047DC
:100A900010B5002003490860032001F069FC012023
:100AA00010BD00004401002070B505460C46002032
:100AB000074908602246C021284602F061FB214612
:100AC000012001F07FFC012001F0AAFC012070BD93
:100AD0003C01002008B50020009022E197480088E2
:100AE00000F00F00964908700846007800287CD175
:100AF00094480068944908800846008800F0300057
:100B0000924908809048008800F440508E4908803F
:100B10008C4909684BF6BF7201EA020080F400506C
:100B200080F0200040F4004141F08001854A1160CE
:100B30008248008800F0100090BB1046006848F61C
:100B40000F7108401146086000F0A2FF7D49096856
:100B50004BF6BF7201EA02007B49098801F480511B
:100B600009B180F480507849098801F4005109B135
:100B700080F400507549098801F0100109B180F036
:100B800010007249098801F0200109B180F02000AD
:100B900081B241F4004141F080016A4A116008BD10
:100BA000FFE76848006880B20090BDF8000000F4DC
:100BB0000060B0B363480068C0F30E0048F68F7160
:100BC00008406049086001F0EDFC5E4909684BF699
:100BD000BF7201EA02005C49098801F4805109B141
:100BE00080F480505849098800E056E001F4005133
:100BF00009B180F400505549098801F0100109B18C
:100C000080F010005149098801F0200109B180F0FD
:100C1000200081B241F4004141F08001494A116055
:100C2000BDE7FFE7BDF8000000F40040002878D0E1
:100C300044480068C0F30E0048F68F7108404149EF
:100C4000086001F063F83F4909684BF6BF7201EA9A
:100C500002003D49098801F4805109B180F48050B7
:100C60003949098801F4005109B180F4005037492D
:100C7000098801F0100109B180F01000334909889A
:100C800001F0200109B180F0200081B241F400415F
:100C900041F080012B4A116081E7294800782C49F6
:100CA00001EB8000D0F8000C80B20090BDF800008D
:100CB00000F40040C0B12248007801EB8000D0F879
:100CC000000CC0F30E0048F68F7108401C490978EB
:100CD0001F4A02EB8101C1F8000C19490978491E2D
:100CE0001C4A52F821008047BDF8000000F0800047
:100CF000B8B113480078164901EB8000D0F8000C19
:100D000048F60F7108400E490978114A02EB81013B
:100D1000C1F8000C0A490978491E0F4A52F821000F
:100D2000804708484430006880B20449088000F4D5
:100D3000004000287FF4D2AE00BF30E7E40000207E
:100D40000C000020005C0040400000204200002019
:100D5000005000400C010020F00000200B4A02EB84
:100D60008001D1F8001C01F4804171B102EB8001D7
:100D7000D1F8001C48F68F7211404CF280021143EA
:100D8000024B03EB8002C2F8001C70470050004089
:100D90000B4A02EB8001D1F8001C01F0400171B157
:100DA00002EB8001D1F8001C48F68F72114048F226
:100DB000C0021143024B03EB8002C2F8001C7047D3
:100DC00000500040084A02EB8001D1F8001C48F6B0
:100DD0008F62114048F280021143034B03EB800203
:100DE000C2F8001C70470000005000400121402064
:100DF00001F02EB810B52AB1036801248C402343BA
:100E0000036004E0036801248C40A343036010BD29
:100E10001CB50121480701F03BF800214FF00050BC
:100E200001F036F81020009003208DF80400002017
:100E30008DF8070069464FF0904000F067FD0020F4
:100E4000074908604860C8600A460021054800F06C
:100E50000BF8012200210348FFF7CCFF1CBD000066
:100E6000348200200074004070B500230024036821
:100E700040F6FE758D40AB43D2E900563543966887
:100E80003543D66845EA060404FA01F52B430360AE
:100E900070BD18B500230093009001F10803009C79
:100EA00023440093009B1A6018BD30B532B14368EB
:100EB0000D090124AC402343436005E043680D095C
:100EC0000124AC40A343436030BD21B1026842F02D
:100ED0000102026004E002684FF6FE731A400260ED
:100EE0007047000001684FF6FE721140016000215A
:100EF000016041608160C1604B49884208D14A4924
:100F00000839496841F00F01474A083A51608AE0C0
:100F100045491431884208D143490839496841F0AC
:100F2000F001414A083A51607DE03F49283188424A
:100F300008D13D490839496841F470613A4A083A94
:100F4000516070E038493C31884208D1364908394F
:100F5000496841F47041344A083A516063E03249CB
:100F60005031884208D130490839496841F470212C
:100F70002D4A083A516056E02B496431884208D125
:100F800029490839496841F47001274A083A5160F3
:100F900049E025497831884208D123490839496810
:100FA00041F07061204A083A51603CE01F49884294
:100FB00006D1011F096841F00F01021F116032E0E4
:100FC0001A491431884208D11849091F096841F0AB
:100FD000F001164A121F116025E014492831884299
:100FE00008D11249091F096841F470610F4A121FA4
:100FF000116018E00D493C31884208D10B49091FA6
:10100000096841F47041094A121F11600BE0074959
:101010005031884207D10549091F096841F4702100
:10102000024A121F11607047080002400804024083
:1010300010B50022026847F6F0739A430C6A8B6879
:1010400023430C6923434C6923438C692343CC69B4
:1010500023434C6A23438C6A23431A4302608B89DF
:1010600043600B6883604B68C36010BD2DE9F04797
:101070002748006800F110052E8825480068077A87
:10108000CEB9042F17D12348007801280ED10021B2
:101090002148006880B2801C204A815230202049BB
:1010A000088000BF00201B49087003E007271020BC
:1010B0001B49088027E0AC88A64201D8042000E044
:1010C00002200746B44200D93446A0B2A968884736
:1010D0008046002000F0A6FC8146E2B24946404628
:1010E00002F04EF8A1B2002001F06CF92888001B34
:1010F00028806888204468803020094908800002E0
:101100000849088000BF024909680F72BDE8F087EE
:101110001000002008000020505C004000600040EB
:1011200042000020400000202DE9F0412F480068D7
:1011300000F110042688A068C0B1BEB1A588B542F0
:1011400000D93546A8B2A168884707462088401BC9
:101150002080608828446080002000F045FC8046A4
:10116000AAB24146384600F0F9FD00BF208850B1D0
:101170004FF440501E4908800021084601F022F932
:1011800030201C4908802088A188884204DB032085
:1011900016490968087227E02088002804DD052028
:1011A0001249096808721FE02088E8B906200F4933
:1011B0000968087210490968886880470B48006808
:1011C000007A082806D14002094908801020094900
:1011D000088009E000210948006880B2801C084AA4
:1011E0008152302003490880BDE8F08110000020C2
:1011F000400000204200002014000020505C00400D
:10120000006000402DE9F84F9B48006845780027B2
:10121000BA46062D1BD198480068007800F07F0080
:10122000002813D1944909688878012803D193498B
:101230000968CF690AE0022803D1904909680F6A5A
:1012400004E0032802D18D4909684F6A94E0002D1B
:1012500064D189480068408800285FD186480068CA
:10126000C08802285AD1844800680079002855D1E6
:1012700081480068007800F07F0028B97E48006847
:10128000808808B97E4F77E07B480068007800F0DE
:101290007F00012810D178490968487977490968A1
:1012A0008A6900219047002866D173480068807AD7
:1012B000002861D0724F5FE06F480068007800F04E
:1012C0007F00022858D16C480068407900F00F0672
:1012D00069480068407900F0700967480068407903
:1012E00000F0800038B1674901EB8600D0F8000CAF
:1012F00000F0300806E0634901EB8600D0F8000CEE
:1013000000F4405860480078B04235D9B9F1000F78
:1013100032D1B8F1000F2FD0594F2DE0082D07D151
:1013200055480068007800F07F0028BB574F23E045
:101330000A2D21D150480068007800F07F00012874
:101340001AD14D480068807AB0B14B480068408897
:1013500090B949480068007970B947480068C0886A
:10136000012809D1444909684879444909688A69CA
:101370000021904700B9464F57B13F480068A0F898
:1013800012A03D48006887610020B84700240FE0A4
:10139000394A12685078394A1268116988470446F8
:1013A000032C05D10920344909680872BDE8F88F7B
:1013B00031480068008A4FF6FF71884204D1092045
:1013C0002D4909680872F1E7022C03D02A48006809
:1013D000008A20B90820284909680872E6E72648EB
:1013E0000068007800F08000E0B323480068C088FF
:1013F000009021480068008A0099884204D91E495B
:1014000000980968088223E01B480068008A1A498E
:101410000968C98888421BDA17480068008A17499A
:10142000096891F82C10884203DA002019490870E5
:101430000EE011480068008A1049096891F82C10E4
:1014400090FBF1F201FB120010B901201149087064
:101450000A48006890F82C10074800688182FFF75E
:1014600005FE07E0FFE7032003490968087200034F
:101470000949088000BF99E71000002014000020EF
:101480003D280008005000405C000020C1270008F3
:1014900011280008080000204000002070470021AB
:1014A000002200BF05E0002200E0521C052AFCDB00
:1014B000491C8142F7D370470120014908607047F9
:1014C0003C01002010B501200A490860032000F00B
:1014D00099FA094908600846006850B10846008832
:1014E00082B24FF48871054800F038FC01200449AD
:1014F000087010BD4401002020000020C48100209D
:101500002400002000F01F02012191404209034BFA
:1015100003EB4212C2F814147047000000000140AF
:1015200010B50F480078D0B901200D49087000F0BF
:1015300035F9252000F052F800240CE0094901EBB0
:10154000C42000F051F84FF47A70FFF7A8FF25206F
:1015500000F044F8641C0A2CF0DB00F085F810BDA4
:101560004C01002000200108F0B504460D46002182
:101570000120194615E0665CAA2E02D0665C552E45
:1015800009D155262E54665C86F020062F187E70F1
:10159000861CB0B203E0665C2E54461CB0B24E1CF2
:1015A000B1B29142E7DBF0BD30B5034614460122EB
:1015B000012010E01D5C552D07D1451C5D5D85F0B7
:1015C00020058D54851CE8B203E01D5C8D54451C3C
:1015D000E8B2551CEAB2A042ECDB30BD0149C8605C
:1015E000704700000020024030B5044604254FF447
:1015F000302000F0E5F80546042D16D10C480069AE
:1016000040F002000A49086108464461006940F060
:10161000400008614FF4302000F0D2F8054604483D
:10162000006920F0020002490861284630BD000030
:101630000020024004200B49C96801F0010109B1F2
:1016400001200EE00749C96801F0100109B102202C
:1016500007E00449C96801F0040109B1032000E072
:1016600004207047002002400348006940F08000D9
:101670000149086170470000002002400020044931
:10168000C96901F0060109B1012000E0002070479E
:10169000002002400348006920F4007001490861FD
:1016A000704700000020024030B5054604244FF486
:1016B000302000F085F80446042C34D11B48006922
:1016C00040F02000194908610846006940F04000D8
:1016D00008614FF4302000F073F80446042C1AD14E
:1016E0001248006920F0200010490861084600698E
:1016F00040F0100008610E4805804FF4302000F0E3
:101700005FF80446052C0ED00848006920F0100050
:101710000649086107E0052C05D00448006920F05F
:10172000200002490861204630BD00000020024030
:1017300000F8FF1F0548006900F4007020B9044854
:10174000024988600348886070470000002002401A
:1017500023016745AB89EFCD70B504460D460426DD
:101760004FF4302000F02CF80646042E11D10A4820
:10177000006940F001000849086125804FF43020DD
:1017800000F01EF806460448006920F001000249F6
:101790000861304670BD0000002002400548006925
:1017A00000F0800020B104480249486003484860C6
:1017B000704700000020024023016745AB89EFCD50
:1017C00000B502460423FFF735FF034603E0FFF7A9
:1017D00031FF0346521E012B01D1002AF7D102B975
:1017E0000523184600BD10B5FFF748FF50B9FFF7B5
:1017F000D5FFFFF79FFFBB20FFF756FFFFF74AFF1C
:10180000FFF732FF10BD00001CB5072206213B4840
:1018100000F0C7F807221146384800F0C2F8C0208F
:10182000009002208DF8040000208DF806000320AF
:101830008DF8050001208DF8070069462F4800F05B
:1018400065F840F67840009001208DF804000020F3
:101850008DF806008DF8070003208DF80500694615
:10186000264800F053F84FF49850009001208DF86E
:10187000040000208DF806008DF8070003208DF885
:10188000050069464FF0904000F040F87F2000903E
:1018900001208DF8040000208DF8060001208DF84D
:1018A000070003208DF805006946154800F02EF862
:1018B000FF20009001208DF8040000208DF8060024
:1018C00001208DF8070003208DF8050069460D48BA
:1018D00000F01CF84FF40150009001208DF8040036
:1018E00000208DF8060001208DF8070003208DF8F8
:1018F00005006946044800F009F81CBD00040048D2
:1019000000100048000C004800080048F0B50A46E6
:10191000002100240025002300BF3FE0012606FA35
:1019200001F4166806EA0405A54236D11679012E9F
:1019300002D01679022E18D186684FEA410C03278F
:1019400007FA0CF7BE43866056794F00BE408768A1
:101950003E438660868801278F40BE438680878805
:1019600096798E40B6B23743878006684FEA410CBD
:10197000032707FA0CF7BE43066016794F00BE40F6
:1019800007683E430660C3684F000326BE40B3436A
:10199000D6794F00BE403343C360491C1029BDD3E4
:1019A000F0BDF0B5002300244D07ED0E02FA05F35B
:1019B000CE1000F1200555F826504E07F70E0F26E1
:1019C000BE40B543CF1000F1200646F82750CE1098
:1019D00000F1200555F8265045EA0304CE1000F129
:1019E000200545F82640F0BD01460448006880B255
:1019F00000EBC100001D024A805A7047505C004055
:101A00000060004001460548006880B200EBC1005C
:101A1000801D034A805AC0F309007047505C0040A3
:101A20000060004001460448006880B200EBC1003D
:101A3000024A805A70470000505C0040006000403D
:101A40000146044A02EB8100D0F8000C00F030009F
:101A5000704700000050004070B50A480468001D3F
:101A60000568001D0668344454B108220649204622
:101A700000F046F8042204491031284600F040F8EE
:101A800070BD0000ACF7FF1F2700002000BFFEE77D
:101A900010B518480068047A022C01D0042C05D136
:101AA000FFF7E4FA13480068047A1CE0062C19D109
:101AB00010480068407805280ED10E48006800786C
:101AC00000F07F0040B90B490968C87800F0D0FBEE
:101AD00009490968086A8047084909688868804791
:101AE000082400E00824034909680C7200F050F94A
:101AF00010BD0000100000201C0000201400002079
:101B000030B50B46002100BF16E00A24B4EB107F6D
:101B100005D9302404EB107403F8114005E041248A
:101B200004EB10740A3C03F81140000100254C003E
:101B3000641C1D554C1CE1B29142E6DB30BD00BF78
:101B4000FEE770477047000070B5002100230F22A8
:101B5000C47804B3154C246804F4E064C4F5E0646C
:101B6000210AC1F10403CA40447804FA03F18478DD
:101B70001440214309010E4C0678A155047804F065
:101B80001F050124AC4005786D11AD0005F1E0257D
:101B9000C5F8004109E0047804F01F050124AC40B9
:101BA000044D0678761145F8264070BD0CED00E036
:101BB00000E400E080E100E002490143024A1160D4
:101BC000704700000000FA050CED00E070B5022639
:101BD00048480068447847480068007800F07F0073
:101BE000002847D1092C03D100F0A8FE064662E088
:101BF000052C14D13F480068C0787F280BDC3D4895
:101C00000068807838B93B480068808818B939483E
:101C10000068807A08B1082567E000264BE0032CB5
:101C20000ED134480068C078012807D131480068D7
:101C3000808818B900F0A6FE06463CE002263AE08D
:101C4000012C38D12B480068C078012810D12948D0
:101C50000068808860B927480068407A00F020005A
:101C600030B100202449086000F0F4FC064622E070
:101C7000022620E01F480068007800F07F0001285D
:101C800005D10B2C17D100F0F9FE064613E01948D8
:101C90000068007800F07F0002280BD1012C03D1EE
:101CA00000F0D8FC064606E0032C04D100F07EFECE
:101CB000064600E002264EB1E0B2104A12685169B1
:101CC00088470646032E01D109250EE00EB10825EE
:101CD0000BE0062500210A48006880B2801C094AF2
:101CE000815230200849088000BF024909680D72FE
:101CF00070BD00001000002004000020140000202F
:101D0000505C0040006000404200002010B51148C7
:101D10000068047A022C01D0042C01D1082412E0BE
:101D2000032C01D0052C05D1FFF7FEF90948006806
:101D3000047A08E0072C05D107490968C86880477C
:101D4000082400E00824034909680C7200F020F818
:101D500010BD0000100000201400002070B5561CBB
:101D60007510064E8C192B4605E034F8026B20F8EE
:101D7000016B401C5B1E002BF7D170BD0060004062
:101D8000014908627047000000000E4270470000E1
:101D900010B50D4890F82C10002000F0A1FA0B4867
:101DA0000068007A082805D14002094908801020FF
:101DB0000849088005480068007A092801D10120F7
:101DC00010BD0020FCE70000600000201000002093
:101DD000400000204200002010B501240E4804609D
:101DE00000200E490880084600880B49086000BFA3
:101DF0000948001D006800F480600128F8D0002028
:101E000000F03AFB4FF4E05004490880084600888F
:101E100001490860002010BD405C00401A0000200D
:101E20000021010F31B1094AD26A22F47852074BDE
:101E3000DA6205E0054AD26A22F4F872034BDA62EC
:101E4000024AD26A0243014BDA6270470010024034
:101E500029B1064A52690243044B5A6104E0034A1D
:101E600052698243014B5A617047000000100240E2
:101E700029B1064AD2690243044BDA6104E0034AFD
:101E8000D2698243014BDA617047000000100240C2
:101E900029B1064A12690243044B1A6104E0034A5D
:101EA00012698243014B1A61704700000010024022
:101EB00029B1064A92690243044B9A6104E0034A3D
:101EC00092698243014B9A61704700000010024002
:101ED00001490860704700004004424210B50121EA
:101EE0004804FFF7B5FF01218804FFF7B1FF012186
:101EF000C804FFF7ADFF01210805FFF7A9FF012185
:101F00004805FFF7A5FF01218805FFF7A1FF012183
:101F10008803FFF7CDFF01214807FFF7A9FF012143
:101F2000C802FFF7C5FF01210846FFF791FF012115
:101F30000220FFF78DFF01210807FFF789FF01212C
:101F40004807FFF785FF4FF48870FFF769FF0248E5
:101F5000FFF766FF10BD00000022001010B502461A
:101F6000002100230020511111B90C4C23680BE013
:101F7000012902D1094C236A06E0042902D1074C49
:101F8000636801E0054C636A02F01F0101248C4084
:101F90001C400CB1012000E0002010BD00100240E8
:101FA00001490860704700003C0442420249096A46
:101FB0000143014A11627047001002400149086064
:101FC00070470000D8004242014600BF080900EBFC
:101FD0008000420001F00F001044C0B270470000C2
:101FE00010B5002401210807FFF742FF0120FFF789
:101FF000C7FE1248006A20F440740120FFF768FF12
:102000000020FFF765FF0D48046200BF1120FFF7B5
:10201000A5FF0028FAD04FF44070FFF7C7FF01205A
:10202000FFF7BEFF7C200649486040F2CF70886011
:1020300000200860084600F069F810BD001002405A
:10204000A082002008B50022009200200021104A42
:10205000126802F04002CAB9421E0D4B1A6000BF5E
:102060000B4A126802F04001009A521C0092009A3A
:10207000B2F5005F01D00029F2D0054A126802F0E3
:1020800040020AB1012002E0002000E0012008BD6A
:102090000C2800400348006820F0800001490860D7
:1020A000704700000C2800400020034908680249DE
:1020B00024390968704700002828004070B506469A
:1020C0000C4600250F4800680F4900EA0105C5F3DA
:1020D00005402070C5F30620607005F07F00A070F9
:1020E00005F48000000CE0705EB92078FFF76CFF0B
:1020F00020706078FFF768FF6070A078FFF764FFDA
:10210000A07070BD002800407F7F7F0030B504467E
:102110000025CA201549086053200860FFF792FF88
:1021200000B91DE011481C38006820F040000F493C
:102130001C39086008460068216808430B491C39AF
:1021400008600A491439A068086008460068A18838
:1021500040EA0140054914390860FFF79BFF01255B
:10216000FF2002490860284630BD000024280040B6
:1021700010B50446072C01D02E4804702D48007875
:1021800008284ED2DFE800F004111A202B384E4FF9
:102190002948006828B900F053F80620254908703E
:1021A00002E005202349087041E000F049F80420CE
:1021B0002049087001202049086038E002201D49AC
:1021C00048700320087032E01A484078401E1949D0
:1021D00048700846407808B90420087027E017487E
:1021E000006883B243F010031448036005201149CE
:1021F00008700A2048701AE00E484078401E0D49C9
:1022000048700846407858B90C48006883B223F0FB
:1022100010030A4803600620087000200649086081
:1022200005E000BF00BF06200249087000BF00BFE4
:1022300010BD0000490000204C000020405C004020
:102240000549096888B220F00400034908604FF48A
:102250003F41014A11607047405C004070470000F8
:102260004FF6F8710140014A11607047505C004020
:1022700030B501460F4B1A78002014E003060E4CCF
:1022800004EB9353D3F8003C48F68F74234048F294
:1022900080042343C4B223430406074D05EB945442
:1022A000C4F8003C401C9042E8D341F08003034C4A
:1022B000236030BD5C000020005000404C5C0040BA
:1022C00010B54A105300044A126892B202EBC002E1
:1022D000121D024C135310BD505C004000600040C2
:1022E00010B502461048006880B200EBC200801DA5
:1022F0000E4C03193E290BDD481101F01F040CB9E7
:10230000441EA0B24FF4004444EA80241C800AE03A
:10231000481001F001040CB1441CA0B24FF6FF7448
:1023200004EA80241C8010BD505C00400060004026
:1023300030B50E4C04EB8003D3F8003C4BF68F74A1
:1023400003EA040201F480530BB182F4805201F4D9
:1023500000530BB182F4005242F4004343F0800377
:10236000024D05EB8004C4F8003C30BD0050004035
:1023700010B50B4B03EB8002D2F8002C4BF68F7399
:1023800002EA030181F4805181F4005141F40042DA
:1023900042F08002024C04EB8003C3F8002C10BD15
:1023A0000050004010B54A105200044B1B689BB20D
:1023B00003EBC003024C1A5310BD0000505C0040F8
:1023C00000600040044A126892B202EBC002921C04
:1023D000024BD15270470000505C0040006000404A
:1023E00030B50E4C04EB8003D3F8003C48F6BF74C4
:1023F00003EA040201F010030BB182F0100201F0B5
:1024000020030BB182F0200242F4004343F080032A
:10241000024D05EB8004C4F8003C30BD0050004084
:1024200010B50B4B03EB8002D2F8002C48F6BF73BB
:1024300002EA030181F0100181F0200141F4004221
:1024400042F08002024C04EB8003C3F8002C10BD64
:102450000050004010B5074B03EB8002D2F8002C6F
:1024600048F68F131A400A43024C04EB8003C3F86A
:10247000002C10BD0050004001490860704700006A
:10248000445C00400CB50020019000902C4800688E
:1024900040F480302A49086000BF2948006800F4F1
:1024A000003000900198401C0190009818B90198E4
:1024B000B0F5A04FF1D12248006800F4003010B10F
:1024C0000120009001E0002000900098012836D102
:1024D00012201C4908601A4840681949486008469B
:1024E000406848600846406840F48060486008469C
:1024F000406820F47C1048600846406840F4E810CA
:1025000048600846006840F08070086000BF0C48D2
:10251000006800F000700028F9D00948406820F0F9
:102520000300074948600846406840F002004860E0
:1025300000BF0348406800F00C000828F9D10CBD2A
:1025400000100240002002401CB501214804FFF7A2
:102550007FFC4FF4C050009003208DF8050002204E
:102560008DF8040000208DF806008DF807006946FC
:102570004FF09040FFF7CAF90E220B214FF0904028
:10258000FFF70FFA0E220C214FF09040FFF709FAE7
:102590001CBD10B50020FFF711FD0121C805FFF794
:1025A00067FC10BD38B500242748006880B2001DC4
:1025B0002649405A0844009025480068007A0928B6
:1025C00032D0009800782249096808700098401CB1
:1025D0000090009800781E49096848700098401CD7
:1025E0000090009800EB44000090009931F8020B35
:1025F0000091FEF747FA164909684880009800EBF9
:1026000044000090009931F8020B0091FEF73AFA6D
:102610000F4909688880009800EB440000900098FA
:1026200000880B490968C8800120094909680872B7
:1026300007480068C08810B9FFF7C8FA01E0FEF744
:10264000E1FDFFF7A5FB38BD505C00400060004095
:10265000100000202DE9F04754480068007800F091
:102660007F08B8F1000F0AD150480068407A00F0A6
:10267000DF004E49096848720020BDE8F087B8F1D4
:10268000020F7CD149480068408818B94748006863
:10269000007908B10220F0E7DFF8149143480068A0
:1026A000477927F080052C4640480068407900F0C3
:1026B000800038B13F4901EB8400D0F8000C00F0F5
:1026C000300606E03B4901EB8400D0F8000C00F432
:1026D000405699F80000A84204D91EB1334800685A
:1026E000807A08B90220C8E707F0800080B131493C
:1026F00001EB8400D0F8000C00F0300010284BD122
:10270000E0B2FEF745FBE0B23021FFF769FE43E09F
:10271000284901EB8400D0F8000C00F44050B0F5DB
:10272000805F39D1E4B9244A92F82C10E0B2FFF767
:10273000D7FD204A02EB8401D1F8001C4BF68F72C2
:1027400001EA020080F4805080F4005040F400411F
:1027500041F08001174B03EB8402C2F8001C1BE020
:10276000E0B2FEF7FBFA134A02EB8401D1F8001C39
:102770004BF68F7201EA020080F4805000E011E015
:1027800080F4005040F4004141F08001094B03EB1C
:102790008402C2F8001C00BF0849096848698047E4
:1027A00000206AE700BF022067E700001000002059
:1027B0005C00002000500040600000201C00002051
:1027C00010B504462CB9012006490968088200208A
:1027D00010BD0549096808688047024800680A304A
:1027E000F6E70000100000201C00002010B5024693
:1027F00006480068438A32B98888C01A034C2468A6
:102800002082002010BD08681844FBE7100000205B
:1028100010B504462CB90120064909680882002039
:1028200010BD0549096888688047024800680C3077
:10283000F6E70000100000201C00002010B5044640
:102840002CB90220394909680882002010BD0020F7
:102850003749088035480068007800F07F0018BBD1
:1028600032490968487A00F0200131B130490978CD
:1028700041F002012E4A117005E02D49097801F05E
:10288000FD012B4A117000F0400131B1284909784F
:1028900041F00101264A117005E02549097801F04F
:1028A000FE01234A11703AE020480068007800F0E9
:1028B0007F00012801D11E48C8E71C480068007845
:1028C00000F07F00022828D1184A1268517901F0DF
:1028D0000F0001F080027AB1164B03EB8002D2F8B0
:1028E000002C02F03002102A16D1114A127842F060
:1028F00001020F4B1A700FE00E4B03EB8002D2F86F
:10290000002C02F44052B2F5805F05D1084A1278DB
:1029100042F00102064B1A7001E0002096E70649DA
:10292000096808698047024890E70000100000200D
:1029300000000020005000401C00002010B50E4890
:102940000068C0780D494978884213DC0A4800685D
:10295000807878B908480068808858B906480068C7
:10296000C078054909688872054909684868804740
:10297000002010BD0220FCE7100000205C000020B9
:102980001C00002010B507480068407A40F0200085
:1029900004490968487204490968C86980470020E9
:1029A00010BD0000100000201C0000202DE9F041A7
:1029B0002E480068467926F080073C462B48006880
:1029C000407900F0800038B1294901EB8400D0F84B
:1029D000000C00F0300506E0254901EB8400D0F83A
:1029E000000C00F4405523480078A04208D91F4845
:1029F0000068408820B91DB11C480068807A10B971
:102A00000220BDE8F08106F08000A0B1184A02EB78
:102A10008401D1F8001C48F6BF7201EA020080F080
:102A2000100040F4004141F08001114B03EB84029F
:102A3000C2F8001C14E00E4A02EB8401D1F8001C1D
:102A40004BF68F7201EA020080F4805040F400419E
:102A500041F08001064B03EB8402C2F8001C00BF6A
:102A600005490968886980470020CAE710000020EE
:102A7000005000405C0000201C00002010B5174BE7
:102A80001B68D978154B1B685879154B1B689A69D8
:102A90009047044611480068807AE8B13CB90F4875
:102AA0000068007918B90D480068807808B10220E4
:102AB00010BD8CB90B490968C86880470748006891
:102AC000407906490968C87204480068C07803491B
:102AD000096808730020EBE70220E9E710000020F6
:102AE000140000201C00002010B50021204A1268AC
:102AF00090B200BF09E01F4B03EB8102D2F8002C1B
:102B000092B21D4B43F82120491C0829F3D340F40D
:102B10008060174A106040F00100106020F0010052
:102B2000106000BF124A121D126802F48062002A6F
:102B3000F8D04FF6FF320E4B1B1D1A60002109E042
:102B40000D4A52F8212092B20A4C04EB8103C3F8DB
:102B5000002C491C0829F3D340F00800044A1060F7
:102B6000126890B240F00400014A106010BD0000ED
:102B7000405C004000500040A4010020704700006D
:102B800010B51B48006840F47000194908601948E6
:102B9000006840F00100174908600846406816497F
:102BA0000840144948600846006814490840114923
:102BB00008600846006820F48020086008464068E5
:102BC00020F4FE0048600846C06A20F00F00C8628A
:102BD0000846006B0A4908400649086300208860DF
:102BE000FFF750FC4FF0006001498039086010BDCC
:102BF00088ED00E0001002400CC07FF8FFFFF6FEF9
:102C0000CCFC00FF3EB504460F4800F03AF9601EC8
:102C100001904720ADF800000020ADF80800ADF8A5
:102C200002006946084800F033F90121064800F027
:102C3000F7F80021044800F0E7F8012211460248A5
:102C400000F013F93EBD00000004004070B5002400
:102C500000250121504800F0F7F8002879D0012123
:102C60004D4800F0E1F800F073FD0220FEF717FC7C
:102C700000BF89E015B1012D0FD106E04FF480604F
:102C8000464908804000088007E04FF480604349CF
:102C9000103908604000086000BF00BF4FF0A0403E
:102CA000FDF7DAFE3E48FDF7D7FE3E48FDF7D4FEBD
:102CB0003D48FDF7D1FE002413E03C48006830F8A1
:102CC00014103B483B4A127800EB42323A480078F5
:102CD000401E02EBC01004EB451220F81210601CDD
:102CE000C4B2092CE9DB002415E03448006830F850
:102CF00014102F482F4A127800EB42322E480078E9
:102D0000401E02EBC01204F1090000EB451022F84E
:102D10001010601CC4B2062CE7DB002415E0284824
:102D2000006830F814102248224A127800EB423230
:102D300021480078401E02EBC01204F10F0000EBA6
:102D4000451022F81010601CC4B20A2CE7DB0024E6
:102D500016E01FE01B48006830F814101448154AAC
:102D6000127800EB423214480078401E02EBC01289
:102D700004F1190000EB451022F81010601CC4B2D9
:102D8000072CE7DB681CC5B2022DFFF673AF0120EC
:102D90000D49087070BD0000000400402804004880
:102DA0000001005000040050000500502C010020DC
:102DB000C40100202A0100204A0100203001002027
:102DC00034010020380100202901002008B501212C
:102DD0000220FFF74DF81D208DF8000002208DF82D
:102DE000010001208DF802008DF803006846FEF70F
:102DF000ABFE0121034800F013F80121014800F067
:102E000013F808BD0004004021B1028842F080029E
:102E1000028004E002884FF67F731A4002807047F8
:102E2000CA4392B202617047CA4392B202617047CC
:102E300021B1028842F00102028004E002884FF6CC
:102E4000FE731A400280704730B50246002000230E
:102E50000024156905EA0103D56805EA010413B1E8
:102E60000CB1012000E0002030BD10B51AB1C368DC
:102E70000B43C36004E0C368CC43A4B22340C360E7
:102E800010BD81684FF6F8721140816070470000F4
:102E9000002202881E4B98420ED01E4B98420BD047
:102EA000B0F1804F08D01C4B984205D01B4B984284
:102EB00002D01B4B984204D14FF68F731A404B88B7
:102EC0001A43184B984207D0174B984204D04FF63C
:102ED000FF431A400B891A4302804B68C3620B8878
:102EE00003850B4B98420ED00A4B98420BD00F4BE8
:102EF000984208D00E4B984205D00E4B984202D013
:102F0000074B984201D14B890386012343617047E7
:102F1000002C014000340140000400400008004043
:102F200000500140001000400014004000400140EB
:102F3000004401400048014010B51220FEF7E2FABB
:102F400010BD08B54FF4A060FEF736FE14208DF8D2
:102F5000000001208DF8010000208DF80200012002
:102F60008DF803006846FEF7EFFD2A208DF800007B
:102F700000208DF801006846FEF7E6FD08BD000060
:102F800010B588B000246848006868490880084681
:102F9000008800F4007066490988084040B14FF687
:102FA000FF506149086063480078401C614908701F
:102FB0005E48008800F400405D490988084008B177
:102FC000FDF788FD5948008800F480605849098859
:102FD000084030B14FF6FF30534908605649486801
:102FE00080475248008800F4005051490988084041
:102FF00018B14DF6FF704C4908604C48008800F449
:1030000080504B490988084030B14EF6FF70464960
:1030100008600020FFF7ACF84448008800F4006026
:1030200043490988084060B14448007810B1FFF76F
:103030005BFD02E00220FFF79BF84FF2FF703A4978
:1030400008603A48008800F48070394909880840CF
:10305000002866D04FF6FF6033490860081D0068FD
:1030600000F40040002856D035480068401C344920
:10307000086008460068032850D92B48001F0068E4
:1030800000F00800002849D12748001F006880B2DE
:103090002C490860002408E02B4901EB8400D0F89B
:1030A000000C80B24DF82400641C082CF4D3254891
:1030B000006840F00100234908600846006880B2BB
:1030C0001949091F08601F48006820F001001D49C8
:1030D00008600846006880B21349091F086000BFF5
:1030E0001148006800F480600028F9D04FF6FF30E6
:1030F0000D490860002408E05DF8240080B2124AFF
:1031000002EB8401C1F8000C641C082CF4D30020ED
:103110000B49086002E00020094908600720FFF71A
:1031200027F808B010BD0000445C0040E400002017
:103130001A000020E6000020600000204800002067
:10314000E8000020EC0000200050004010B5FFF720
:1031500017FFFDF79DFC10BD0020064908604FF4E5
:103160003F4005490880084600880249091F086059
:1031700000207047445C00401A00002000BFFEE7BA
:1031800070B5561C7510074E8C192B4606E030F8AA
:10319000016B24F8026B401C5E1EF3B2002BF6D1CB
:1031A00070BD00000060004070B504460025212C71
:1031B00008D112480068007800F07F0021280ED165
:1031C0000F4D0CE0202C0AD10C480068007800F06C
:1031D0007F00212800D10B4D20200B4908700DB92C
:1031E000022070BD05480068856100210348006821
:1031F00041820020A8470020F3E7000010000020D3
:1032000035320008C53300085000002010B50446D0
:1032100002492046FFF7EAFA10BD0000BC0000207A
:1032200010B5044602492046FFF7E0FA10BD000041
:10323000B4000020014629B90820034A1268108210
:10324000002070470148FCE71000002054000020D7
:1032500070B5054606480068C478042C01DB0020E0
:1032600070BD044800EBC4012846FFF7BFFAF7E73A
:1032700010000020C40000200246002901DD0220C9
:103280007047012A01DD0220FAE70020F8E700007C
:10329000014608480068007800F07F00212807D127
:1032A000022901D100207047222901D10020FAE72C
:1032B0000220F8E71000002010B50020344909680A
:1032C00088723448C0793249096848720020304910
:1032D0000968C872FEF7C4FF4FF400710020FFF7C1
:1032E000B9F810210020FFF77BF840210020FEF7FD
:1032F000E7FF80210020FFF755F80020FDF762FD71
:10330000254890F82C100020FEF7EAFF0020FFF778
:103310002FF800210120FFF79DF8C0210120FFF7C1
:1033200041F820210120FFF75BF800210120FEF782
:10333000FFFF4FF4C0610220FFF78CF84FF480715B
:103340000220FFF72FF800210220FEF7F1FF2021D5
:103350000220FFF745F800210320FFF77BF84FF428
:1033600088710320FEF7ACFF40210320FEF7B8FF71
:103370004FF440510320FEF7DBFF00210320FFF74D
:103380002FF80020FEF774FF01200449086010BDEB
:1033900010000020223E00086000002044000020B1
:1033A0000348817A11B10521024A1160704700007B
:1033B0008801002044000020042001490860704773
:1033C00044000020014629B90820034A12681082EF
:1033D000002070470148FCE7100000205400002046
:1033E00003480078202802D1002001490870704766
:1033F000500000207047000010B5FEF72DFB0020A4
:10340000054909688872FEF7E7FCFFF7A5FE002072
:103410000249086010BD0000100000204400002098
:1034200002E008C8121F08C1002AFAD1704770478D
:10343000002001E001C1121F002AFBD170470000EB
:1034400008480078012806D1022007498861002039
:103450000449087005E0022003490885012001495C
:10346000087070474B0100200010004870B50446FA
:103470000D4600BF0120FEF7E3FA2028FAD12946C5
:103480002046FDF711FB70BD082009490880102077
:1034900008802020088040200880082005490880F6
:1034A0000120088002200880042008807047000066
:1034B00028040048280C004810B52DED028BB0EE12
:1034C000408A1348007B00EE100AB8EE400A20EE56
:1034D000080ADFED100A20EE200ADFED0F0A80EE69
:1034E000201A9FED0E0A21EE000ABCEEC00A10EE73
:1034F000100A84B2224600210948FDF7CAFC0122C5
:1035000000210748FDF7D1FCBDEC028B10BD000087
:1035100000A40020CDCCCC3D333353400000804587
:10352000007400402DE9F0472DED028B04460D4656
:1035300016461F46B0EE408ADDF828A04FF000087E
:10354000C146002C28DD05EB443000EBC61030F8F6
:10355000170000EE100AB8EE400A20EE080A05EB4C
:103560004430A0F5005000EBC61030F8170000EE14
:10357000900AF8EE600AB7EE001A31EE481A00EE33
:10358000810ABCEEC00A10EE100A05EB443101EBD3
:10359000C61121F817000BE005EB443000EBC61014
:1035A00030F8170005EB443101EBC61121F8170084
:1035B0004FF000080CE005EB483000EBC61030F887
:1035C000170000FA08F0814408F1010000F0FF083C
:1035D000601C8045EFDB1B48007860B100EE109A5C
:1035E000B8EE400ADFED180A20EE200ABCEEC00A51
:1035F00010EE109A06E0611CC8B200F0DDFA401E21
:10360000B9FBF0F9032C17D14FF0000811E005EBDE
:10361000483000F5005000EBC61030F8170005EBFD
:10362000483101EBC61121F8170008F1010000F044
:10363000FF08B8F1030FEADB4846BDEC028BBDE89A
:10364000F087000048010020488A883D70B5044694
:103650000025FEF7A3F801262520FDF7BFFF2588EA
:103660002520FDF7BBFFFDF7FFFF284670BD0000DA
:1036700010B504460548FFF7E9FF4FF6FF71884291
:1036800003D10349014800F005F810BD0008010806
:103690005C0100202DE9F04105460E460024B046AD
:1036A000FEF77CF801272520FDF798FF2846FDF757
:1036B0009BFF0746042F0CD1012700BF07E038F815
:1036C000141005EB4400FEF747F80746641C032C72
:1036D000F5DB01272520FDF781FFFDF7C5FFBDE8DC
:1036E000F081000010B510490020FEF7E7FCFEF75E
:1036F000DBFCC0F5FA6040080B4909784FF46162C1
:1037000011FB02F1084A5278C2EB021201EB82016E
:10371000054A9278114401EB4102C2EBC11100EB62
:10372000C1000249086010BD740100207001002032
:1037300005480079012802D10449886102E001208E
:10374000024908857047000000A4002000100048CE
:103750000F203249088032480078012803D17820B0
:103760003049088009E078202E4908802C480078EC
:10377000401EC0002B49103908602B4800781028E3
:1037800004DA01202549103908603BE0264800781A
:103790000F2812DD2448007820280EDA224800780D
:1037A000102802D101201E49087001201B49088001
:1037B00002201A491039086024E01B4800781F28AD
:1037C00012DD1948007830280EDA174800782028D2
:1037D00002D10120124908700220104908800420FB
:1037E0000E49103908600DE00F480078302802D1EA
:1037F00001200B4908700420084908800820074967
:103800001039086008480078401C074908700448CF
:103810000078401C0249087070470000280C0048DE
:1038200049010020280400484A0100202DED028BA8
:1038300082B000240025874E9FED870AB0EE408AB3
:1038400000F092F905E185480078AA2830D1844833
:10385000007801282CD10020814908707F49087028
:103860008048028880497D48FDF79EFE7E48C078EA
:10387000802806D0812807D0822811D0832815D12E
:1038800011E000F00BF912E000F006FA7348807CBA
:10389000832804D100207149887400F0DDF906E026
:1038A000FFF746FF03E000F0D7F900E000BF00BFDC
:1038B0006E4800780128C5D100206C4908706C481A
:1038C00000784128BED1FFF7DFFD00216948FFF7EE
:1038D000AFFA6948008800EE100AB8EE400ADFED42
:1038E000670A60EE200A6648D0F8020000EE100A6F
:1038F00020EE800AF7EE000A20EE200AB0EE408AA1
:10390000604800880A2839D003205F4908700024E5
:1039100031E000252BE05C48007806EB403000EBFE
:10392000C41030F8150000EE100AB8EE400A20EE80
:10393000080ABCEEC00A10EE100A81B2534800EB30
:10394000C41000EB45000180504800EBC41000EBB0
:10395000450000884A490988884206DA00214B4818
:1039600000EBC41000EB45000180681CC5B2402D7F
:10397000D1DB601CC4B2402CCBDB5AE0002446E013
:10398000002540E000209FED420A2B4622463149A7
:1039900000903D480078FFF7C5FD2E493A4A12785D
:1039A00001EB423101EBC41121F8150029483649D9
:1039B000097800EB413000EBC41030F8150000EE40
:1039C000100AB8EE400A20EE080ABCEEC00A10EE5B
:1039D000100A81B22D4800EBC41000EB45000180B5
:1039E0002A4800EBC41000EB4500008824490988F0
:1039F000884206DA0021254800EBC41000EB4500A0
:103A00000180681CC5B2402DBCDB601CC4B2402CD8
:103A1000B6DB1D480078032806DB03201A4908702E
:103A200001201C49087004E017480078401C164922
:103A3000087000200E49087001201749087000F036
:103A4000C7F800F089F9FFF7FBFC01210948FFF7EF
:103A5000EFF9F8E6C401002000000000C481002056
:103A6000240000202000002000A4002029010020C4
:103A70004A0100200004004068010020006F013C62
:103A80007C010020020801082A0100202BA400204C
:103A90000AD7A33E480100204901002010B52B4859
:103AA000C0882B4908802948408948802748007BE6
:103AB0008880264880882749088025492648FFF7BE
:103AC000E9FD2248C088254908802048007B00EE97
:103AD000100AF8EE400AB7EE001A81EE200A10EE46
:103AE000100AC1F8020019484089C88001200AE084
:103AF0001649B1F81110154A125C1144134AA2F884
:103B00001110411CC8B21128F2DB01231322144901
:103B10000E48FDF729FD13490870AA2010490870C6
:103B2000104801780E48FFF7A1FC01200D490870EC
:103B30000648C08810B90A200449C880B7EE080AB0
:103B4000FFF7BAFC00F092F810BD000000A40020BE
:103B50005C01002068010020000801087C010020B1
:103B6000E0A300208401002010B5FEF7B7F9FDF7AF
:103B70004BFEFEF7E9FCFEF70CFDFDF737F9FDF70C
:103B800047F9FCF7BFFBFFF7DCF900F023F9FFF77B
:103B90007BFCFDF728FEFFF719F93C20FFF732F810
:103BA0000448FFF765FDFEF71BFA00F05FF8FDF72C
:103BB000B7FC10BD000801080146012000220122C7
:103BC00002E04000531CDAB28A42FADD704700007E
:103BD00010B5FFF787FD084800680849C1F80300E1
:103BE00000F044F8002342F20F0205490348FDF7B4
:103BF000BBFC0449088010BD7001002020A40020F7
:103C0000AC82002052010020AA20114908700E2029
:103C1000A1F801008120C87041F2883088800D48E9
:103C20000088C8804020087248720A48C0884881CD
:103C30000A2008730120A1F80D0040F20111044888
:103C4000A0F80F104FF4B0700149A1F811007047AF
:103C500000A400207C01002010B5FEF7C1F900206F
:103C60000149086010BD00007001002042F2090007
:103C7000074908807F2088700120A1F8070040F2E2
:103C80000110A1F8090000210248C0F80B1070478C
:103C900020A4002020C4002010B50024264800885D
:103CA000264908802448001D008800EE100AB8EE5E
:103CB000400A10EE100AC1F802002148007B00EE15
:103CC000100AF8EE400AB7EE001A81EE200A10EE54
:103CD000100AC1F80200FFF797FF012313221949C8
:103CE0001748FDF741FCC4B2AA20164908702146C6
:103CF0001448FFF7BBFB01241148C08810B90A2003
:103D00000F49C880FFF7B2FF0F48007890B9B7EEAF
:103D1000080AFFF7D1FB01200B490870FFF7B4FB3D
:103D200001200A490870002009490870012109484A
:103D3000FFF77EF810BD0000000801087C0100209C
:103D400000A40020E0A300208501002049010020FC
:103D50004A0100200004004070B5002400251A48E4
:103D60000088C0F38715AA201849087000BF0DE02D
:103D700000BF0120FDF764FE2028FAD1134901EBB2
:103D800084104021FCF790FE601CC4B2AC42EFDB13
:103D900000BF0120FDF754FE2028FAD10A4A1688F8
:103DA000F21706EB92629211A6EB8212D1B2074A89
:103DB00002EB8510FCF778FE012003490880002003
:103DC0000349088070BD000052010020AC82002031
:103DD0005401002010B5084808490860022009680D
:103DE00008720748074908600748084908600549FC
:103DF00009680868804710BD880100201000002075
:103E00006000002014000020900000201C00002012
:103E10001201000202020240830440570002010224
:103E2000030109024300020100C03209040000013D
:103E300002020100052400100105240100010424F0
:103E400002020524060001070582030800FF090499
:103E50000100020A000000070503024000000705F8
:103E60008102400000040309042603530054004D5E
:103E7000006900630072006F0065006C00650063FC
:103E800000740072006F006E0069006300730032FE
:103E900003530054004D00330032002000560069E7
:103EA0000072007400750061006C00200043004F38
:103EB000004D00200050006F0072007400200020B0
:103EC00000000000E43E000800000020880100001F
:103ED0000C020008883F000888010020A8E70000C5
:103EE000303400080125141A03531254124D1233B2
:103EF000021832C2012AC20E12081A040713F9333B
:103F00001408B9321B08E1081AF50413A9311B087B
:103F100091101A79041A21041A0D041A510441321D
:103F20004013451B1B08A12829080912041AB91CB3
:103F300013103E3308121A220832431A650832045D
:103F40001A690832261A8F0829A92225F3201A0B8C
:103F500018B9145C69040A11C5244113E4811B20BB
:103F6000F6041302821B20160469F43908690D89CE
:103F70000911120A1A1404410512803F8813120A0B
:083F800056CDCCCC3D1400002D
:040000050800018965
:00000001FF
