:020000040801F1
:10200000000600209D210108FF3F0108493F01080B
:10201000FB3F0108C9350108314F010800000000ED
:10202000000000000000000000000000C94301089B
:10203000353D010800000000B9410108594C010874
:10204000D5210108D5210108D5210108D521010894
:10205000D5210108D5210108D5210108D521010884
:10206000D5210108D5210108D5210108D521010874
:10207000D5210108D5210108D5210108D521010864
:10208000D5210108D5210108D5210108D521010854
:10209000014F0108D5210108D5210108D5210108EA
:1020A000D5210108D5210108D5210108D521010834
:1020B000D5210108E14C0108D5210108D5210108ED
:1020C000D5210108D5210108D5210108D521010814
:1020D000D5210108D5210108D5210108D521010804
:1020E000D5210108D52101082B4D0108D521010872
:1020F000D5210108D5210108D5210108D5210108E4
:10210000000000000000000000000000D5210108D0
:10211000D5210108D5210108D5210108D5210108C3
:10212000D5210108D5210108D5210108D5210108B3
:10213000D5210108D52101080000000000000000A1
:10214000D5210108D5210108D52101080000000092
:10215000000000000000000000000000000000007F
:102160000000000000000000D5210108D521010871
:10217000D521010800000000000000000000000060
:1021800000000000D5210108DFF80CD000F050F865
:102190000048004749520108000600200E48016827
:1021A00041F470010160BFF34F8FDFF83000016828
:1021B00021F040410160BFF36F8F09488047094813
:1021C0000047FEE7FEE7FEE7FEE7FEE7FEE7FEE785
:1021D000FEE7FEE7FEE7000088ED00E034EF00E0F8
:1021E0005D4C01088921010840EA01039B0703D0E7
:1021F00009E008C9121F08C0042AFAD203E011F846
:10220000013B00F8013B521EF9D27047D2B201E007
:1022100000F8012B491EFBD270470022F6E710B5EB
:1022200013460A4604461946FFF7F0FF204610BD44
:10223000064C074D06E0E06840F0010394E8070013
:1022400098471034AC42F6D3FFF7A2FFA06B010809
:10225000C06B010870B58C1810F8015B15F007030E
:1022600001D110F8013B2A1106D110F8012B03E02F
:1022700010F8016B01F8016B5B1EF9D12B0705D437
:102280000023521E0DD401F8013BFAE710F8013B80
:10229000CB1A921C03E013F8015B01F8015B521E9C
:1022A000F9D5A142D8D3002070BD00002DE9F80F68
:1022B000C04B4FF0010C4FF00508C3F808C0D3F82D
:1022C00008C0D3F800C0CDF800C01CF1010C0AD042
:1022D0004368D2F804C0006883EA0C07136880EAF8
:1022E000030C63460FE0DDF800C0C3F800C01B68B4
:1022F000009353B14368D2F804C0006883EA0C0726
:10230000136843409C4664460FE00368D2F800C05F
:10231000946883EA0C074368D2F804C083EA0C0C83
:102320008368C0686340D4684440A3483D0E04F00D
:10233000FF0950F82560CCF3074550F8299050F874
:10234000255007F0FF0A86EA3525C3F3072650F823
:102350002AA050F826600CF0FF0B4FEA364686EABA
:10236000396675401669C3F307496E404FEA1C652C
:1023700050F8299050F82550CCF3072C85EA3925E0
:10238000C4F3072950F82CC050F8299050F82BB00E
:102390004FEA394989EA3A6985EA0905D2F8149081
:1023A000C4F3074A85EA09054FEA136950F82AA0E1
:1023B00050F82990240E89EA3A29C7F3072AC7F36F
:1023C0000747DBB250F82AA050F8244050F8277095
:1023D00050F823304FEA3A4A4FEA3C4C8AEA3B6ACB
:1023E00084EA37248CEA336389EA0A0984EA030C15
:1023F000D2F818A0D3692032A8F1010889EA0A09A5
:102400008CEA0304B8F1000F69DD330EC5F3074C05
:1024100050F8233050F82CC0E7B283EA3C23C9F3CC
:10242000072C50F8277050F82CC006F0FF0A4FEA2E
:102430003C4C8CEA376C83EA0C03D2F800C050F8AD
:102440002AA083EA0C072B0EC9F3074C50F823305F
:1024500050F82CC005F0FF0B83EA3C23C4F3072C93
:10246000C5F3072550F82CC050F825504FEA3C4CD6
:102470008CEA3A6C83EA0C03D2F804C0C4F3074A2E
:1024800083EA0C0C4FEA196350F82AA050F8233065
:10249000240E83EA3A23C6F3072AC6F3074650F808
:1024A000244050F8266050F82AA084EA362409F027
:1024B000FF0650F82BB050F826604FEA3A4A4FEA30
:1024C00035458AEA3B6A85EA366583EA0A036C4049
:1024D000D2F808A0D56883EA0A036C4026E737489B
:1024E00050FA84F300EB166C1B789CF800C0C9F31B
:1024F000072743EA0C63C5F3074CC75D10F80CC00F
:102500004FEA0C4C4CEA072C43EA0C03D2F800C00B
:1025100083EA0C030B6050FA86F300EB156C1B7812
:102520009CF800C0C4F3072743EA0C63C9F3074CC7
:10253000C75D10F80CC04FEA0C4C4CEA072C43EA7C
:102540000C03D2F804C083EA0C034B6050FA85F305
:1025500000EB196C1B789CF800C0C6F3072743EA10
:102560000C6CC4F30743C75DC35C1B0443EA072339
:102570004CEA0303D2F808C083EA0C038B6050FADC
:1025800089F300EB146C1B789CF800C0C5F307249A
:1025900043EA0C63C6F3074CD26810F80CC0005D28
:1025A0004FEA0C4C4CEA002018435040C860BDE88C
:1025B000F80F7047003002403056010808540108F7
:1025C0002DE9F04105460C4600F094F8286820609B
:1025D00068686060A868A060E868E0604448012618
:1025E00000F5C5611034D4E900C300EB1C67CCF3DF
:1025F00007483F7810F8088051F8277051F8288074
:1026000087EA3827CCF3072810F8088051F828808B
:102610004FEA384850FA8CFC9CF800C0D4E90225F7
:1026200051F82CC088EA3C6C87EA0C0CC4F800C056
:1026300000EB136CC3F307479CF800C0C75D51F86B
:102640002CC051F827708CEA372CC3F30727C75DDD
:1026500051F827704FEA374750FA83F31B7851F847
:10266000233087EA33638CEA0303636000EB126371
:10267000C2F3074C1B7810F80CC051F8233051F806
:102680002CC083EA3C23C2F3072C10F80CC051F88D
:102690002CC04FEA3C4C50FA82F2127851F82220BA
:1026A0008CEA32625A40A26000EB1562C5F3074320
:1026B0001278C35C51F8222051F8233082EA332289
:1026C000C5F30723C35C51F823304FEA334350FA74
:1026D00085FC9CF800C0761C51F82CC083EA3C6352
:1026E0005A40E2600A2EFFF67DAFBDE8F08100009F
:1026F000085401082DE9F003D0E900C38268C068DE
:10270000184CC1E90220E1E804C30A26A4F50075CB
:1027100005EB1067C0F307483F7815F8088047EAD3
:102720000867C0F3072815F808804FEA084855FAEB
:1027300080F999F8009048EA092847EA080787EAEB
:102740000C0C54F8047B8CEA070C83EA0C035A4007
:102750005040C1E90220E1E804C3761ED8D1BDE8AB
:10276000F0037047085601082DE9F80FC04B4FF0F1
:10277000010C4FF00608C3F808C0D3F808C0D3F81E
:1027800000C0CDF800C01CF1010C0AD04368D2F89B
:1027900004C0006883EA0C07136880EA030C6346F0
:1027A0000FE0DDF800C0C3F800C01B68009353B110
:1027B0004368D2F804C0006883EA0C0713684340FA
:1027C0009C4664460FE00368D2F800C0946883EA30
:1027D0000C074368D2F804C083EA0C0C8368C06815
:1027E0006340D4684440A3483D0E04F0FF0950F80C
:1027F0002560CCF3074550F8299050F8255007F094
:10280000FF0A86EA3525C3F3072650F82AA050F8B8
:1028100026600CF0FF0B4FEA364686EA39667540B3
:102820001669C3F307496E404FEA1C6550F82990BA
:1028300050F82550CCF3072C85EA3925C4F3072935
:1028400050F82CC050F8299050F82BB04FEA394975
:1028500089EA3A6985EA0905D2F81490C4F3074A6F
:1028600085EA09054FEA136950F82AA050F8299023
:10287000240E89EA3A29C7F3072AC7F30747DBB2D0
:1028800050F82AA050F8244050F8277050F8233010
:102890004FEA3A4A4FEA3C4C8AEA3B6A84EA3724D8
:1028A0008CEA336389EA0A0984EA030CD2F818A097
:1028B000D3692032A8F1010889EA0A098CEA0304E5
:1028C000B8F1000F69DD330EC5F3074C50F8233023
:1028D00050F82CC0E7B283EA3C23C9F3072C50F828
:1028E000277050F82CC006F0FF0A4FEA3C4C8CEAE7
:1028F000376C83EA0C03D2F800C050F82AA083EAB0
:102900000C072B0EC9F3074C50F8233050F82CC09D
:1029100005F0FF0B83EA3C23C4F3072CC5F307251E
:1029200050F82CC050F825504FEA3C4C8CEA3A6CD9
:1029300083EA0C03D2F804C0C4F3074A83EA0C0C00
:102940004FEA196350F82AA050F82330240E83EA86
:102950003A23C6F3072AC6F3074650F8244050F836
:10296000266050F82AA084EA362409F0FF0650F8C1
:102970002BB050F826604FEA3A4A4FEA35458AEACA
:102980003B6A85EA366583EA0A036C40D2F808A000
:10299000D56883EA0A036C4026E7374850FA84F387
:1029A00000EB166C1B789CF800C0C9F3072743EABC
:1029B0000C63C5F3074CC75D10F80CC04FEA0C4C14
:1029C0004CEA072C43EA0C03D2F800C083EA0C035C
:1029D0000B6050FA86F300EB156C1B789CF800C076
:1029E000C4F3072743EA0C63C9F3074CC75D10F82B
:1029F0000CC04FEA0C4C4CEA072C43EA0C03D2F80B
:102A000004C083EA0C034B6050FA85F300EB196CA9
:102A10001B789CF800C0C6F3072743EA0C6CC4F38C
:102A20000743C75DC35C1B0443EA07234CEA030367
:102A3000D2F808C083EA0C038B6050FA89F300EBEC
:102A4000146C1B789CF800C0C5F3072443EA0C63A0
:102A5000C6F3074CD26810F80CC0005D4FEA0C4C6E
:102A60004CEA002018435040C860BDE8F80F70479A
:102A70000030024030560108085401082DE9F041A9
:102A80000C4600F08BF84448012600F5C56210346E
:102A9000D4E900C300EB1C67CCF307483F7810F87B
:102AA000088052F8277052F8288087EA3827CCF33C
:102AB000072810F8088052F828804FEA384850FA62
:102AC0008CFC9CF800C0D4E9021552F82CC088EAAE
:102AD0003C6C87EA0C0CC4F800C000EB136CC3F329
:102AE00007479CF800C0C75D52F82CC052F8277009
:102AF0008CEA372CC3F30727C75D52F827704FEADB
:102B0000374750FA83F31B7852F8233087EA336350
:102B10008CEA0303636000EB1163C1F3074C1B787D
:102B200010F80CC052F8233052F82CC083EA3C2332
:102B3000C1F3072C10F80CC052F82CC04FEA3C4CE3
:102B400050FA81F1097852F821108CEA316159402C
:102B5000A16000EB1561C5F307430978C35C52F827
:102B6000211052F8233081EA3321C5F30723C35CD7
:102B700052F823304FEA334350FA85FC9CF800C0EA
:102B8000761C52F82CC083EA3C635940E1600C2E5D
:102B9000FFF67DAFBDE8F081085401082DE9F00F84
:102BA00002680A60D0E900C24A60D0E901328A6056
:102BB000D0E90225CD60D0E903560E61D0E9046763
:102BC0004F611B4F4069002407F5007907EB10683F
:102BD000C0F3074A98F8008017F80AA048EA0A6884
:102BE000C0F3072A17F80AA04FEA0A4A57FA80FBEF
:102BF0009BF800B04AEA0B2A48EA0A0888EA0C0C5B
:102C000059F82480641C8CEA080C83EA0C035A40AF
:102C1000554041F818CF082CCD60C1E90132A4BF5E
:102C2000BDE8F00F70476E407040C1E90460CDE729
:102C3000085401082DE9F80FC14B4FF0010C4FF07B
:102C40000708C3F808C0D3F808C0D3F800C0CDF80F
:102C500000C01CF1010C7CD04368D2F804C080682D
:102C6000946883EA0C039C4680EA04076446B548EE
:102C70004FEA1C65C7F3074650F8255050F8266008
:102C800004F0FF0985EA3625C3F3072650F829909A
:102C900050F826600CF0FF0A4FEA364686EA39669D
:102CA0006E401569C3F307496E403D0E50F82990F8
:102CB00050F8255050F82AA085EA3925C4F3072991
:102CC00007F0FF0B50F8299050F82BB04FEA394924
:102CD00089EA3A6985EA09095569C4F3074A89EA24
:102CE00005054FEA136950F82AA050F82990240EE0
:102CF00089EA3A29CCF3072ACCF3074C50F8244050
:102D000050F82CC0DBB284EA3C2CC7F3072450F8FF
:102D10002AA050F8244050F823304FEA3A4A4FEAAC
:102D200034448AEA3B6A84EA336389EA0A098CEA12
:102D30000303D2F818A0D2F81CC02032A8F1010871
:102D400089EA0A0983EA0C04B8F1000F7BDD330E2F
:102D500000E065E0C5F3074C50F8233050F82CC074
:102D6000E7B283EA3C23C9F3072C50F8277050F8E8
:102D70002CC006F0FF0A4FEA3C4C8CEA376C83EA21
:102D80000C03D2F800C0C9F3074783EA0C0C2B0EE2
:102D900050F8277050F8233050F82AA083EA3723E0
:102DA000C4F3072705F0FF0B50F82770C5F307257C
:102DB0004FEA374787EA3A677B405768C4F3074AC8
:102DC0005F404FEA196350F82AA050F82330240ED0
:102DD00083EA3A23C6F3072AC6F3074650F824408D
:102DE00050F8266050F82AA084EA362409F0FF063D
:102DF00050F8255050F82BB050F826604FEA3A4A68
:102E00004FEA35458AEA3B6A85EA366583EA0A0372
:102E10006C40D2F808A0D56883EA0A036C4027E723
:102E2000DDF800C0C3F800C01B68009363B14368BD
:102E3000D2F804C08068946883EA0C0C80EA040726
:102E40006346644613E70FE00368D2F800C0546895
:102E500083EA0C0C436883EA040783689468C068BB
:102E60006340D468444002E7374850FA84F300EBEB
:102E7000166C1B789CF800C0C9F3072743EA0C6363
:102E8000C5F3074CC75D10F80CC04FEA0C4C4CEA78
:102E9000072C43EA0C03D2F800C083EA0C030B6052
:102EA00050FA86F300EB156C1B789CF800C0C4F355
:102EB000072743EA0C63C9F3074CC75D10F80CC041
:102EC0004FEA0C4C4CEA072C43EA0C03D2F804C03E
:102ED00083EA0C034B6050FA85F300EB196C1B7806
:102EE0009CF800C0C6F3072743EA0C6CC4F3074301
:102EF000C75DC35C1B0443EA07234CEA0303D2F813
:102F000008C083EA0C038B6050FA89F300EB146C61
:102F10001B789CF800C0C5F3072443EA0C63C6F392
:102F2000074CD26810F80CC0005D4FEA0C4C4CEA1C
:102F3000002018435040C860BDE8F80F70470000FB
:102F40000030024030560108085401082DE9F041D4
:102F50000C4600F08BF84448012600F5C562103499
:102F6000D4E900C300EB1C67CCF307483F7810F8A6
:102F7000088052F8277052F8288087EA3827CCF367
:102F8000072810F8088052F828804FEA384850FA8D
:102F90008CFC9CF800C0D4E9021552F82CC088EAD9
:102FA0003C6C87EA0C0CC4F800C000EB136CC3F354
:102FB00007479CF800C0C75D52F82CC052F8277034
:102FC0008CEA372CC3F30727C75D52F827704FEA06
:102FD000374750FA83F31B7852F8233087EA33637C
:102FE0008CEA0303636000EB1163C1F3074C1B78A9
:102FF00010F80CC052F8233052F82CC083EA3C235E
:10300000C1F3072C10F80CC052F82CC04FEA3C4C0E
:1030100050FA81F1097852F821108CEA3161594057
:10302000A16000EB1561C5F307430978C35C52F852
:10303000211052F8233081EA3321C5F30723C35C02
:1030400052F823304FEA334350FA85FC9CF800C015
:10305000761C52F82CC083EA3C635940E1600E2E86
:10306000FFF67DAFBDE8F081085401082DE9F04F6F
:10307000D0E902C2D0E90054C1E902C2C1E900545A
:10308000D0E90487C1E90487D0E90663C1E9066392
:103090002B484FF0000900BF00EB136AC3F3074B46
:1030A0009AF800A010F80BB04AEA0B6AC3F3072B9A
:1030B00010F80BB04FEA0B4B50FA83FE9EF800E07D
:1030C00020314BEA0E2B4AEA0B0A8AEA050A1D4D0B
:1030D00055F8295009F101098AEA05056C408CEA86
:1030E000040C82EA0C02C1E902C2C1E90054B9F140
:1030F000070FA8BFBDE8F08F50FA82FA9AF800A037
:1031000000EB126BC2F3072E9BF800B010F80EE034
:103110004AEA0B6AC2F3074B10F80BB04FEA0B4BAD
:103120004BEA0E2B4AEA0B0A8AEA080887EA0807E4
:103130007E407340C1E90663C1E90487ACE7000043
:1031400008540108085601082DE9F04F8FB005001A
:103150004FF00000DDF860B00A901F4690468946A7
:10316000089009900B90009018BFB9F1000F38D06B
:10317000002F18BFBBF1000F33D0287910F0060FD5
:103180001EBF40F61E400FB0BDE8F08F18F00F0FC5
:103190001CBF40F0040028710121994881608168BA
:1031A00001680091491C04AE0DF1200A1ED00024D4
:1031B000B8F1100F73DB59F8041000200ABA401C54
:1031C00004920428FADB6A6A05F1140008A905F1E3
:1031D0002803182A7ED0202A1A467CD0FFF766F8EA
:1031E00083E00FB04FF44260BDE8F08F00990160BA
:1031F00000684FF000040090C0B1B8F1100F4EDB32
:1032000059F8041000200ABA401C04920428FADB82
:10321000686A05F1140308A905F1280218283FD0AF
:103220002028184640D0FFF741F83FE0B8F1100FD2
:1032300072DB002004EB800159F8011009BA46F84E
:103240002010401C0428F5DB6A6A05F1140008A967
:1032500005F12803182A05D0202A1A4606D0FFF7C0
:1032600025F805E01A46FFF77FFA01E0FFF7E2FCD8
:10327000286A401C286200205AF8201056F82020A6
:1032800051404AF8201004EB800209BA401CB950A2
:103290000428F1DB103404F110004045C9DD3BE0A7
:1032A0001846FFF761FA01E0FFF7C4FC286A401CEA
:1032B000286200205AF8201056F8202011434AF8BE
:1032C000201009BA401C39510428F3DB103404F1F2
:1032D000100001E003E006E0404591DD1CE01A46E5
:1032E000FFF742FA01E0FFF7A5FC286A401C2862BC
:1032F0005FF000005AF8201056F8202011434AF8D9
:10330000201009BA401C39510428F3DB103404F1B1
:10331000100040457FF74FAF44456ADA686A05F10F
:10332000140308A905F12802182805D020281846FA
:1033300006D0FEF7BBFF05E01846FFF715FA01E0DF
:10334000FFF778FCA8EB040C4FEAEC7100200CEBC3
:1033500091710EE004EB800359F8032012BA46F88D
:1033600020205AF820506A404AF8202012BAFA5019
:10337000401CB0EBA10FEDDB46420CEB8605002DA7
:1033800037DD04EB800202EB0901491E3A448CEA66
:10339000860C521E00231CF0010F4FF0180608D0B7
:1033A0005AF8203011F801CF8CEA136302F8013F7C
:1033B00001235FEA650C18BF10251AD05AF8207057
:1033C0005C4206EBC40927FA09F791F8019005EB76
:1033D000C40487EA090757705AF8207027FA04F4E2
:1033E00011F8027F9B1C7C4002F8024FBCF1010CDB
:1033F000E4D1CBF800800FB00020BDE8F08F0000D2
:1034000000300240002812BF002A4FF4426070478B
:10341000017941F00201017100201060704706231C
:10342000AFF30080002818BF002905D003F0060C78
:103430002AB9BCF1020F02D04FF4426070472DE967
:10344000F043446A89B0102C1CBF182C202C06D1E4
:10345000BCF1020F08D00469641E102C04D309B01B
:1034600040F61F40BDE8F083C2600479BCF1020F52
:1034700024F00604047149D0002444618461C461CD
:1034800004620569002DD8BF4FF0000C06DD15F071
:10349000010C03D0167844EA066444616545C8BF50
:1034A000182433DD4FEAEC750CEB957525F0030617
:1034B0003718ACEB060607F1140512F80C807642BB
:1034C0007F6904EBC60608FA06F63E432E600CF14F
:1034D0000107FE1707EB967525F0030606EB0008BB
:1034E00002EB0C09BE1B08F1140599F80190764215
:1034F000D8F8148004EBC60609FA06F648EA060670
:103500002E6005690CF1020C6545CBDC027912F0E6
:10351000010F55D1816013F0010F0DD006229A439F
:103520000AD0426A0B4600F128014FEAE27C0020F3
:103530006C4602EB9C7C2FE000F1280C426A0020D4
:10354000D3176C4602EB937306E000BF51F820508E
:103550002DBA44F82050401CB0EBA30FF6DB102A24
:1035600004D0182A07D0202A2AD109E06146204633
:10357000FFF7C0F824E061462046FFF70FFB1FE08D
:1035800061462046FFF772FD1AE000BF53F8205055
:103590002DBA44F82050401CB0EBAC0FF6DB102ADB
:1035A00007D0182A09D0202A04BF2046FFF7CEFCF6
:1035B00006E02046FFF704F802E02046FFF75EFA37
:1035C00009B00020BDE8F08300BFFEE70146CAB2A3
:1035D0000B1243EA0220704710B5032000F07EFF73
:1035E000012010BD08B50020009022E19748008816
:1035F00000F00F00964908700846007800287CD13A
:1036000094480068944908800846008800F030001B
:10361000924908809048008800F440508E49088004
:103620008C4909684BF6BF7201EA020080F4005031
:1036300080F0200040F4004141F08001854A116093
:103640008248008800F0100090BB1046006848F6E1
:103650000F7108401146086000F078FC7D49096848
:103660004BF6BF7201EA02007B49098801F48051E0
:1036700009B180F480507849098801F4005109B1FA
:1036800080F400507549098801F0100109B180F0FB
:1036900010007249098801F0200109B180F0200072
:1036A00081B241F4004141F080016A4A116008BDD5
:1036B000FFE76848006880B20090BDF8000000F4A1
:1036C0000060B0B363480068C0F30E0048F68F7125
:1036D00008406049086000F0D3FF5E4909684BF676
:1036E000BF7201EA02005C49098801F4805109B106
:1036F00080F480505849098800E056E001F40051F8
:1037000009B180F400505549098801F0100109B150
:1037100080F010005149098801F0200109B180F0C2
:10372000200081B241F4004141F08001494A11601A
:10373000BDE7FFE7BDF8000000F40040002878D0A6
:1037400044480068C0F30E0048F68F7108404149B4
:10375000086000F0F7FC3F4909684BF6BF7201EAC8
:1037600002003D49098801F4805109B180F480507C
:103770003949098801F4005109B180F400503749F2
:10378000098801F0100109B180F01000334909885F
:1037900001F0200109B180F0200081B241F4004124
:1037A00041F080012B4A116081E7294800782C49BB
:1037B00001EB8000D0F8000C80B20090BDF8000052
:1037C00000F40040C0B12248007801EB8000D0F83E
:1037D000000CC0F30E0048F68F7108401C490978B0
:1037E0001F4A02EB8101C1F8000C19490978491EF2
:1037F0001C4A52F821008047BDF8000000F080000C
:10380000B8B113480078164901EB8000D0F8000CDD
:1038100048F60F7108400E490978114A02EB810100
:10382000C1F8000C0A490978491E0F4A52F82100D4
:10383000804708484430006880B20449088000F49A
:10384000004000287FF4D2AE00BF30E7E400002043
:103850000C000020005C00403E00002040000020E2
:10386000005000400C010020F00000200B4A02EB49
:103870008001D1F8001C01F4804171B102EB80019C
:10388000D1F8001C48F68F7211404CF280021143AF
:10389000024B03EB8002C2F8001C7047005000404E
:1038A0000B4A02EB8001D1F8001C01F0400171B11C
:1038B00002EB8001D1F8001C48F68F72114048F2EB
:1038C000C0021143024B03EB8002C2F8001C704798
:1038D00000500040084A02EB8001D1F8001C48F675
:1038E0008F62114048F280021143034B03EB8002C8
:1038F000C2F8001C70470000005000400121402029
:1039000000F0A4BC2DE9F0472748006800F110053D
:103910002E8825480068077ACEB9042F17D123488E
:10392000007801280ED100212148006880B2801C57
:10393000204A815230202049088000BF00201B49C6
:10394000087003E0072710201B49088027E0AC8897
:10395000A64201D8042000E002200746B44200D964
:103960003446A0B2A96888478046002000F0C4FA17
:103970008146A2B24946404601F0DCFAA1B20020DD
:1039800000F0D6FD2888001B2880688820446880C5
:1039900030200949088000020849088000BF024918
:1039A00009680F72BDE8F0871000002008000020B1
:1039B000505C004000600040400000203E000020BD
:1039C0002DE9F0412F48006800F110042688A06816
:1039D000C0B1BEB1A588B54200D93546A8B2A1682C
:1039E000884707462088401B2080608828446080E4
:1039F000002000F063FA8046AAB24146384600F043
:103A0000C9FB00BF208850B14FF440501E490880C8
:103A10000021084600F08CFD30201C4908802088D9
:103A2000A188884204DB032016490968087227E050
:103A30002088002804DD05201249096808721FE06B
:103A40002088E8B906200F490968087210490968FA
:103A5000886880470B480068007A082806D1400231
:103A60000949088010200949088009E00021094817
:103A7000006880B2801C084A8152302003490880C7
:103A8000BDE8F081100000203E0000204000002032
:103A900014000020505C0040006000402DE9F84F09
:103AA0009B48006845780027BA46062D1BD19848E8
:103AB0000068007800F07F00002813D1944909685D
:103AC0008878012803D193490968CF690AE0022860
:103AD00003D1904909680F6A04E0032802D18D4997
:103AE00009684F6A94E0002D64D1894800684088D5
:103AF00000285FD186480068C08802285AD18448CF
:103B000000680079002855D181480068007800F0ED
:103B10007F0028B97E480068808808B97E4F77E02A
:103B20007B480068007800F07F00012810D17849B8
:103B300009684879774909688A690021904700280F
:103B400066D173480068807A002861D0724F5FE0C8
:103B50006F480068007800F07F00022858D16C4858
:103B60000068407900F00F0669480068407900F06D
:103B7000700967480068407900F0800038B16749F3
:103B800001EB8600D0F8000C00F0300806E0634935
:103B900001EB8600D0F8000C00F440586048007833
:103BA000B04235D9B9F1000F32D1B8F1000F2FD0A2
:103BB000594F2DE0082D07D155480068007800F0D6
:103BC0007F0028BB574F23E00A2D21D150480068C1
:103BD000007800F07F0001281AD14D480068807AF3
:103BE000B0B14B480068408890B9494800680079F6
:103BF00070B947480068C088012809D1444909685C
:103C00004879444909688A690021904700B9464FBC
:103C100057B13F480068A0F812A03D48006887618E
:103C20000020B84700240FE0394A12685078394A1A
:103C30001268116988470446032C05D109203449CC
:103C400009680872BDE8F88F31480068008A4FF6AD
:103C5000FF71884204D109202D4909680872F1E7F3
:103C6000022C03D02A480068008A20B9082028497D
:103C700009680872E6E726480068007800F08000CE
:103C8000E0B323480068C088009021480068008A9B
:103C90000099884204D91E4900980968088223E0E7
:103CA0001B480068008A1A490968C98888421BDADB
:103CB00017480068008A1749096891F82C10884253
:103CC00003DA0020194908700EE011480068008AE4
:103CD0001049096891F82C1090FBF1F201FB1200D9
:103CE00010B90120114908700A48006890F82C109A
:103CF000074800688182FFF705FE07E0FFE7032021
:103D000003490968087200030949088000BF99E760
:103D10001000002014000020194901080050004044
:103D20005C0000209D480108ED48010808000020C3
:103D30003E000020704700000120014908607047E4
:103D40002801002010B5032000F0C6F806490860DD
:103D50000846006838B10846008882B24FF488717E
:103D6000024800F017FA10BD20000020900100204A
:103D700000F01F02012191404209034B03EB421264
:103D8000C2F8141470470000000001400149C860E7
:103D9000704700000020024030B5044604254FF46F
:103DA000302000F077F80546042D16D10C48006944
:103DB00040F002000A49086108464461006940F089
:103DC000400008614FF4302000F064F805460448D4
:103DD000006920F0020002490861284630BD000059
:103DE0000020024004200B49C96801F0010109B11B
:103DF00001200EE00749C96801F0100109B1022055
:103E000007E00449C96801F0040109B1032000E09A
:103E100004207047002002400348006940F0800001
:103E200001490861704700000020024070B5044657
:103E30000D4604264FF4302000F02CF80646042EE0
:103E400011D10A48006940F0010008490861258045
:103E50004FF4302000F01EF806460448006920F0B8
:103E6000010002490861304670BD00000020024098
:103E70000548006900F0800020B10448024948600C
:103E80000348486070470000002002402301674556
:103E9000AB89EFCD00B502460423FFF7A3FF03462D
:103EA00003E0FFF79FFF0346521E012B01D1002ABA
:103EB000F7D102B90523184600BD000001460448A9
:103EC000006880B200EBC100001D024A805A7047B2
:103ED000505C00400060004001460548006880B228
:103EE00000EBC100801D034A805AC0F309007047EF
:103EF000505C00400060004001460448006880B209
:103F000000EBC100024A805A70470000505C00403C
:103F10000060004070B50A480468001D0568001D77
:103F20000668344454B108220649204600F046F899
:103F3000042204491031284600F040F870BD00000A
:103F4000ACF7FF1F2600002000BFFEE710B51848A1
:103F50000068047A022C01D0042C05D1FFF7D2FCB2
:103F600013480068047A1CE0062C19D11048006838
:103F7000407805280ED10E480068007800F07F00D8
:103F800040B90B490968C87800F028FA094909685E
:103F9000086A80470849096888688047082400E063
:103FA0000824034909680C7200F008F910BD0000EC
:103FB000100000201C0000201400002030B50B462B
:103FC000002100BF16E00A24B4EB107F05D930248D
:103FD00004EB107403F8114005E0412404EB107465
:103FE0000A3C03F81140000100254C00641C1D55DB
:103FF0004C1CE1B29142E6DB30BD00BFFEE77047EA
:104000007047000070B50226484800684478474869
:104010000068007800F07F00002847D1092C03D108
:1040200000F0FAFC064662E0052C14D13F48006817
:10403000C0787F280BDC3D480068807838B93B4861
:104040000068808818B939480068807A08B1082566
:1040500067E000264BE0032C0ED134480068C0789E
:10406000012807D131480068808818B900F0F8FCB1
:1040700006463CE002263AE0012C38D12B48006885
:10408000C078012810D129480068808860B9274885
:104090000068407A00F0200030B100202449086018
:1040A00000F046FB064622E0022620E01F4800689A
:1040B000007800F07F00012805D10B2C17D100F00B
:1040C0004BFD064613E019480068007800F07F00B9
:1040D00002280BD1012C03D100F02AFB064606E092
:1040E000032C04D100F0D0FC064600E002264EB1BD
:1040F000E0B2104A1268516988470646032E01D182
:1041000009250EE00EB108250BE0062500210A481E
:10411000006880B2801C094A81523020084908801A
:1041200000BF024909680D7270BD00001000002038
:104130000400002014000020505C0040006000409B
:104140004000002010B511480068047A022C01D00C
:10415000042C01D1082412E0032C01D0052C05D138
:10416000FFF72EFC09480068047A08E0072C05D107
:1041700007490968C8688047082400E00824034903
:1041800009680C7200F01AF810BD00001000002041
:104190001400002070B5561C7510064E8C192B4665
:1041A00005E034F8026B20F8016B401C5B1E002B0D
:1041B000F7D170BD006000407047000010B50D4899
:1041C00090F82C10002000F041F90B480068007AAC
:1041D000082805D1400209490880102008490880B4
:1041E00005480068007A092801D1012010BD00208F
:1041F000FCE7000060000020100000203E000020CE
:104200004000002010B501240E48046000200E4933
:104210000880084600880B49086000BF0948001D57
:10422000006800F480600128F8D0002000F0C0F998
:104230004FF4E050044908800846008801490860AE
:10424000002010BD405C00401A00002029B1064A41
:1042500052690243044B5A6104E0034A52698243A3
:10426000014B5A61704700000010024010B504462F
:10427000072C01D02E4804702D48007808284ED213
:10428000DFE800F004111A202B384E4F294800684F
:1042900028B900F053F806202549087002E00520EF
:1042A0002349087041E000F049F8042020490870D3
:1042B00001202049086038E002201D494870032091
:1042C000087032E01A484078401E19494870084684
:1042D000407808B90420087027E01748006883B2C6
:1042E00043F01003144803600520114908700A20A8
:1042F00048701AE00E484078401E0D494870084644
:10430000407858B90C48006883B223F010030A487B
:1043100003600620087000200649086005E000BF21
:1043200000BF06200249087000BF00BF10BD00009A
:10433000490000204C000020405C0040054909680D
:1043400088B220F00400034908604FF43F41014A5D
:1043500011607047405C00402DE9F04FC9B006463F
:104360000F4690469946DDF848B1DDF84CA1549CC3
:104370000025002002908DF8100010200C90CDF840
:104380001CB04A46414603A8FFF749F80546BDB9A7
:1043900002A853463A463146009003A8FEF7D4FEE1
:1043A00005466DB902982060206800EB0A0102AA58
:1043B00003A8FFF727F80546206802990844206003
:1043C000284649B0BDE8F08F704700004FF6F871FD
:1043D0000140014A11607047505C004030B5014611
:1043E0000F4B1A78002014E003060E4C04EB935395
:1043F000D3F8003C48F68F74234048F280042343EE
:10440000C4B223430406074D05EB9454C4F8003CA2
:10441000401C9042E8D341F08003034C236030BD40
:104420005C000020005000404C5C004010B54A1079
:104430005300044A126892B202EBC002121D024CF1
:10444000135310BD505C00400060004010B50246A0
:104450001048006880B200EBC200801D0E4C0319AA
:104460003E290BDD481101F01F040CB9441EA0B217
:104470004FF4004444EA80241C800AE0481001F014
:1044800001040CB1441CA0B24FF6FF7404EA80246E
:104490001C8010BD505C00400060004030B50E4CE8
:1044A00004EB8003D3F8003C4BF68F7403EA04025C
:1044B00001F480530BB182F4805201F400530BB12C
:1044C00082F4005242F4004343F08003024D05EBB6
:1044D0008004C4F8003C30BD0050004010B50B4BC8
:1044E00003EB8002D2F8002C4BF68F7302EA030133
:1044F00081F4805181F4005141F4004242F0800285
:10450000024C04EB8003C3F8002C10BD00500040A7
:1045100010B54A105200044B1B689BB203EBC0035A
:10452000024C1A5310BD0000505C00400060004077
:10453000044A126892B202EBC002921C024BD152A2
:1045400070470000505C00400060004030B50E4CE9
:1045500004EB8003D3F8003C48F6BF7403EA04027E
:1045600001F010030BB182F0100201F020030BB137
:1045700082F0200242F4004343F08003024D05EB39
:104580008004C4F8003C30BD0050004010B5074B1B
:1045900003EB8002D2F8002C48F68F131A400A432E
:1045A000024C04EB8003C3F8002C10BD0050004007
:1045B0000149086070470000445C00400CB50020D1
:1045C000019000902C48006840F480302A4908602F
:1045D00000BF2948006800F4003000900198401C9A
:1045E0000190009818B90198B0F5A04FF1D1224878
:1045F000006800F4003010B10120009001E00020BC
:1046000000900098012836D112201C4908601A48F1
:104610004068194948600846406848600846406854
:1046200040F4806048600846406820F47C10486090
:104630000846406840F4E81048600846006840F0CA
:104640008070086000BF0C48006800F0007000280F
:10465000F9D00948406820F003000749486008463F
:10466000406840F00200486000BF0348406800F026
:104670000C000828F9D10CBD0010024000200240B7
:1046800038B500242748006880B2001D2649405AEA
:104690000844009025480068007A092832D0009824
:1046A00000782249096808700098401C0090009822
:1046B00000781E49096848700098401C00900098D6
:1046C00000EB44000090009931F8020B0091FEF7D6
:1046D0007DFF164909684880009800EB440000906F
:1046E000009931F8020B0091FEF770FF0F4909683D
:1046F0008880009800EB44000090009800880B49E7
:104700000968C880012009490968087207480068DB
:10471000C08810B9FFF776FC01E0FFF7BFF9FFF79B
:104720004DFD38BD505C004000600040100000208E
:104730002DE9F04754480068007800F07F08B8F190
:10474000000F0AD150480068407A00F0DF004E495F
:10475000096848720020BDE8F087B8F1020F7CD1EB
:1047600049480068408818B947480068007908B18E
:104770000220F0E7DFF8149143480068477927F0FA
:1047800080052C4640480068407900F0800038B130
:104790003F4901EB8400D0F8000C00F0300606E041
:1047A0003B4901EB8400D0F8000C00F4405699F826
:1047B0000000A84204D91EB133480068807A08B9C5
:1047C0000220C8E707F0800080B1314901EB840086
:1047D000D0F8000C00F0300010284BD1E0B2FFF709
:1047E0005FF8E0B23021FFF7B1FE43E0284901EB6A
:1047F0008400D0F8000C00F44050B0F5805F39D14F
:10480000E4B9244A92F82C10E0B2FFF71FFE204AC8
:1048100002EB8401D1F8001C4BF68F7201EA020012
:1048200080F4805080F4005040F4004141F0800159
:10483000174B03EB8402C2F8001C1BE0E0B2FFF749
:1048400015F8134A02EB8401D1F8001C4BF68F7265
:1048500001EA020080F4805000E011E080F4005092
:1048600040F4004141F08001094B03EB8402C2F89F
:10487000001C00BF084909684869804700206AE7B2
:1048800000BF022067E70000100000205C0000204D
:1048900000500040600000201C00002010B50446BD
:1048A0002CB90120064909680882002010BD05497D
:1048B000096808688047024800680A30F6E7000087
:1048C000100000201C00002010B5024606480068B9
:1048D000438A32B98888C01A034C24682082002099
:1048E00010BD08681844FBE71000002010B504460E
:1048F0002CB90120064909680882002010BD05492D
:10490000096888688047024800680C30F6E70000B4
:10491000100000201C00002010B504462CB9022015
:10492000394909680882002010BD002037490880F5
:1049300035480068007800F07F0018BB32490968EC
:10494000487A00F0200131B13049097841F0020184
:104950002E4A117005E02D49097801F0FD012B4A1E
:10496000117000F0400131B12849097841F001018E
:10497000264A117005E02549097801F0FE01234A15
:1049800011703AE020480068007800F07F000128AC
:1049900001D11E48C8E71C480068007800F07F007D
:1049A000022828D1184A1268517901F00F0001F04D
:1049B00080027AB1164B03EB8002D2F8002C02F091
:1049C0003002102A16D1114A127842F001020F4B20
:1049D0001A700FE00E4B03EB8002D2F8002C02F4A9
:1049E0004052B2F5805F05D1084A127842F00102C8
:1049F000064B1A7001E0002096E70649096808692D
:104A00008047024890E700001000002000000020CE
:104A1000005000401C00002010B50E480068C0780F
:104A20000D494978884213DC0A480068807878B9D3
:104A300008480068808858B906480068C078054969
:104A4000096888720549096848688047002010BDD8
:104A50000220FCE7100000205C0000201C00002069
:104A600010B507480068407A40F020000449096802
:104A7000487204490968C8698047002010BD0000D9
:104A8000100000201C0000202DE9F0412E48006895
:104A9000467926F080073C462B480068407900F0B4
:104AA000800038B1294901EB8400D0F8000C00F0F7
:104AB000300506E0254901EB8400D0F8000C00F435
:104AC000405523480078A04208D91F480068408814
:104AD00020B91DB11C480068807A10B90220BDE8D9
:104AE000F08106F08000A0B1184A02EB8401D1F8F1
:104AF000001C48F6BF7201EA020080F0100040F48A
:104B0000004141F08001114B03EB8402C2F8001C0C
:104B100014E00E4A02EB8401D1F8001C4BF68F72B0
:104B200001EA020080F4805040F4004141F080012D
:104B3000064B03EB8402C2F8001C00BF054909685C
:104B4000886980470020CAE710000020005000401C
:104B50005C0000201C00002010B5174B1B68D978A2
:104B6000154B1B685879154B1B689A69904704468A
:104B700011480068807AE8B13CB90F4800680079B4
:104B800018B90D480068807808B1022010BD8CB9B2
:104B90000B490968C868804707480068407906499A
:104BA0000968C87204480068C07803490968087336
:104BB0000020EBE70220E9E71000002014000020AD
:104BC0001C00002010B50021204A126890B200BFDE
:104BD00009E01F4B03EB8102D2F8002C92B21D4B6F
:104BE00043F82120491C0829F3D340F48060174A78
:104BF000106040F00100106020F00100106000BF64
:104C0000124A121D126802F48062002AF8D04FF690
:104C1000FF320E4B1B1D1A60002109E00D4A52F8AD
:104C2000212092B20A4C04EB8103C3F8002C491CEA
:104C30000829F3D340F00800044A1060126890B2CB
:104C400040F00400014A106010BD0000405C0040CC
:104C500000500040700100207047000010B51B4854
:104C6000006840F47000194908601948006840F075
:104C70000100174908600846406816490840144971
:104C80004860084600681449084011490860084611
:104C9000006820F4802008600846406820F4FE0088
:104CA00048600846C06A20F00F00C8620846006BE2
:104CB0000A4908400649086300208860FFF77EFC27
:104CC0004FF0006001498039086010BD88ED00E0B8
:104CD000001002400CC07FF8FFFFF6FECCFC00FF86
:104CE00070B5002400250121044800F00DF818B12A
:104CF0000121024800F004F870BD000000040040EB
:104D0000CA4392B20261704730B5024600200023C8
:104D10000024156905EA0103D56805EA010413B109
:104D20000CB1012000E0002030BD10B51220FFF7CB
:104D30001FF810BD10B588B00024684800686849A5
:104D400008800846008800F4007066490988084019
:104D500040B14FF6FF506149086063480078401C3D
:104D6000614908705E48008800F400405D49098888
:104D7000084008B1FEF736FC5948008800F480600E
:104D800058490988084030B14FF6FF305349086050
:104D90005649486880475248008800F400505149FD
:104DA0000988084018B14DF6FF704C4908604C481E
:104DB000008800F480504B490988084030B14EF615
:104DC000FF70464908600020FFF750FA4448008809
:104DD00000F4006043490988084060B14448007805
:104DE00010B1FFF7EFFE02E00220FFF73FFA4FF2AB
:104DF000FF703A4908603A48008800F480703949E9
:104E000009880840002866D04FF6FF6033490860E3
:104E1000081D006800F40040002856D0354800689E
:104E2000401C3449086008460068032850D92B48C4
:104E3000001F006800F00800002849D12748001F23
:104E4000006880B22C490860002408E02B4901EB7F
:104E50008400D0F8000C80B24DF82400641C082CAB
:104E6000F4D32548006840F0010023490860084653
:104E7000006880B21949091F08601F48006820F0C7
:104E800001001D4908600846006880B21349091FE7
:104E9000086000BF1148006800F480600028F9D065
:104EA0004FF6FF300D490860002408E05DF824004B
:104EB00080B2124A02EB8401C1F8000C641C082C79
:104EC000F4D300200B49086002E000200949086083
:104ED0000720FFF7CBF908B010BD0000445C00408C
:104EE000E40000201A000020E600002060000020FE
:104EF00048000020E8000020EC00002000500040A6
:104F000010B5FFF717FFFEF767FB10BD002006493D
:104F100008604FF43F400549088008460088024970
:104F2000091F086000207047445C00401A00002000
:104F300000BFFEE770B5561C7510064E8C192B4647
:104F400005E030F8016B24F8026B401C5B1E002B5F
:104F5000F7D170BD0060004070B504460025212CDB
:104F600008D112480068007800F07F0021280ED197
:104F70000F4D0CE0202C0AD10C480068007800F09E
:104F80007F00212800D10B4D20200B4908700DB95E
:104F9000022070BD05480068856100210348006853
:104FA00041820020A8470020F3E700001000002005
:104FB000E54F0108755101085000002010B5044666
:104FC00002492046FFF780FC10BD0000BC00002015
:104FD00010B5044602492046FFF776FC10BD0000DC
:104FE000B4000020014629B90820034A1268108243
:104FF000002070470148FCE710000020540000200A
:1050000070B5054606480068C478042C01DB002012
:1050100070BD044800EBC4012846FFF755FCF7E7D4
:1050200010000020C40000200246002901DD0220FB
:105030007047012A01DD0220FAE70020F8E70000AE
:10504000014608480068007800F07F00212807D159
:10505000022901D100207047222901D10020FAE75E
:105060000220F8E71000002010B50020344909683C
:1050700088723448C0793249096848720020304942
:105080000968C872FFF7A2F94FF400710020FFF71A
:105090007DFA10210020FFF759FA40210020FFF788
:1050A000C5F980210020FFF733FA0020FEF712FC3B
:1050B000254890F82C100020FFF7C8F90020FFF7D2
:1050C0000DFA00210120FFF761FAC0210120FFF74E
:1050D0001FFA20210120FFF739FA00210120FFF7F4
:1050E000DDF94FF4C0610220FFF750FA4FF48071F0
:1050F0000220FFF70DFA00210220FFF7CFF920214F
:105100000220FFF723FA00210320FFF73FFA4FF4B4
:1051100088710320FFF78AF940210320FFF796F9F1
:105120004FF440510320FFF7B9F900210320FFF7A6
:105130000DFA0020FFF752F901200449086010BD64
:10514000100000204E5301086000002044000020A1
:105150000348817A11B10521024A116070470000AD
:1051600054010020440000200420014908607047D9
:1051700044000020014629B90820034A1268108221
:10518000002070470148FCE7100000205400002078
:1051900003480078202802D1002001490870704798
:1051A000500000207047000010B5FEF7B3FE00204D
:1051B000054909688872FFF725F8FFF7A7FE002068
:1051C0000249086010BD00001000002044000020CB
:1051D00002E008C8121F08C1002AFAD170477047C0
:1051E000002001E001C1121F002AFBD170472DE908
:1051F000F04705460E4617460024B146FEF738FE36
:105200004FF001082520FEF7C1FD2846FEF7C4FD3A
:105210008046B8F1040F0DD14FF0010800BF07E040
:1052200039F8141005EB4400FEF700FE8046641CBC
:10523000BC42F5DB4FF001082520FEF7A7FDFEF785
:10524000EBFDBDE8F087000092B000200F901090B9
:1052500011901822314909A8FCF7C6FF0024142137
:1052600004A8FCF7DAFF00BFFEF748FB00BF2AE006
:105270000C990998484000680B994840E100C840E3
:10528000274908550D990A98484000680E994840EA
:10529000E100C840C1B2224A201D11540E990B985A
:1052A000484000680A994840E100C840C1B204F192
:1052B00008001154E1001B48C840C1B204F10C00C1
:1052C0001154601CC4B2042CD2DB174817491022B9
:1052D000174BCDE900210290114A10211548FFF724
:1052E0003BF800240EE0114810F81400012101EBF6
:1052F00044010E4A515C40EA012004A921F814003F
:10530000601CC4B2082CEEDB0120ADF8200009229D
:1053100004A90948FFF76BFF00BFFEE7F05301083F
:10532000D00100209FC6C2D550010020E00100201E
:10533000400100203001002000000108120100029D
:1053400002020240830440570002010203010902E5
:105350004300020100C03209040000010202010002
:105360000524001001052401000104240202052483
:10537000060001070582030800FF09040100020A74
:1053800000000007050302400000070581024000FD
:1053900000040309042603530054004D0069006310
:1053A0000072006F0065006C00650063007400729D
:1053B000006F006E006900630073003203530054F5
:1053C000004D003300320020005600690072007466
:1053D00000750061006C00200043004F004D00206C
:1053E0000050006F007200740020002000000000D8
:1053F000F4055E9CF36AC702D99CD24058F2A1839F
:10540000439D381D6D6B2D5F637C777BF26B6FC5A1
:105410003001672BFED7AB76CA82C97DFA5947F0B7
:10542000ADD4A2AF9CA472C0B7FD9326363FF7CC93
:1054300034A5E5F171D8311504C723C31896059A30
:10544000071280E2EB27B27509832C1A1B6E5AA053
:10545000523BD6B329E32F8453D100ED20FCB15B3E
:105460006ACBBE394A4C58CFD0EFAAFB434D3385A7
:1054700045F9027F503C9FA851A3408F929D38F57B
:10548000BCB6DA2110FFF3D2CD0C13EC5F974417B2
:10549000C4A77E3D645D197360814FDC222A908829
:1054A00046EEB814DE5E0BDBE0323A0A4906245CB5
:1054B000C2D3AC629195E479E7C8376D8DD54EA91A
:1054C0006C56F4EA657AAE08BA78252E1CA6B4C6E6
:1054D000E8DD741F4BBD8B8A703EB5664803F60E3F
:1054E000613557B986C11D9EE1F8981169D98E942E
:1054F0009B1E87E9CE5528DF8CA1890DBFE6426847
:1055000041992D0FB054BB1652096AD53036A538D3
:10551000BF40A39E81F3D7FB7CE339829B2FFF879B
:10552000348E4344C4DEE9CB547B9432A6C2233D7F
:10553000EE4C950B42FAC34E082EA16628D924B230
:10554000765BA2496D8BD12572F8F6648668981651
:10555000D4A45CCC5D65B6926C704850FDEDB9DAB0
:105560005E154657A78D9D8490D8AB008CBCD30A9E
:10557000F7E45805B8B34506D02C1E8FCA3F0F027A
:10558000C1AFBD0301138A6B3A9111414F67DCEA49
:1055900097F2CFCEF0B4E67396AC7422E7AD3585C2
:1055A000E2F937E81C75DF6E47F11A711D29C589CC
:1055B0006FB7620EAA18BE1BFC563E4BC6D27920AE
:1055C0009ADBC0FE78CD5AF41FDDA8338807C731B7
:1055D000B11210592780EC5F60517FA919B54A0DAF
:1055E0002DE57A9F93C99CEFA0E03B4DAE2AF5B024
:1055F000C8EBBB3C83539961172B047EBA77D62640
:10560000E169146355210C7D0000000100000002D7
:10561000000000040000000800000010000000204E
:1056200000000040000000800000001B0000003669
:10563000A56363C6847C7CF8997777EE8D7B7BF6D7
:105640000DF2F2FFBD6B6BD6B16F6FDE54C5C59125
:105650005030306003010102A96767CE7D2B2B56C5
:1056600019FEFEE762D7D7B5E6ABAB4D9A7676EC7E
:1056700045CACA8F9D82821F40C9C989877D7DFA2C
:1056800015FAFAEFEB5959B2C947478E0BF0F0FB08
:10569000ECADAD4167D4D4B3FDA2A25FEAAFAF4594
:1056A000BF9C9C23F7A4A453967272E45BC0C09B7A
:1056B000C2B7B7751CFDFDE1AE93933D6A26264C3B
:1056C0005A36366C413F3F7E02F7F7F54FCCCC831C
:1056D0005C343468F4A5A55134E5E5D108F1F1F95D
:1056E000937171E273D8D8AB533131623F15152AEB
:1056F0000C04040852C7C795652323465EC3C39DA7
:1057000028181830A19696370F05050AB59A9A2FD2
:105710000907070E361212249B80801B3DE2E2DF50
:1057200026EBEBCD6927274ECDB2B27F9F7575EA88
:105730001B0909129E83831D742C2C582E1A1A34AF
:105740002D1B1B36B26E6EDCEE5A5AB4FBA0A05B6A
:10575000F65252A44D3B3B7661D6D6B7CEB3B37D5D
:105760007B2929523EE3E3DD712F2F5E978484135A
:10577000F55353A668D1D1B9000000002CEDEDC15E
:10578000602020401FFCFCE3C8B1B179ED5B5BB643
:10579000BE6A6AD446CBCB8DD9BEBE674B3939724F
:1057A000DE4A4A94D44C4C98E85858B04ACFCF853A
:1057B0006BD0D0BB2AEFEFC5E5AAAA4F16FBFBEDD5
:1057C000C5434386D74D4D9A55333366948585112D
:1057D000CF45458A10F9F9E906020204817F7FFE70
:1057E000F05050A0443C3C78BA9F9F25E3A8A84BBA
:1057F000F35151A2FEA3A35DC04040808A8F8F0564
:10580000AD92923FBC9D9D214838387004F5F5F16A
:10581000DFBCBC63C1B6B67775DADAAF632121426B
:10582000301010201AFFFFE50EF3F3FD6DD2D2BF4A
:105830004CCDCD81140C0C18351313262FECECC372
:10584000E15F5FBEA2979735CC4444883917172E85
:1058500057C4C493F2A7A755827E7EFC473D3D7A8C
:10586000AC6464C8E75D5DBA2B191932957373E6B1
:10587000A06060C098818119D14F4F9E7FDCDCA36E
:10588000662222447E2A2A54AB90903B8388880B60
:10589000CA46468C29EEEEC7D3B8B86B3C14142820
:1058A00079DEDEA7E25E5EBC1D0B0B1676DBDBADA0
:1058B0003BE0E0DB563232644E3A3A741E0A0A1478
:1058C000DB4949920A06060C6C242448E45C5CB867
:1058D0005DC2C29F6ED3D3BDEFACAC43A66262C4BF
:1058E000A8919139A495953137E4E4D38B7979F275
:1058F00032E7E7D543C8C88B5937376EB76D6DDAD5
:105900008C8D8D0164D5D5B1D24E4E9CE0A9A949AC
:10591000B46C6CD8FA5656AC07F4F4F325EAEACF27
:10592000AF6565CA8E7A7AF4E9AEAE4718080810FA
:10593000D5BABA6F887878F06F25254A722E2E5C1A
:10594000241C1C38F1A6A657C7B4B47351C6C69719
:1059500023E8E8CB7CDDDDA19C7474E8211F1F3EA9
:10596000DD4B4B96DCBDBD61868B8B0D858A8A0F26
:10597000907070E0423E3E7CC4B5B571AA6666CCBC
:10598000D84848900503030601F6F6F7120E0E1CE0
:10599000A36161C25F35356AF95757AED0B9B969AD
:1059A0009186861758C1C199271D1D3AB99E9E2719
:1059B00038E1E1D913F8F8EBB398982B33111122A1
:1059C000BB6969D270D9D9A9898E8E07A7949433FF
:1059D000B69B9B2D221E1E3C9287871520E9E9C9A4
:1059E00049CECE87FF5555AA782828507ADFDFA503
:1059F0008F8C8C03F8A1A15980898909170D0D1A84
:105A0000DABFBF6531E6E6D7C6424284B86868D0DF
:105A1000C3414182B0999929772D2D5A110F0F1E3C
:105A2000CBB0B07BFC5454A8D6BBBB6D3A16162C39
:105A300050A7F4515365417EC3A4171A965E273AC6
:105A4000CB6BAB3BF1459D1FAB58FAAC9303E34BDB
:105A500055FA3020F66D76AD9176CC88254C02F55E
:105A6000FCD7E54FD7CB2AC5804435268FA362B536
:105A7000495AB1DE671BBA25980EEA45E1C0FE5DC2
:105A800002752FC312F04C81A397468DC6F9D36BD4
:105A9000E75F8F03959C9215EB7A6DBFDA595295AB
:105AA0002D83BED4D32174582969E04944C8C98ED6
:105AB0006A89C27578798EF46B3E5899DD71B92781
:105AC000B64FE1BE17AD88F066AC20C9B43ACE7DC2
:105AD000184ADF6382311AE560335197457F53627C
:105AE000E07764B184AE6BBB1CA081FE942B08F9F7
:105AF0005868487019FD458F876CDE94B7F87B5263
:105B000023D373ABE2024B72578F1FE32AAB556668
:105B10000728EBB203C2B52F9A7BC586A50837D3F9
:105B2000F2872830B2A5BF23BA6A03025C8216ED61
:105B30002B1CCF8A92B479A7F0F207F3A1E2694E49
:105B4000CDF4DA65D5BE05061F6234D18AFEA6C43F
:105B50009D532E34A055F3A232E18A0575EBF6A4CD
:105B600039EC830BAAEF6040069F715E51106EBD49
:105B7000F98A213E3D06DD96AE053EDD46BDE64D89
:105B8000B58D5491055DC4716FD40604FF15506046
:105B900024FB981997E9BDD6CC434089779ED967F5
:105BA000BD42E8B0888B8907385B19E7DBEEC8791E
:105BB000470A7CA1E90F427CC91E84F8000000005E
:105BC0008386800948ED2B32AC70111E4E725A6CE0
:105BD000FBFF0EFD5638850F1ED5AE3D27392D36FD
:105BE00064D90F0A21A65C68D1545B9B3A2E3624F7
:105BF000B1670A0C0FE75793D296EEB49E919B1BA8
:105C00004FC5C080A220DC61694B775A161A121C5E
:105C10000ABA93E2E52AA0C043E0223C1D171B12FA
:105C20000B0D090EADC78BF2B9A8B62DC8A91E146D
:105C30008519F1574C0775AFBBDD99EEFD607FA369
:105C40009F2601F7BCF5725CC53B6644347EFB5B66
:105C50007629438BDCC623CB68FCEDB663F1E4B850
:105C6000CADC31D710856342402297132011C684C5
:105C70007D244A85F83DBBD21132F9AE6DA129C70A
:105C80004B2F9E1DF330B2DCEC52860DD0E3C17772
:105C90006C16B32B99B970A9FA4894112264E9479C
:105CA000C48CFCA81A3FF0A0D82C7D56EF9033226C
:105CB000C74E4987C1D138D9FEA2CA8C360BD498B9
:105CC000CF81F5A628DE7AA5268EB7DAA4BFAD3F30
:105CD000E49D3A2C0D9278509BCC5F6A62467E54CC
:105CE000C2138DF6E8B8D8905EF7392EF5AFC382AF
:105CF000BE805D9F7C93D069A92DD56FB31225CF4F
:105D00003B99ACC8A77D18106E639CE87BBB3BDB5E
:105D1000097826CDF418596E01B79AECA89A4F83EA
:105D2000656E95E67EE6FFAA08CFBC21E6E815EF92
:105D3000D99BE7BACE366F4AD4099FEAD67CB02900
:105D4000AFB2A43131233F2A3094A5C6C066A23534
:105D500037BC4E74A6CA82FCB0D090E015D8A733E9
:105D60004A9804F1F7DAEC410E50CD7F2FF69117E7
:105D70008DD64D764DB0EF43544DAACCDF0496E45A
:105D8000E3B5D19E1B886A4CB81F2CC17F51654674
:105D900004EA5E9D5D358C01737487FA2E410BFB1E
:105DA0005A1D67B352D2DB92335610E91347D66DB2
:105DB0008C61D79A7A0CA1378E14F859893C13EB71
:105DC000EE27A9CE35C961B7EDE51CE13CB1477AB4
:105DD00059DFD29C3F73F25579CE1418BF37C77381
:105DE000EACDF7535BAAFD5F146F3DDF86DB447895
:105DF00081F3AFCA3EC468B92C3424385F40A3C2D3
:105E000072C31D160C25E2BC8B493C2841950DFF41
:105E10007101A839DEB30C089CE4B4D890C1566473
:105E20006184CB7B70B632D5745C6C484257B8D075
:105E30000000C201840346020807CA068C044E050E
:105E4000100ED20F940D560C1809DA089C0A5E0B3E
:105E5000201CE21DA41F661E281BEA1AAC186E192E
:105E60003012F213B41176103815FA14BC167E17DE
:105E700040388239C43B063A483F8A3ECC3C0E3D0E
:105E800050369237D435163458319A30DC321E33BE
:105E90006024A225E42726266823AA22EC202E21AE
:105EA000702AB22BF4293628782DBA2CFC2E3E2FDE
:105EB000807042710473C67288774A760C74CE750E
:105EC000907E527F147DD67C98795A781C7ADE7B3E
:105ED000A06C626D246FE66EA86B6A6A2C68EE692E
:105EE000B06272633461F660B8657A643C66FE67DE
:105EF000C0480249444B864AC84F0A4E4C4C8E4D0E
:105F0000D046124754459644D8411A405C429E43BD
:105F1000E05422556457A656E8532A526C50AE51AD
:105F2000F05A325B7459B658F85D3A5C7C5EBE5FDD
:105F300000E1C2E084E246E308E6CAE78CE54EE40D
:105F400010EFD2EE94EC56ED18E8DAE99CEB5EEA3D
:105F500020FDE2FCA4FE66FF28FAEAFBACF96EF82D
:105F600030F3F2F2B4F076F138F4FAF5BCF77EF6DD
:105F700040D982D8C4DA06DB48DE8ADFCCDD0EDC0D
:105F800050D792D6D4D416D558D09AD1DCD31ED2BD
:105F900060C5A2C4E4C626C768C2AAC3ECC12EC0AD
:105FA00070CBB2CAF4C836C978CCBACDFCCF3ECEDD
:105FB000809142900492C69388964A970C95CE940D
:105FC000909F529E149CD69D98985A991C9BDE9A3D
:105FD000A08D628C248EE68FA88A6A8B2C89EE882D
:105FE000B08372823480F681B8847A853C87FE86DD
:105FF000C0A902A844AA86ABC8AE0AAF4CAD8EAC0D
:10600000D0A712A654A496A5D8A01AA15CA39EA2BC
:10601000E0B522B464B6A6B7E8B22AB36CB1AEB0AC
:10602000F0BB32BA74B8B6B9F8BC3ABD7CBFBEBEDC
:106030000000201C403860248070A06CC048E054F0
:1060400000E120FD40D960C58091A08DC0A9E0B5D8
:10605000000401010000000000000100040401012F
:10606000040001010404010004000000000001001C
:106070000004000000040101040401010004000008
:1060800004040001040001010000000104000000FC
:1060900004040000000400010004000100040100E9
:1060A00000040100000001010000010104040001DE
:1060B00004000100040000010400000104000100CC
:1060C00000000000040400000404010000000001BE
:1060D00000000100040401010400000000000101AF
:1060E00000040101000000010000000100040000A4
:1060F000040001010000010000040100040000018F
:106100000004000004000000040400010404010075
:106110000404010104000100000001010404000165
:106120000400000104040000040401000004010153
:10613000040400000004000100040001000000004D
:10614000040001000004010000000000040001013F
:1061500020801080008000800080000020801000DF
:10616000000010002000000020001080208000802F
:1061700020000080208010800080108000000080BF
:10618000008000800000100020000000200010802F
:10619000008010002000100020800080000000001F
:1061A00000000080008000002080100000001080AF
:1061B000200010002000008000000000008010007F
:1061C00020800000008010800000108020800000EF
:1061D000000000002080100020001080000010004F
:1061E000208000800000108000801080008000006F
:1061F00000001080008000802000000020801080BF
:1062000020801000200000000080000000000080BE
:10621000208000000080108000001000200000801E
:10622000200010002080008020000080200010004E
:10623000008010000000000000800080208000002E
:10624000000000802000108020801080008010005E
:106250000802000000020208000000000800020816
:10626000000200080000000008020200000200080E
:1062700008000200080000080800000800000200F2
:1062800008020208080002000000020808020000DC
:1062900000000008080000000002020800020000E0
:1062A00000020200000002080800020808020200C2
:1062B00008020008000202000000020008020008B4
:1062C00008000000080202080002000000000008A8
:1062D0000002020800000008080002000802000096
:1062E0000000020000020208000200080000000096
:1062F0000002000008000200080202080002000874
:106300000800000800020000000000000800020869
:10631000080200080000020000000008080202084D
:106320000800000008020200000202000800000845
:10633000000002080802000808020000000002082D
:106340000802020008000000080002080002020023
:1063500001208000812000008120000080000000DA
:10636000802080008100800001008000012000006A
:1063700000000000002080000020800081208000BC
:10638000810000000000000080008000010080000B
:1063900001000000002000000000800001208000BB
:1063A000800000000000800001200000802000002C
:1063B000810080000100000080200000800080003B
:1063C00000200000802080008120800081000000EB
:1063D000800080000100800000208000812080007B
:1063E000810000000000000000000000002080008C
:1063F00080200000800080008100800001000000FB
:106400000120800081200000812000008000000029
:1064100081208000810000000100000000200000B9
:1064200001008000012000008020800081008000A9
:10643000012000008020000000008000012080007A
:10644000800000000000800000200000802080000C
:1064500000010000000108020000080200010042E3
:1064600000000800000100000000004000000802D9
:10647000000108400000080000010002000108407F
:106480000001004200000842000108000000004036
:10649000000000020000084000000840000000006A
:1064A0000001004000010842000108420001000212
:1064B000000008420001004000000000000000420F
:1064C0000001080200000002000000420001080074
:1064D000000008000001004200010000000000026E
:1064E00000000040000008020001004200010840D6
:1064F0000001000200000040000008420001080204
:1065000000010840000100000000000200000842F5
:10651000000108420001080000000042000108429A
:1065200000000802000000000000084000000042D7
:106530000001080000010002000100400000080006
:1065400000000000000008400001080200010040B7
:1065500010000020000040200040000010404020BB
:1065600000004020100000001040402000004000CB
:1065700000400020104040000000400010000020BB
:1065800010004000004000200000002010400000EB
:1065900000000000100040001040002000400000FB
:1065A000004040001040002010000000100040207B
:1065B000100040200000000010404000004040203B
:1065C000104000000040400000404020000000203B
:1065D000004000201000000010004020004040005B
:1065E000104040200000400010400000100000203B
:1065F000000040000040002000000020104000008B
:1066000010000020104040200040400000004020CA
:1066100010404000004040200000000010004020DA
:10662000100000000040000000004020104040002A
:10663000004000001000400010400020000000005A
:1066400000404020000000201000400010400020CA
:1066500000002000020020040208000400000000E6
:1066600000080000020800040208200000082004BE
:1066700002082004000020000000000002000004C6
:1066800002000000000000040200200402080000D4
:106690000008000402082000020020000008000496
:1066A0000200000400002004000820040200200072
:1066B0000000200400080000020800000208200476
:1066C0000008200002000000000000040008200074
:1066D0000000000400082000000020000208000460
:1066E000020800040200200402002004020000004E
:1066F0000200200000000004000800040000200048
:1067000000082004020800000208200000082004FD
:106710000208000002000004020820040000200417
:106720000008200000000000020000000208200411
:106730000000000002082000000020040008000003
:10674000020000040008000400080000020020000D
:106750004010001000100000000004004010041061
:106760000000001040100010400000000000001069
:106770004000040000000410401004100010040049
:106780000010041040100400001000004000000041
:106790000000041040000010001000104010000025
:1067A0000010040040000400400004100010041019
:1067B0004010000000000000000000004000041035
:1067C0004000001000100010401004000000040001
:1067D000401004000000040000100410001000002D
:1067E00040000000400004100010000040100400B1
:1067F00000100010400000004000001000000410D5
:1068000040000410000000100000040040100010C0
:106810000000000040100410400004004000001080
:1068200000000410001000104010001000000000D4
:10683000401004100010040000100400401000007C
:106840004010000040000400000000100010041080
:10685000982F8A4291443771CFFBC0B5A5DBB5E9CB
:106860005BC25639F111F159A4823F92D55E1CAB3F
:1068700098AA07D8015B8312BE853124C37D0C55CD
:10688000745DBE72FEB1DE80A706DC9B74F19BC115
:10689000C1699BE48647BEEFC69DC10FCCA10C2405
:1068A0006F2CE92DAA84744ADCA9B05CDA88F976E9
:1068B00052513E986DC631A8C82703B0C77F59BF53
:1068C000F30BE0C64791A7D55163CA06672929147F
:1068D000850AB72738211B2EFC6D2C4D130D38531C
:1068E00054730A65BB0A6A762EC9C281852C7292DE
:1068F000A1E8BFA24B661AA8708B4BC2A3516CC70C
:1069000019E892D1240699D685350EF470A06A1044
:1069100016C1A419086C371E4C774827B5BCB03493
:10692000B30C1C394AAAD84E4FCA9C5BF36F2E6831
:10693000EE828F746F63A5781478C8840802C78CC0
:10694000FAFFBE90EB6C50A4F7A3F9BEF27871C6C3
:106950008000400020001000080004000200010038
:106960000000800000004000000020000000100037
:106970000000080000000400000002000000010008
:106980000080000000400000002000000010000017
:1069900000080000000400000002000000010000E8
:1069A00080000000400000002000000010000000F7
:1069B00008000000040000000200000001000000C8
:1069C0008000000000000000000000000000000047
:1069D00000000000000000000000000000000000B7
:1069E00000000000000000000000000000000000A7
:1069F0000000000000000000000000000000000097
:106A00000000000000000000000000000000000086
:106A1000636363626363636263636362636363624A
:106A2000C998989BAAFBFBF9C998989BAAFBFBF90C
:106A300050349790FACF6C693357F4F299AC0F0B3E
:106A40007BDA06EE81156A87B2429E752BEE917E47
:106A5000882B2E7F093E44F8BB7CDA8D90924BF355
:106A6000854B61EC8C7525143709FF99A79BB46A97
:106A7000871775210B6250353C6BAFAC9BF01BC682
:106A80003303F90E3861A93B040A06979FFA1D519A
:106A9000E2D8D4B1DAB97D8ADEB37B1D4149664CB8
:106AA000CB5BEFB411E2923ECF51E9238E188F6F8A
:106AB00003020100070605040B0A09080F0E0D0C5E
:106AC000FD74AAD6FA72AFD2F178A6DAFE76ABD60A
:106AD0000BCF92B6F1BD3D6400C59BBEFEB33068DE
:106AE0004E74FFB6BFC9C2D2BF0C596C41BF690416
:106AF000BCF7F747033E3595BC326CF9FD8D05FDBB
:106B0000E8A3AA3CEB9D9FA957AFF350AA22F6AD8C
:106B10007D0F395E9692A6F7C13D55A76B1FA30A5C
:106B20001A70F9148CE25FE34DDF0A4426C0A94EC7
:106B300035874347B9651CA4F4BA16E0D27ABFAED4
:106B4000D1329954685785F09CED93104E972CBE26
:106B50007F1D1113174A94E38BA707F3C5302B4D04
:106B6000000000000000000001000000FFFFFFFF28
:106B700001000000FFFFFFFF000000000000000018
:106B80000000000000000000000000000100000004
:106B900000000000010000000100000001000000F2
:106BA000C06B0108000000205401000054220108BD
:106BB000546C010854010020AC040000E0510108AD
:106BC0000124141A03531254124D1233021932C203
:106BD000012AC20E12081A0407180AA951010869ED
:106BE00050010891081AA5041E594F010841101AB6
:106BF00029041AD10C1ABD041A010C412A40481D5F
:106C0000400108512829080912041A691C363C530E
:106C10000108121A4E0832431A910832041A9508D4
:106C200032261ABB0829AA2224F3201A0B18393D50
:106C30005C69040A124524711A3CEA7CDC054AEFBF
:106C40004011F0F1F2F3F4F5F6F7F8F9FAFBFCFD78
:046C5000FEFF000043
:040000050801218944
:00000001FF
