:020000040800F2
:10000000E09200209D0100086D1E0008111C0008F0
:10001000691E0008A10D0008753B000800000000E3
:100020000000000000000000000000009D2B000800
:10003000A117000800000000A9200008BD34000836
:10004000B7010008B7010008B7010008B7010008B0
:10005000B7010008B7010008B7010008B7010008A0
:10006000B7010008B7010008B7010008B701000890
:10007000B7010008B7010008B7010008B701000880
:10008000B7010008B7010008B7010008B701000870
:10009000453B0008B7010008B7010008B701000898
:1000A000B7010008B7010008B7010008B701000850
:1000B000B701000889350008B7010008B70100083A
:1000C000B7010008B7010008B7010008B701000830
:1000D000B7010008B7010008B7010008B701000820
:1000E000B7010008B7010008F5380008B70100089B
:1000F000B7010008B7010008B7010008B701000800
:10010000000000000000000000000000B70100082F
:10011000B7010008B7010008B7010008B7010008DF
:10012000B7010008B7010008B7010008B7010008CF
:10013000B7010008B701000800000000000000003F
:10014000B7010008B7010008B7010008000000006F
:10015000000000000000000000000000000000009F
:100160000000000000000000B7010008B70100080F
:10017000B7010008000000000000000000000000BF
:1001800000000000B7010008DFF80CD000F08CF987
:1001900000480047A93E0008E0920020064880473A
:1001A00006480047FEE7FEE7FEE7FEE7FEE7FEE75C
:1001B000FEE7FEE7FEE7FEE7C1340008890100081C
:1001C0002DE9FE4F81EA030404F0004421F00041D0
:1001D00000944FF0000B23F0004350EA01045ED07E
:1001E00052EA03045BD0C3F30A54C1F30A552C440A
:1001F000A4F2F3340194A0FB0254C1F3130141F4BF
:100200008011C3F3130343F4801301FB024400FB8A
:10021000034E840A970A44EA815447EA8357A4FBB1
:10022000076802958D0A05FB07854FEA932C04FBAE
:100230000C542705029D4FEA065847EA1637B5EBDE
:1002400008056EEB070C870E920E47EA811742EA0B
:100250008312A7FB0201B6EB0B0164EB00042B0D2C
:1002600043EA0C335E1844EB1C50DA465146E7FB78
:100270000201C5F313044FEA0B3343EA14534FEA68
:100280000432019C43EA0603A4F10C040294009C8E
:10029000CDE900B400F0BAF803B0BDE8F08F00205B
:1002A0000146F9E72DE9F04D81EA030404F0004B23
:1002B00021F0004514464FF0000A23F0004150EAB7
:1002C000050220D054EA01021DD0C5F30A570246A8
:1002D000C5F31303C1F31300C1F30A5640F48015AC
:1002E00043F48013A7EB0608101BD64608F2FD382E
:1002F00073EB050002D308F1010801E092185B419D
:10030000B8F1000F03DA00200146BDE8F08D0020AF
:100310004FF48011064684460EE0171B73EB050769
:1003200005D3121B63EB050306434CEA010C490895
:100330004FEA300092185B4150EA0107EDD152EAD2
:10034000030012D082EA040083EA0501084305D0C5
:10035000101BAB4106D20122002306E000224FF021
:10036000004302E06FF0010253101AEB06004CEB61
:10037000085110EB0A0041EB0B01BDE8F04D00F015
:1003800036B80EB540F2334102910021CDE900119B
:100390000A460B4600F03AF803B000BDC1F30A521A
:1003A00010B5C1F3130140F2FF3341F480119A42BA
:1003B00001DA002010BD40F233439A42A2F23342E8
:1003C00003DC524200F003F810BD904010BD202A1B
:1003D00004DB203A21FA02F00021704721FA02F3EF
:1003E000D040C2F12002914008431946704710B531
:1003F000141E73F1000408DA401C41F10001921848
:100400005B411A4301D120F0010010BD2DE9F04DF0
:1004100092469B4611B1B1FA81F202E0B0FA80F245
:100420002032904600F052F804460F4640EA0A0097
:1004300041EA0B0153465A46084313D0114653EA8A
:10044000010019D0C8F140025046FFF7C0FF054631
:100450000E4650465946424600F038F8084305D04B
:10046000012004E020463946BDE8F08D0020054318
:1004700046EAE0762C4337430A986305E40AA0EB8A
:1004800008000022FD0A44EA47540A3002D5002041
:100490000146E9E7010510196941DDE90845001940
:1004A0006941BDE8F04DA2E7064C074D06E0E06863
:1004B00040F0010394E8070098471034AC42F6D3AB
:1004C000FFF766FEC4440008E4440008202A04DB69
:1004D000203A00FA02F1002070479140C2F1200357
:1004E00020FA03F319439040704770B58C1810F848
:1004F000015B15F0070301D110F8013B2A1106D169
:1005000010F8012B03E010F8016B01F8016B5B1E82
:10051000F9D12B0705D40023521E0DD401F8013B5D
:10052000FAE710F8013BCB1A921C03E013F8015BC9
:1005300001F8015B521EF9D5A142D8D3002070BD4D
:1005400021B1826842F00102826003E0826842F0D9
:10055000020282607047000010B50022B0F1A04F87
:1005600002D0124B984204D1114B1A68114B1A4019
:1005700003E0114B1A680F4B1A40D1E900342343B2
:100580008C682343CC6843EA04330C7C43EA04239D
:100590001A43B0F1A04F02D0044B984202D1044B51
:1005A0001A6001E0044B1A6010BD00000001005009
:1005B00008030050E010FCFF0807005021B1C2689A
:1005C00042F00102C26003E0C26822F00102C26090
:1005D0007047C26822F00202C260C2680A43C26069
:1005E0007047000000B59BB0FE4800F0FDFDFE48DE
:1005F00000F0FAFDFC48503000F0F6FDFA481430E7
:1006000000F0F2FDF9481090F94811900020129086
:100610000920ADF84C000020149080201590400077
:10062000169080001790202018900002199000204A
:100630001A9010A9EB4800F07DFE0121E94800F076
:10064000C6FDEC481090EC48119000201290062056
:10065000ADF84C00002014908020159040001690BA
:1006600080001790202018900002199000201A9006
:1006700010A9DD4800F05EFE0121DB4800F0A7FD77
:10068000DE481090DE481190002012900A20ADF84C
:100690004C0000201490802015904000169080009F
:1006A0001790202018900002199000201A9010A98D
:1006B000CD48503000F03EFE0121CB48503000F0D4
:1006C00086FDD0481090D04811900020129007204D
:1006D000ADF84C000020149080201590400016903A
:1006E00080001790202018900002199000201A9086
:1006F00010A9BD48143000F01DFE0121BA48143085
:1007000000F065FDEF20019003208DF80800002027
:100710008DF80B0001A94FF0904001F0B9F94DF6AA
:100720000700019003208DF8080000208DF80B00D1
:1007300001A9B64801F0ACF93F20019003208DF8E3
:10074000080000208DF80B0001A9B14801F0A0F9C4
:100750004FF47060019003208DF8080000208DF8A0
:100760000B0001A9AB4801F093F94FF6807001909E
:1007700003208DF8080000208DF80B0001A9A64881
:1007800001F086F90420019003208DF80800002074
:100790008DF80B0001A9A14801F07AF901214FF071
:1007A000A04000F0D8FA01219248403800F0D3FA76
:1007B00001219248403800F0CEFA0121914840389A
:1007C00000F0C9FA44F6206000F0EBFF00214FF082
:1007D000A04000F0AEFA4FF0A04000F0B2FA00BF27
:1007E0004FF0A04000F0F0F90028F9D14FF0A04000
:1007F00000F0F4F98A49088000217E48403800F072
:1008000098FA7C48403800F09CFA00BF794840389C
:1008100000F0DAF90028F9D17648403800F0DEF926
:100820008049088000217548403800F082FA7348FA
:10083000403800F086FA00BF7048403800F0C4F934
:100840000028F9D16D48403800F0C8F97649088091
:1008500000216C48403800F06CFA6A48403800F0DB
:1008600070FA00BF6748403800F0AEF90028F9D1AF
:100870006448403800F0B2F96C49088000200B90C1
:100880004FF400300C9000200D9002200E908DF857
:100890003C000BA94FF0A040FFF75EFE0BA95548A6
:1008A0004038FFF759FE0BA954484038FFF754FE73
:1008B0000BA954484038FFF74FFE002003900490E6
:1008C000069007900890099009208DF8280003A948
:1008D0004FF0A04000F090F90020039004900690A3
:1008E00007900890099006208DF8280003A9414838
:1008F000403800F081F900200390049006900790A2
:10090000089009900A208DF8280003A93B48403838
:1009100000F072F900200390049006900790089070
:10092000099007208DF8280003A93648403800F0C8
:1009300063F90323012206214FF0A04000F07CF967
:100940000323022207214FF0A04000F075F9032392
:100950001A4608214FF0A04000F06EF9032304224C
:1009600009214FF0A04000F067F9032305220A2176
:10097000C80600F061F90323062201214FF0A040D0
:1009800000F05AF90323072202214FF0A04000F0A3
:1009900053F90323082219464FF0A04000F04CF908
:1009A0000323092204214FF0A04000F045F903235E
:1009B000012202210F48403800F03EF903230222B1
:1009C00019460C48403800F037F903231A46042131
:1009D0000848403800F030F9032304220521054877
:1009E000403825E008000240080402404000005062
:1009F000806A002040010050926A002040040050AC
:100A00009E6A002040050050B26A002000040048A1
:100A100000080048000C004800100048001400487E
:100A20005E010020600100206201002064010020BE
:100A300000F002F9032305220B21604800F0FCF8C6
:100A4000032306220C215D4800F0F6F8032301225F
:100A500007215B4800F0F0F8032302220C215848DC
:100A600000F0EAF803231A460121554800F0E4F8A3
:100A7000032304220D21524800F0DEF8032305224F
:100A800006214F4800F0D8F80323062202214C48E3
:100A900000F0D2F8032307220E21494800F0CCF8D9
:100AA000032308220F21464800F0C6F80323092239
:100AB0001021434800F0C0F803230A221946404899
:100AC00000F0BAF80323012211463E4800F0B4F8C2
:100AD0000323022211463B4800F0AEF803231A46D6
:100AE0001946384800F0A8F8032304220D213548A0
:100AF00000F0A2F8032305220421324800F09CF8FC
:100B00000323062205212F4800F096F8032307222D
:100B10000C212C4800F090F801214FF0A040FFF785
:100B20000FFD01212548FFF70BFD01212448FFF7A8
:100B300007FD01212348FFF703FD00BF01214FF00E
:100B4000A04000F04FF80028F8D000BF01211B485A
:100B500000F048F80028F9D000BF0121184800F043
:100B600041F80028F9D000BF0121164800F03AF8FA
:100B70000028F9D001214FF0A040FFF71FFD01210F
:100B80000E48FFF71BFD01210D48FFF717FD01215E
:100B90000C48FFF713FD02214FF0A040FFF719FDAD
:100BA00002210648FFF715FD02210548FFF711FD58
:100BB00002210448FFF70DFD1BB000BD00010050ED
:100BC0000004005000050050014600208A6802F031
:100BD00000420AB1012000E0002070470146D1F830
:100BE000B40070470246002013680B400BB101208F
:100BF00000E000207047000010B502460020D068D9
:100C00000C4B1840D1E9003423438C682343CC6853
:100C100023430C6923434C6923438C6923431843C2
:100C2000D060106B20F00F000B7F5B1E1843106329
:100C300010BD000007C0FFFDF0B50C461D4600BF0B
:100C400000BF052A0FDA016B02EB420677001F2670
:100C500006FA07F3994302EB4206760004FA06F31C
:100C6000194301633CE00A2A11DA416B561F06EB77
:100C7000460677001F2606FA07F39943561F06EB30
:100C80004606760004FA06F31943416328E00F2A6A
:100C900013DA816BA2F10A0606EB460677001F26DF
:100CA00006FA07F39943A2F10A0606EB4606760018
:100CB00004FA06F31943816312E0C16BA2F10F0637
:100CC00006EB460677001F2606FA07F39943A2F1C2
:100CD0000F0606EB4606760004FA06F31943C163D5
:100CE000092C14DD8169A4F10A0606EB46070726E4
:100CF00006FA07F386699E4386618669A4F10A07AE
:100D000007EB470705FA07F73E43866110E04169A4
:100D1000661E06EB4607382606FA07F346699E4329
:100D20004661466904EB440705FA07F73E4346610E
:100D3000F0BD826822F08042826082680A4382604D
:100D40007047816841F0004181607047816841F0DF
:100D5000040181607047826822F04052826021B1B4
:100D6000826842F08052826003E0826842F0005262
:100D70008260704708480088012806D10220074990
:100D8000886100200449088005E0022003490885A5
:100D900001200149088070475001002000100048E0
:100DA00000BFFEE70146CAB20B1243EA02207047B9
:100DB00010B5002003490860032001F079FF0120ED
:100DC00010BD00004401002070B505460C4600200F
:100DD000074908602246C021284602F0CDFE214680
:100DE000012001F08FFF012001F0BAFF012070BD4A
:100DF0003401002008B50020009022E197480088C7
:100E000000F00F00964908700846007800287CD151
:100E100094480068944908800846008800F0300033
:100E2000924908809048008800F440508E4908801C
:100E30008C4909684BF6BF7201EA020080F4005049
:100E400080F0200040F4004141F08001854A1160AB
:100E50008248008800F0100090BB1046006848F6F9
:100E60000F7108401146086000F0D4FE7D49096802
:100E70004BF6BF7201EA02007B49098801F48051F8
:100E800009B180F480507849098801F4005109B112
:100E900080F400507549098801F0100109B180F013
:100EA00010007249098801F0200109B180F020008A
:100EB00081B241F4004141F080016A4A116008BDED
:100EC000FFE76848006880B20090BDF8000000F4B9
:100ED0000060B0B363480068C0F30E0048F68F713D
:100EE00008406049086001F0FDFF5E4909684BF663
:100EF000BF7201EA02005C49098801F4805109B11E
:100F000080F480505849098800E056E001F400510F
:100F100009B180F400505549098801F0100109B168
:100F200080F010005149098801F0200109B180F0DA
:100F3000200081B241F4004141F08001494A116032
:100F4000BDE7FFE7BDF8000000F40040002878D0BE
:100F500044480068C0F30E0048F68F7108404149CC
:100F6000086001F067F83F4909684BF6BF7201EA73
:100F700002003D49098801F4805109B180F4805094
:100F80003949098801F4005109B180F4005037490A
:100F9000098801F0100109B180F010003349098877
:100FA00001F0200109B180F0200081B241F400413C
:100FB00041F080012B4A116081E7294800782C49D3
:100FC00001EB8000D0F8000C80B20090BDF800006A
:100FD00000F40040C0B12248007801EB8000D0F856
:100FE000000CC0F30E0048F68F7108401C490978C8
:100FF0001F4A02EB8101C1F8000C19490978491E0A
:101000001C4A52F821008047BDF8000000F0800023
:10101000B8B113480078164901EB8000D0F8000CF5
:1010200048F60F7108400E490978114A02EB810118
:10103000C1F8000C0A490978491E0F4A52F82100EC
:10104000804708484430006880B20449088000F4B2
:10105000004000287FF4D2AE00BF30E7D800002067
:101060000C000020005C0040200000202200002036
:101070000050004000010020E40000200B4A02EB79
:101080008001D1F8001C01F4804171B102EB8001B4
:10109000D1F8001C48F68F7211404CF280021143C7
:1010A000024B03EB8002C2F8001C70470050004066
:1010B0000B4A02EB8001D1F8001C01F0400171B134
:1010C00002EB8001D1F8001C48F68F72114048F203
:1010D000C0021143024B03EB8002C2F8001C7047B0
:1010E00000500040084A02EB8001D1F8001C48F68D
:1010F0008F62114048F280021143034B03EB8002E0
:10110000C2F8001C704700000050004010B52AB122
:10111000036801248C402343036004E00368012436
:101120008C40A343036010BD1CB510200090032029
:101130008DF8040000208DF8070069464FF09040BC
:1011400000F0A6FC0020074908604860C8600A4615
:101150000021054800F00AF8012200210248FFF7AB
:10116000D5FF1CBD000200200074004070B50023B4
:101170000024036840F6FE758D40AB43D2E900566B
:10118000354396683543D66845EA060404FA01F506
:101190002B43036070BD18B500230093009001F14C
:1011A0000803009C23440093009B1A6018BD30B5CF
:1011B00032B143680D090124AC402343436005E08C
:1011C00043680D090124AC40A343436030BD21B105
:1011D000026842F00102026004E002684FF6FE730A
:1011E0001A4002607047000001684FF6FE7211401D
:1011F00001600021016041608160C1604B4988420B
:1012000008D14A490839496841F00F01474A083A6C
:1012100051608AE045491431884208D14349083970
:10122000496841F0F001414A083A51607DE03F4988
:101230002831884208D13D490839496841F4706134
:101240003A4A083A516070E038493C31884208D146
:1012500036490839496841F47041344A083A5160C6
:1012600063E032495031884208D130490839496831
:1012700041F470212D4A083A516056E02B496431FF
:10128000884208D129490839496841F47001274A40
:10129000083A516049E025497831884208D123490C
:1012A0000839496841F07061204A083A51603CE0D1
:1012B0001F49884206D1011F096841F00F01021F32
:1012C000116032E01A491431884208D11849091FC7
:1012D000096841F0F001164A121F116025E0144917
:1012E0002831884208D11249091F096841F4706108
:1012F0000F4A121F116018E00D493C31884208D195
:101300000B49091F096841F47041094A121F116015
:101310000BE007495031884207D10549091F096888
:1013200041F47021024A121F116070470800024008
:101330000804024010B50022026847F6F0739A4391
:101340000C6A8B6823430C6923434C6923438C69E3
:101350002343CC6923434C6A23438C6A23431A43B7
:1013600002608B8943600B6883604B68C36010BD6B
:101370002DE9F0472748006800F110052E88254820
:101380000068077ACEB9042F17D1234800780128C6
:101390000ED100212148006880B2801C204A815271
:1013A00030202049088000BF00201B49087003E05E
:1013B000072710201B49088027E0AC88A64201D8E7
:1013C000042000E002200746B44200D93446A0B20F
:1013D000A96888478046002000F0E6FB8146A2B25B
:1013E0004946404602F0C8FBA1B2002001F08AFC49
:1013F0002888001B2880688820446880302009499C
:10140000088000020849088000BF024909680F727D
:10141000BDE8F0871000002008000020505C00406C
:101420000060004022000020200000202DE9F04153
:101430002F48006800F110042688A068C0B1BEB132
:10144000A588B54200D93546A8B2A16888470746A5
:101450002088401B2080608828446080002000F0A5
:1014600085FB8046AAB24146384600F00BFE00BF1D
:10147000208850B14FF440501E4908800021084692
:1014800001F040FC30201C4908802088A188884257
:1014900004DB032016490968087227E02088002829
:1014A00004DD05201249096808721FE02088E8B9A8
:1014B00006200F4909680872104909688868804742
:1014C0000B480068007A082806D1400209490880C4
:1014D00010200949088009E000210948006880B20D
:1014E000801C084A8152302003490880BDE8F08101
:1014F0001000002020000020220000201400002006
:10150000505C0040006000402DE9F84F9B480068A7
:1015100045780027BA46062D1BD198480068007808
:1015200000F07F00002813D19449096888780128C9
:1015300003D193490968CF690AE0022803D1904991
:1015400009680F6A04E0032802D18D4909684F6ACF
:1015500094E0002D64D189480068408800285FD15C
:1015600086480068C08802285AD1844800680079FB
:10157000002855D181480068007800F07F0028B924
:101580007E480068808808B97E4F77E07B48006815
:10159000007800F07F00012810D178490968487967
:1015A000774909688A6900219047002866D1734805
:1015B0000068807A002861D0724F5FE06F48006851
:1015C000007800F07F00022858D16C48006840790C
:1015D00000F00F0669480068407900F0700967481C
:1015E0000068407900F0800038B1674901EB86005F
:1015F000D0F8000C00F0300806E0634901EB8600EB
:10160000D0F8000C00F4405860480078B04235D95A
:10161000B9F1000F32D1B8F1000F2FD0594F2DE0A2
:10162000082D07D155480068007800F07F0028BBDE
:10163000574F23E00A2D21D150480068007800F070
:101640007F0001281AD14D480068807AB0B14B481C
:101650000068408890B949480068007970B94748E7
:101660000068C088012809D144490968487944497B
:1016700009688A690021904700B9464F57B13F4831
:101680000068A0F812A03D48006887610020B847B4
:1016900000240FE0394A12685078394A12681169FB
:1016A00088470446032C05D109203449096808728B
:1016B000BDE8F88F31480068008A4FF6FF71884214
:1016C00004D109202D4909680872F1E7022C03D0E2
:1016D0002A480068008A20B9082028490968087249
:1016E000E6E726480068007800F08000E0B3234871
:1016F0000068C088009021480068008A00998842EC
:1017000004D91E4900980968088223E01B48006834
:10171000008A1A490968C98888421BDA1748006894
:10172000008A1749096891F82C10884203DA0020D2
:10173000194908700EE011480068008A10490968CC
:1017400091F82C1090FBF1F201FB120010B901206E
:10175000114908700A48006890F82C100748006882
:101760008182FFF705FE07E0FFE7032003490968D0
:10177000087200030949088000BF99E710000020A3
:10178000140000207D31000800500040300000208F
:10179000013100085131000808000020200000201D
:1017A0007047002100BF00E0491C8142FCD3704714
:1017B00001200F49088008200880042008800220AA
:1017C000088040200B49086008200B490880102041
:1017D0000880202008804020088004200749886174
:1017E00008208861FF200649087048707047000093
:1017F000280C004818080048280400480010004839
:10180000583500200120014908607047340100204C
:1018100010B5012007490860032000F0B5F906491A
:1018200008600846008882B24FF48871034800F0CF
:1018300029FC10BD44010020B8000020C08E00200B
:1018400000F01F02012191404209034B03EB4212B9
:10185000C2F8141470470000000001400149C8603C
:10186000704700000020024030B5044604254FF4C4
:10187000302000F077F80546042D16D10C48006999
:1018800040F002000A49086108464461006940F0DE
:10189000400008614FF4302000F064F80546044829
:1018A000006920F0020002490861284630BD0000AE
:1018B0000020024004200B49C96801F0010109B170
:1018C00001200EE00749C96801F0100109B10220AA
:1018D00007E00449C96801F0040109B1032000E0F0
:1018E00004207047002002400348006940F0800057
:1018F00001490861704700000020024070B50446AD
:101900000D4604264FF4302000F02CF80646042E35
:1019100011D10A48006940F001000849086125809A
:101920004FF4302000F01EF806460448006920F00D
:10193000010002490861304670BD000000200240ED
:101940000548006900F0800020B104480249486061
:1019500003484860704700000020024023016745AB
:10196000AB89EFCD00B502460423FFF7A3FF034682
:1019700003E0FFF79FFF0346521E012B01D1002A0F
:10198000F7D102B90523184600BD00001CB5072297
:1019900006213B4800F0C7F807221146384800F0FE
:1019A000C2F8C020009002208DF8040000208DF8BD
:1019B000060003208DF8050001208DF80700694618
:1019C0002F4800F065F87820009001208DF8040081
:1019D00000208DF806008DF8070003208DF8050023
:1019E0006946274800F054F84FF4985000900120C1
:1019F0008DF8040000208DF806008DF80700032004
:101A00008DF8050069464FF0904000F041F87F20C6
:101A1000009001208DF8040000208DF806000120C0
:101A20008DF8070003208DF805006946154800F081
:101A30002FF8FF20009001208DF8040000208DF881
:101A4000060001208DF8070003208DF80500694687
:101A50000D4800F01DF84FF40150009001208DF862
:101A6000040000208DF8060001208DF807000320F7
:101A70008DF805006946054800F00AF81CBD000015
:101A80000004004800100048000C0048000800480E
:101A9000F0B50A46002100240025002300BF3FE0E6
:101AA000012606FA01F4166806EA0405A54236D1B5
:101AB0001679012E02D01679022E18D186684FEAC7
:101AC000410C032707FA0CF7BE43866056794F0096
:101AD000BE4087683E438660868801278F40BE43AC
:101AE0008680878896798E40B6B2374387800668AD
:101AF0004FEA410C032707FA0CF7BE43066016793C
:101B00004F00BE4007683E430660C3684F0003268F
:101B1000BE40B343D6794F00BE403343C360491C37
:101B20001029BDD3F0BDF0B5002300244D07ED0E04
:101B300002FA05F3CE1000F1200555F826504E07A5
:101B4000F70E0F26BE40B543CF1000F1200646F831
:101B50002750CE1000F1200555F8265045EA030421
:101B6000CE1000F1200545F82640F0BD014604489E
:101B7000006880B200EBC100001D024A805A704725
:101B8000505C00400060004001460548006880B29B
:101B900000EBC100801D034A805AC0F30900704762
:101BA000505C00400060004001460448006880B27C
:101BB00000EBC100024A805A70470000505C0040B0
:101BC000006000400146044A02EB8100D0F8000C9E
:101BD00000F03000704700000050004070B50A4827
:101BE0000468001D0568001D0668344454B10822CD
:101BF0000649204600F046F80422044910312846E0
:101C000000F040F870BD0000ACF7FF1FBE000020E0
:101C100000BFFEE710B518480068047A022C01D016
:101C2000042C05D1FFF7A4FB13480068047A1CE0DC
:101C3000062C19D110480068407805280ED10E48AE
:101C40000068007800F07F0040B90B490968C87847
:101C500000F0AEFF09490968086A80470849096829
:101C600088688047082400E00824034909680C724A
:101C700000F01CFA10BD0000100000201C00002025
:101C80001400002030B50B46002100BF16E00A24E6
:101C9000B4EB107F05D9302404EB107403F8114025
:101CA00005E0412404EB10740A3C03F811400001E4
:101CB00000254C00641C1D554C1CE1B29142E6DB32
:101CC00030BD000064480088401C634908806348B8
:101CD0000088102806D020280ED0302817D04028A1
:101CE0002DD11FE001205C4908805D490880022059
:101CF0005B491039086022E0012057490880022022
:101D000057490880042056491039086017E001201F
:101D10005149088004205249088008205049103950
:101D200008600CE001204C49088008204C490880DC
:101D300001200880022008800420088000BF00BF26
:101D400045480088112813D2DFE800F083091318F2
:101D5000202731364049555A626771767E00082047
:101D600040490880102008802020088040200880FA
:101D70006FE008203B49103908606AE008203949C3
:101D80000880102037491039086062E00820354982
:101D900010390860102008605BE008203149088095
:101DA0001020088020202F491039086051E00820B9
:101DB0002C49103908604CE008202A49088010207E
:101DC0002849103908602020086042E01020254989
:101DD00010390860202008600820086039E04020A1
:101DE00020491039086020201E49088010200880F2
:101DF000082008802DE008201A491039086028E0E2
:101E0000082018490880102016491039086020E081
:101E100008201449103908601BE0202011491039AE
:101E2000086010200F4908800820088011E0082071
:101E30000C49103908600CE010200A49103908607C
:101E400008200849088004E0082006491039086085
:101E500000BF00BF704700004A0100204801002079
:101E6000280C00482804004800BFFEE77047704770
:101E700070B5002100230F22C47804B3154C2468E8
:101E800004F4E064C4F5E064210AC1F10403CA402B
:101E9000447804FA03F184781440214309010E4C7C
:101EA0000678A155047804F01F050124AC4005789C
:101EB0006D11AD0005F1E025C5F8004109E0047899
:101EC00004F01F050124AC40044D0678761145F856
:101ED000264070BD0CED00E000E400E080E100E091
:101EE00002490143024A1160704700000000FA05F0
:101EF0000CED00E070B50226484800684478474879
:101F00000068007800F07F00002847D1092C03D139
:101F100001F0B4F9064662E0052C14D13F48006890
:101F2000C0787F280BDC3D480068807838B93B4892
:101F30000068808818B939480068807A08B1082597
:101F400067E000264BE0032C0ED134480068C078CF
:101F5000012807D131480068808818B901F0B2F92A
:101F600006463CE002263AE0012C38D12B480068B6
:101F7000C078012810D129480068808860B92748B6
:101F80000068407A00F0200030B100202449086049
:101F900001F000F8064622E0022620E01F48006813
:101FA000007800F07F00012805D10B2C17D101F03B
:101FB00005FA064613E019480068007800F07F0033
:101FC00002280BD1012C03D100F0E4FF064606E005
:101FD000032C04D101F08AF9064600E002264EB136
:101FE000E0B2104A1268516988470646032E01D1B3
:101FF00009250EE00EB108250BE0062500210A4850
:10200000006880B2801C094A81523020084908804B
:1020100000BF024909680D7270BD00001000002069
:102020000400002014000020505C004000600040CC
:102030002200002010B511480068047A022C01D05B
:10204000042C01D1082412E0032C01D0052C05D169
:10205000FFF7ECF909480068047A08E0072C05D17D
:1020600007490968C8688047082400E00824034934
:1020700009680C7200F01AF810BD00001000002072
:102080001400002070B5561C7510064E8C192B4696
:1020900005E034F8026B20F8016B401C5B1E002B3E
:1020A000F7D170BD006000407047000010B50D48CA
:1020B00090F82C10002000F0B3FD0B480068007A67
:1020C000082805D1400209490880102008490880E5
:1020D00005480068007A092801D1012010BD0020C0
:1020E000FCE7000034000020100000202000002049
:1020F0002200002010B501240E48046000200E4983
:102100000880084600880B49086000BF0948001D88
:10211000006800F480600128F8D0002000F04CFE38
:102120004FF4E050044908800846008801490860DF
:10213000002010BD405C00401A0000202DE9F04155
:10214000002300250021002000BF49E0002043E0DB
:10215000884A02EBC11232F81020874C2488A24230
:1021600024DB0246C71700EB5777FF10A0EBC70C24
:10217000012707FA0CF704464FEAE07C00EB5C7C91
:102180004FEAEC0C0CEBC10CDFF8F08118F80CC036
:1021900047EA0C0706464FEAE07C00EB5C7C4FEA1E
:1021A000EC0C0CEBC10C08F80C7013E00246C617DF
:1021B00000EB5676F61006EBC106704FBE5D044686
:1021C000C71700EB5777FF1007EBC107DFF8ACC16B
:1021D0000CF80760421CD0B24028B9DB4A1CD1B2CF
:1021E0004029B3DB0022664C22601CE0634A644C49
:1021F0002468125D634C644E3688A2555F4A604C79
:102200002468125D002A04DD604A1288521C5F4C6B
:1022100022805D4A1288521C5B4C2280584A126808
:10222000521C574C2260564A1268B2F5007FDDDB23
:102230000022534C226009E00024504A504E366878
:1022400094554F4A1268521C4D4C22604C4A1268F9
:10225000B2F5007FF0DB002129E0002023E0454AB1
:1022600002EBC11232F81020434C2488A24218DB42
:10227000404A02EBC11212F81020424C424E3688FE
:10228000A2553C4A02EBC11232F81020140A3D4E0E
:102290003D4A1288521CB4543B4A1288921C3A4C54
:1022A0002280421CD0B24028D9DB4A1CD1B240293E
:1022B000D3DB354A1288951E324C25702A0A62708B
:1022C0007F22A2700022324C2260224612782D4CCE
:1022D0002D4E3688A2552E4A1288C2F30724294E65
:1022E000294A1288521CB454294A1268C2F307467C
:1022F000244C254A1288921CA654254A1268120EB4
:102300002646214C2488E41C32550022204C2260B1
:10231000002327E01B4AD25CAA2A03D0194AD25CC8
:10232000552A13D155241B4A1B4E36689455154A1D
:10233000D25C82F02004174E174A1268521CB45423
:10234000154A1268921C144C22600AE00D4AD45CB3
:10235000104A114E366894550F4A1268521C0E4CA2
:1023600022605B1C084A1288121D9342D2DBBDE832
:10237000F0810000C06E002088010020206800204D
:102380007C010020583500208C01002066010020CF
:102390003801002090020020780100200021010F68
:1023A00031B1094AD26A22F47852074BDA6205E069
:1023B000054AD26A22F4F872034BDA62024AD26A00
:1023C0000243014BDA6270470010024029B1064A0D
:1023D00052690243044B5A6104E0034A5269824342
:1023E000014B5A61704700000010024029B1064AB3
:1023F000D2690243044BDA6104E0034AD2698243A2
:10240000014BDA61704700000010024029B1064A12
:1024100012690243044B1A6104E0034A12698243C1
:10242000014B1A61704700000010024029B1064AB2
:1024300092690243044B9A6104E0034A9269824321
:10244000014B9A61704700000010024010B5012155
:102450004804FFF7BBFF01218804FFF7B7FF012104
:10246000C804FFF7B3FF01210805FFF7AFFF012103
:102470004805FFF7ABFF01218805FFF7A7FF012102
:102480008803FFF7D3FF01214807FFF7AFFF0121C2
:10249000C802FFF7CBFF01210846FFF797FF012194
:1024A0000220FFF793FF01210807FFF78FFF0121AB
:1024B0004807FFF78BFF4FF48870FFF76FFF024864
:1024C000FFF76CFF10BD0000002200102DE9F0475F
:1024D0000022002694469046002500210024002377
:1024E000DFF8AC95D9F8049009F00C0222B1042A67
:1024F00007D0082A32D109E0DFF89895C0F800909B
:1025000031E0DFF89095C0F800902CE0DFF880957E
:10251000D9F8049009F47016DFF87495D9F804908E
:1025200009F4803C4FF0020909EB9646BCF1000F1C
:1025300004D1DFF8649506FB09F10DE0DFF8509552
:10254000D9F82C9009F00F0909F10108DFF844953A
:10255000B9FBF8F909FB06F1016004E0DFF83495F6
:10256000C0F8009000BF00BFDFF82495D9F80490B0
:1025700009F0F0021209DFF8249519F80230D0F8BA
:10258000009029FA03F9C0F80490DFF80495D9F80F
:10259000049009F4E062120ADFF8009519F802507D
:1025A000D0F8049029FA05F9C0F80890DFF8E09413
:1025B000D9F8049009F46052D20ADFF8E09419F8CF
:1025C0000240D0F8049029FA04F9C0F80C90DFF822
:1025D000C094D9F82C9009F4F872120902F00F098E
:1025E000DFF8BCA43AF8195002F01009B9F1000F55
:1025F00005D025B1B1FBF5F9C0F8109003E0D0F893
:102600000090C0F81090DFF88894D9F82C9009F465
:102610007852520A02F00F09DFF884A43AF81950F0
:1026200002F01009B9F1000F05D025B1B1FBF5F9A1
:10263000C0F8149003E0D0F80090C0F81490DFF8D0
:102640005094D9F8309009F01009B9F1100F04D066
:10265000DFF84094C0F8189003E0D0F80090C0F87C
:102660001890DFF82C94D9F8309009F02009B9F1CE
:10267000200F04D0DFF81C94C0F81C9003E0D0F8C1
:102680000090C0F81C90DFF80894D9F8309009F059
:102690004009B9F1400F04D0DFF8F893C0F820905A
:1026A00003E0D0F80090C0F82090DFF8E493D9F868
:1026B000309009F48079B9F5807F0AD1D0F8009084
:1026C000894506D19C4204D14FEA4109C0F82490C3
:1026D00003E0D0F80C90C0F824900027DFF8BC93FA
:1026E00019F80270DFF8A893D9F8309009F08079D2
:1026F000B9F1807F0AD1D0F80090894506D19F4278
:1027000004D14FEA4109C0F8309003E0D0F80890B6
:10271000C0F83090DFF87893D9F8309009F000795C
:10272000B9F1007F0AD1D0F80090894506D19F42C7
:1027300004D14FEA4109C0F8349003E0D0F8089082
:10274000C0F83490DFF84893D9F8309009F48059F4
:10275000B9F5805F0AD1D0F80090894506D19C4236
:1027600004D14FEA4109C0F8289003E0D0F80C905A
:10277000C0F82890DFF81893D9F8309009F4007960
:10278000B9F5007F0AD1D0F80090894506D19C4266
:1027900004D14FEA4109C0F82C9003E0D0F80C9026
:1027A000C0F82C90DFF8E892D9F8309009F48069ED
:1027B000B9F5806F0AD1D0F80090894506D19C42C6
:1027C00004D14FEA4109C0F84C9003E0D0F80C90D6
:1027D000C0F84C90DFF8B892D9F8309009F400694D
:1027E000B9F5006F0AD1D0F80090894506D19C4216
:1027F00004D14FEA4109C0F8509003E0D0F80C90A2
:10280000C0F85090DFF88892D9F8309009F4005958
:10281000B9F5005F0AD1D0F80090894506D19C42F5
:1028200004D14FEA4109C0F8549003E0D0F80C906D
:10283000C0F85090DFF85892D9F8309009F4004968
:10284000B9F5004F0AD1D0F80090894506D19C42D5
:1028500004D14FEA4109C0F8589003E0D0F80C9039
:10286000C0F85890DFF82892D9F8309009F00309A1
:10287000B9F1000F04D1D0F80C90C0F8389028E0DE
:10288000DFF80C92D9F8309009F00309B9F1010F83
:1028900004D1D0F80090C0F838901AE0DFF8F09139
:1028A000D9F8309009F00309B9F1020F04D14FF4BF
:1028B0000049C0F838900CE0DFF8D491D9F8309096
:1028C00009F00309B9F1030F03D1DFF8C891C0F88B
:1028D0003890DFF8BC91D9F8309009F44039B9F15B
:1028E000000F04D1D0F80890C0F83C9028E0DFF841
:1028F000A091D9F8309009F44039B9F5803F04D15E
:10290000D0F80090C0F83C901AE0DFF88491D9F834
:10291000309009F44039B9F5003F04D14FF4004933
:10292000C0F83C900CE0DFF86891D9F8309009F4D9
:102930004039B9F5403F03D1DFF85891C0F83C90D9
:10294000DFF84C91D9F8309009F44029B9F1000F23
:1029500004D1D0F80890C0F8409028E0DFF830911A
:10296000D9F8309009F44029B9F5802F04D1D0F876
:102970000090C0F840901AE0DFF81491D9F8309038
:1029800009F44029B9F5002F04D14FF40049C0F8EB
:1029900040900CE0DFF8F890D9F8309009F4402925
:1029A000B9F5402F03D1DFF8EC90C0F84090DFF884
:1029B000E090D9F8309009F44019B9F1000F04D132
:1029C000D0F80890C0F8449028E0DFF8C490D9F817
:1029D000309009F44019B9F5801F04D1D0F8009067
:1029E000C0F844901AE0DFF8A890D9F8309009F4C4
:1029F0004019B9F5001F04D14FF40049C0F84490C4
:102A00000CE0DFF88C90D9F8309009F44019B9F552
:102A1000401F03D1DFF87C90C0F84490DFF870903D
:102A2000D9F8309009F44009B9F1000F04D1D0F879
:102A30000890C0F8489028E0DFF85490D9F830901A
:102A400009F44009B9F5800F04D1D0F80090C0F81E
:102A500048901AE0DFF83890D9F8309009F440092E
:102A6000B9F5000F04D14FF40049C0F848900CE0CC
:102A7000DFF81C90D9F8309009F44009B9F5400FFF
:102A800003D1DFF81090C0F84890BDE8F08700004F
:102A90000010024000127A0000093D00940100205D
:102AA000A40100200149086070470000D80042429C
:102AB00010B50446072C01D02E4804702D4800782C
:102AC00008284ED2DFE800F004111A202B384E4FB0
:102AD0002948006828B900F053F8062025490870F5
:102AE00002E005202349087041E000F049F8042085
:102AF0002049087001202049086038E002201D4963
:102B000048700320087032E01A484078401E194986
:102B100048700846407808B90420087027E0174834
:102B2000006883B243F01003144803600520114984
:102B300008700A2048701AE00E484078401E0D497F
:102B400048700846407858B90C48006883B223F0B2
:102B500010030A4803600620087000200649086038
:102B600005E000BF00BF06200249087000BF00BF9B
:102B700010BD00002501002028010020405C00401D
:102B80000549096888B220F00400034908604FF441
:102B90003F41014A11607047405C004070470000AF
:102BA0004FF6F8710140014A11607047505C0040D7
:102BB00030B501460F4B1A78002014E003060E4C86
:102BC00004EB9353D3F8003C48F68F74234048F24B
:102BD00080042343C4B223430406074D05EB9454F9
:102BE000C4F8003C401C9042E8D341F08003034C01
:102BF000236030BD30000020005000404C5C00409D
:102C000010B54A105300044A126892B202EBC00297
:102C1000121D024C135310BD505C00400060004078
:102C200010B502461048006880B200EBC200801D5B
:102C30000E4C03193E290BDD481101F01F040CB99D
:102C4000441EA0B24FF4004444EA80241C800AE0F1
:102C5000481001F001040CB1441CA0B24FF6FF74FF
:102C600004EA80241C8010BD505C004000600040DD
:102C700030B50E4C04EB8003D3F8003C4BF68F7458
:102C800003EA040201F480530BB182F4805201F490
:102C900000530BB182F4005242F4004343F080032E
:102CA000024D05EB8004C4F8003C30BD00500040EC
:102CB00010B50B4B03EB8002D2F8002C4BF68F7350
:102CC00002EA030181F4805181F4005141F4004291
:102CD00042F08002024C04EB8003C3F8002C10BDCC
:102CE0000050004010B54A105200044B1B689BB2C4
:102CF00003EBC003024C1A5310BD0000505C0040AF
:102D000000600040044A126892B202EBC002921CBA
:102D1000024BD15270470000505C00400060004000
:102D200030B50E4C04EB8003D3F8003C48F6BF747A
:102D300003EA040201F010030BB182F0100201F06B
:102D400020030BB182F0200242F4004343F08003E1
:102D5000024D05EB8004C4F8003C30BD005000403B
:102D600010B50B4B03EB8002D2F8002C48F6BF7372
:102D700002EA030181F0100181F0200141F40042D8
:102D800042F08002024C04EB8003C3F8002C10BD1B
:102D90000050004010B5074B03EB8002D2F8002C26
:102DA00048F68F131A400A43024C04EB8003C3F821
:102DB000002C10BD00500040014908607047000021
:102DC000445C00400CB50020019000902C48006845
:102DD00040F480302A49086000BF2948006800F4A8
:102DE000003000900198401C0190009818B901989B
:102DF000B0F5A04FF1D12248006800F4003010B1C6
:102E00000120009001E0002000900098012836D1B8
:102E100012201C4908601A48406819494860084651
:102E2000406848600846406840F480604860084652
:102E3000406820F47C1048600846406840F4E81080
:102E400048600846006840F08070086000BF0C4889
:102E5000006800F000700028F9D00948406820F0B0
:102E60000300074948600846406840F00200486097
:102E700000BF0348406800F00C000828F9D10CBDE1
:102E800000100240002002401CB501214804FFF759
:102E90009DFA4FF4C050009003208DF805000220E9
:102EA0008DF8040000208DF806008DF807006946B3
:102EB0004FF09040FEF7ECFD0E220B214FF09040BA
:102EC000FEF731FE0E220C214FF09040FEF72BFE54
:102ED0001CBD10B50020FFF7E5FD0121C805FFF777
:102EE00085FA10BD38B500242748006880B2001D5F
:102EF0002649405A0844009025480068007A09286D
:102F000032D0009800782249096808700098401C67
:102F10000090009800781E49096848700098401C8D
:102F20000090009800EB44000090009931F8020BEB
:102F30000091FDF737FF164909684880009800EBBB
:102F400044000090009931F8020B0091FDF72AFF30
:102F50000F4909688880009800EB440000900098B1
:102F600000880B490968C88001200949096808726E
:102F700007480068C08810B9FEF7BCFF01E0FEF703
:102F8000C3FAFFF793F838BD505C00400060004082
:102F9000100000202DE9F04754480068007800F048
:102FA0007F08B8F1000F0AD150480068407A00F05D
:102FB000DF004E49096848720020BDE8F087B8F18B
:102FC000020F7CD149480068408818B9474800681A
:102FD000007908B10220F0E7DFF814914348006857
:102FE000477927F080052C4640480068407900F07A
:102FF000800038B13F4901EB8400D0F8000C00F0AC
:10300000300606E03B4901EB8400D0F8000C00F4E8
:10301000405699F80000A84204D91EB13348006810
:10302000807A08B90220C8E707F0800080B13149F2
:1030300001EB8400D0F8000C00F0300010284BD1D8
:10304000E0B2FEF735F8E0B23021FFF769FE43E069
:10305000284901EB8400D0F8000C00F44050B0F592
:10306000805F39D1E4B9244A92F82C10E0B2FFF71E
:10307000D7FD204A02EB8401D1F8001C4BF68F7279
:1030800001EA020080F4805080F4005040F40041D6
:1030900041F08001174B03EB8402C2F8001C1BE0D7
:1030A000E0B2FDF7EBFF134A02EB8401D1F8001CFC
:1030B0004BF68F7201EA020080F4805000E011E0CC
:1030C00080F4005040F4004141F08001094B03EBD3
:1030D0008402C2F8001C00BF08490968486980479B
:1030E00000206AE700BF022067E700001000002010
:1030F0003000002000500040340000201C00002060
:1031000010B504462CB90120064909680882002040
:1031100010BD0549096808688047024800680A3000
:10312000F6E70000100000201C00002010B5024649
:1031300006480068438A32B98888C01A034C24685C
:103140002082002010BD08681844FBE71000002012
:1031500010B504462CB901200649096808820020F0
:1031600010BD0549096888688047024800680C302E
:10317000F6E70000100000201C00002010B50446F7
:103180002CB90220394909680882002010BD0020AE
:103190003749088035480068007800F07F0018BB88
:1031A00032490968487A00F0200131B13049097884
:1031B00041F002012E4A117005E02D49097801F015
:1031C000FD012B4A117000F0400131B12849097806
:1031D00041F00101264A117005E02549097801F006
:1031E000FE01234A11703AE020480068007800F0A0
:1031F0007F00012801D11E48C8E71C4800680078FC
:1032000000F07F00022828D1184A1268517901F095
:103210000F0001F080027AB1164B03EB8002D2F866
:10322000002C02F03002102A16D1114A127842F016
:1032300001020F4B1A700FE00E4B03EB8002D2F825
:10324000002C02F44052B2F5805F05D1084A127892
:1032500042F00102064B1A7001E0002096E7064991
:10326000096808698047024890E7000010000020C4
:1032700000000020005000401C00002010B50E4847
:103280000068C0780D494978884213DC0A48006814
:10329000807878B908480068808858B9064800687E
:1032A000C0780549096888720549096848688047F7
:1032B000002010BD0220FCE710000020300000209C
:1032C0001C00002010B507480068407A40F020003C
:1032D00004490968487204490968C86980470020A0
:1032E00010BD0000100000201C0000202DE9F0415E
:1032F0002E480068467926F080073C462B48006837
:10330000407900F0800038B1294901EB8400D0F801
:10331000000C00F0300506E0254901EB8400D0F8F0
:10332000000C00F4405523480078A04208D91F48FB
:103330000068408820B91DB11C480068807A10B927
:103340000220BDE8F08106F08000A0B1184A02EB2F
:103350008401D1F8001C48F6BF7201EA020080F037
:10336000100040F4004141F08001114B03EB840256
:10337000C2F8001C14E00E4A02EB8401D1F8001CD4
:103380004BF68F7201EA020080F4805040F4004155
:1033900041F08001064B03EB8402C2F8001C00BF21
:1033A00005490968886980470020CAE710000020A5
:1033B00000500040300000201C00002010B5174BCA
:1033C0001B68D978154B1B685879154B1B689A698F
:1033D0009047044611480068807AE8B13CB90F482C
:1033E0000068007918B90D480068807808B102209B
:1033F00010BD8CB90B490968C86880470748006848
:10340000407906490968C87204480068C0780349D1
:10341000096808730020EBE70220E9E710000020AC
:10342000140000201C00002010B50021204A126862
:1034300090B200BF09E01F4B03EB8102D2F8002CD1
:1034400092B21D4B43F82120491C0829F3D340F4C4
:103450008060174A106040F00100106020F0010009
:10346000106000BF124A121D126802F48062002A26
:10347000F8D04FF6FF320E4B1B1D1A60002109E0F9
:103480000D4A52F8212092B20A4C04EB8103C3F892
:10349000002C491C0829F3D340F00800044A1060AE
:1034A000126890B240F00400014A106010BD0000A4
:1034B000405C004000500040E001002070470000E8
:1034C00010B51B48006840F470001949086019489D
:1034D000006840F001001749086008464068164936
:1034E00008401449486008460068144908401149DA
:1034F00008600846006820F480200860084640689C
:1035000020F4FE0048600846C06A20F00F00C86240
:103510000846006B0A490840064908630020886095
:10352000FFF750FC4FF0006001498039086010BD82
:1035300088ED00E0001002400CC07FF8FFFFF6FEAF
:10354000CCFC00FF0EB50F4800F013F94F2001909E
:103550004720ADF800000020ADF80800ADF80200EB
:103560006946084800F00CF90121064800F0D0F83F
:103570000021044800F0C0F801221146014800F083
:10358000ECF80EBD0004004070B5002400250121B8
:10359000404800F0D1F800287BD001213D4800F0E0
:1035A000BBF800BF70E025B904203B49088508201E
:1035B0000885012D04D104203749886108208861DD
:1035C0004FF0A040FDF7C2FB3448FDF7BFFB344885
:1035D000FDF7BCFB3348FDF7B9FB1E20FEF7E1F811
:1035E00000240EE0304830F814003049304A127898
:1035F00001EBC211202202FB054221F81200601CDF
:10360000C4B2092CEEDB002410E02A4830F8141074
:103610002648274A127800EBC21204F10900202341
:1036200003FB050022F81010601CC4B2062CECDB72
:10363000002410E0204830F814101C481C4A12786E
:1036400000EBC21204F10F00202303FB050022F857
:103650001010601CC4B20A2CECDB002410E01748E8
:1036600030F814101148124A127800EBC21204F11B
:103670001900202303FB050022F81010601CC4B2BF
:10368000072CECDB681CC5B2022D8CDB01200C4939
:10369000087070BD00040040001000480001005098
:1036A0000004005000050050806A0020C06E002019
:1036B00048010020926A00209E6A0020B26A002021
:1036C0001E01002008B501210220FEF78FFE1D20FB
:1036D0008DF8000001208DF801008DF802008DF8B2
:1036E00003006846FEF7C4FB0121024800F014F80D
:1036F00008BD00000004004021B1028842F08002B1
:10370000028004E002884FF67F731A4002807047FF
:10371000CA4392B202617047CA4392B202617047D3
:1037200021B1028842F00102028004E002884FF6D3
:10373000FE731A400280704730B502460020002315
:103740000024156905EA0103D56805EA010413B1EF
:103750000CB1012000E0002030BD10B51AB1C368E3
:103760000B43C36004E0C368CC43A4B22340C360EE
:1037700010BD81684FF6F8721140816070470000FB
:10378000002202881E4B98420ED01E4B98420BD04E
:10379000B0F1804F08D01C4B984205D01B4B98428B
:1037A00002D01B4B984204D14FF68F731A404B88BE
:1037B0001A43184B984207D0174B984204D04FF643
:1037C000FF431A400B891A4302804B68C3620B887F
:1037D00003850B4B98420ED00A4B98420BD00F4BEF
:1037E000984208D00E4B984205D00E4B984202D01A
:1037F000074B984201D14B890386012343617047EF
:10380000002C01400034014000040040000800404A
:1038100000500140001000400014004000400140F2
:10382000004401400048014010B52B4800683F218A
:1038300090FBF1F029490880274800683F2190FB60
:10384000F1F201FB12002649088003202549088077
:10385000AA202549087020480068082835DD23483B
:103860000088002831DD00202149088013E000BFD6
:103870000120FEF7A7F92028FAD11D490988C1EBDC
:103880008111194A88183F21FDF79EFA18480088CF
:10389000401C17490880164800881049098888424A
:1038A000E5DB0F48008800280FDD00BF0120FEF790
:1038B00089F92028FAD10A4A1178084A1288C2EBFD
:1038C0008212094BD018FDF77FFA012002490860E7
:1038D00000200649088010BD780100205601002014
:1038E000580100208C010020900200206601002079
:1038F0005A01002010B51220FDF7A2FF10BD0000F4
:1039000010B508480849086002200968087207488D
:1039100007490860074808490860054909680868B8
:10392000804710BDC401002010000020340000209A
:1039300014000020640000201C00002008B54FF493
:10394000A060FEF7CDFA14208DF8000002208DF85B
:10395000010000208DF8020001208DF80300684668
:10396000FEF786FA2A208DF8000001208DF801006C
:103970006846FEF77DFA08BD10B588B00024684897
:103980000068684908800846008800F400706649AD
:103990000988084040B14FF6FF506149086063480C
:1039A0000078401C614908705E48008800F40040BF
:1039B0005D490988084008B1FDF71CFA594800889C
:1039C00000F4806058490988084030B14FF6FF3054
:1039D000534908605649486880475248008800F4B7
:1039E000005051490988084018B14DF6FF704C4904
:1039F00008604C48008800F480504B490988084012
:103A000030B14EF6FF70464908600020FFF750F8CD
:103A10004448008800F4006043490988084060B1C8
:103A20004448007810B1FFF7FFFC02E00220FFF7E6
:103A30003FF84FF2FF703A4908603A48008800F4B6
:103A40008070394909880840002866D04FF6FF6029
:103A500033490860081D006800F40040002856D073
:103A600035480068401C344908600846006803284F
:103A700050D92B48001F006800F00800002849D1E9
:103A80002748001F006880B22C490860002408E025
:103A90002B4901EB8400D0F8000C80B24DF82400D3
:103AA000641C082CF4D32548006840F00100234929
:103AB00008600846006880B21949091F08601F485D
:103AC000006820F001001D4908600846006880B2C7
:103AD0001349091F086000BF1148006800F48060A6
:103AE0000028F9D04FF6FF300D490860002408E0A7
:103AF0005DF8240080B2124A02EB8401C1F8000C88
:103B0000641C082CF4D300200B49086002E000205C
:103B1000094908600720FEF7CBFF08B010BD000080
:103B2000445C0040D80000201A000020DA00002089
:103B30003400002024010020DC000020E0000020F0
:103B40000050004010B5FFF717FFFDF731F910BD29
:103B50000020064908604FF43F40054908800846A8
:103B600000880249091F086000207047445C00403B
:103B70001A00002000BFFEE770B5561C7510064EF7
:103B80008C192B4605E030F8016B24F8026B401CC1
:103B90005B1E002BF7D170BD0060004070B504467D
:103BA0000025212C08D112480068007800F07F0021
:103BB00021280ED10F4D0CE0202C0AD10C480068B2
:103BC000007800F07F00212800D10B4D20200B4908
:103BD00008700DB9022070BD05480068856100219C
:103BE0000348006841820020A8470020F3E7000056
:103BF00010000020293C0008B93D000824000020E6
:103C000010B5044602492046FFF790FA10BD0000A7
:103C10009000002010B5044602492046FFF786FABE
:103C200010BD000088000020014629B90820034A81
:103C300012681082002070470148FCE71000002045
:103C40002800002070B5054606480068C478042C9A
:103C500001DB002070BD044800EBC4012846FFF7DB
:103C600065FAF7E7100000209800002002460029BE
:103C700001DD02207047012A01DD0220FAE7002061
:103C8000F8E70000014608480068007800F07F006F
:103C9000212807D1022901D100207047222901D112
:103CA0000020FAE70220F8E71000002010B50020FD
:103CB0003449096888723448C079324909684872C1
:103CC000002030490968C872FEF76AFF4FF400719E
:103CD0000020FFF75FF810210020FFF721F84021B6
:103CE0000020FEF78DFF80210020FEF7FBFF002063
:103CF000FDF7F8F9254890F82C100020FEF790FF0A
:103D00000020FEF7D5FF00210120FFF743F8C02176
:103D10000120FEF7E7FF20210120FFF701F8002135
:103D20000120FEF7A5FF4FF4C0610220FFF732F833
:103D30004FF480710220FEF7D5FF00210220FEF72C
:103D400097FF20210220FEF7EBFF00210320FFF761
:103D500021F84FF488710320FEF752FF4021032021
:103D6000FEF75EFF4FF440510320FEF781FF002174
:103D70000320FEF7D5FF0020FEF71AFF01200449BB
:103D8000086010BD1000002022440008340000200C
:103D9000200100200348817A11B10521024A1160F7
:103DA00070470000C40100202001002004200149C8
:103DB0000860704720010020014629B90820034A05
:103DC00012681082002070470148FCE710000020B4
:103DD0002800002003480078202802D10020014953
:103DE00008707047240000207047000010B5FDF7F0
:103DF000F5FE0020054909688872FEF77BF9FFF798
:103E0000A7FE00200249086010BD0000100000203D
:103E10002001002002E008C8121F08C1002AFAD1C0
:103E200070477047002001E001C1121F002AFBD13A
:103E300070472DE9F041044600260025FDF780FD7E
:103E400001272520FDF70AFD25882520FDF706FD21
:103E5000FDF74AFD2846BDE8F0812DE9F041054611
:103E60000E460024B046FDF76BFD01272520FDF727
:103E7000F5FC2846FDF7F8FC0746042F0CD1012776
:103E800000BF07E038F8141005EB4400FDF736FDDD
:103E90000746641C032CF5DB01272520FDF7DEFC1B
:103EA000FDF722FDBDE8F0812DED0A8B98B00024CE
:103EB000002500270026A046FEF7C8FAFDF766FD9C
:103EC000FEF7E2FFFFF705F801214807FEF79EFA2B
:103ED00000214FF00050FEF799FAFDF725F9FCF7A5
:103EE00081FBFFF72BFDFFF70BFD42F21070FDF792
:103EF00058FCFDF75DFCFFF7E5FBFFF723FB012016
:103F0000FDF74FFCFE48FFF794FF4FF6FF71884224
:103F100003D1FC49FA48FFF7A0FF01A8FEF7D6FA43
:103F20006CE2F9480078AA2873D101250027002007
:103F3000F549087015E0F448405D552809D1F2496B
:103F4000681C085C80F02000F049C855A81CC5B268
:103F500005E0ED48405DED49C855681CC5B2781CC8
:103F6000C7B2EB4800688542E5D3E84880788028EE
:103F70007ED1E648C078E549097940EA0120E54963
:103F80000880E2484079E149897940EA0120E24924
:103F90000880DE48C079E1490870DC48007AE049D1
:103FA0000870DA48407AD949897A40EA0120DD4927
:103FB0000880D648C07ADC490870D7480088D149C3
:103FC0000880D44800884880D74800788880CC484A
:103FD000FFF743FFAA20D54908700E204870002043
:103FE00088708020C870042406E0601EC749085C01
:103FF000CE490855601CC4B20D2CF6DB0020CB491D
:1040000048730A2088730020C873012008740124B3
:1040100009E0D7E0C548005DC54909780844C449AE
:104020000870601CC4B2112CF4DBC1480078BF4991
:10403000487400208874BE49087001242AE0BB48F7
:10404000005DAA2803D0B948005D552815D1552038
:10405000B849B94A12788854B448005D80F020010C
:10406000B44AB5480078401C1154B348007800E0C9
:1040700025E0801CB04908700AE0AC48005DAD49FD
:10408000AD4A12788854AC480078401CAA490870A0
:10409000601CC4B2132CD2DBAA20A649087000BF52
:1040A0000120FDF78FFD2028FAD1A3480178A1480F
:1040B000FCF78AFE0120A0490870A04908809348B7
:1040C000807881287ED18E480088934908808C486A
:1040D000801C00888F4908808948001D007892491B
:1040E0000870AA20964908700E2048700020887039
:1040F0008120C87087480078087186480088000AC7
:10410000487185480078887183480088000AC87122
:1041100082480078087282480078487281480078A6
:10412000887280480088000AC8727F480078087347
:10413000002048730A2088730020C8730120087487
:10414000012404E07E48005D8044601CC4B2112C50
:10415000F8DB7B4981F811804FEA182088744FF012
:104160000008012428E07648005DAA2803D074489E
:10417000005D552813D155207249734A127888542E
:104180006F48005D80F020016E4A6F480078401C47
:1041900011546D480078801C674908700AE068482F
:1041A000015D6848684A1278815467480078401C6D
:1041B00065490870601CC4B2132CD4DBAA20614985
:1041C000087000E00DE000BF0120FDF7FBFC202897
:1041D000FAD15D4801785B48FCF7F6FD01205A49A9
:1041E000087056480088012855D10020534908809E
:1041F0000120564908600820554908801020088091
:104200002020088040200880082050491031088074
:1042100001200880022008800420088001204D49E8
:1042200008804A49086040480078FCF7AAF841EC49
:104230001C0B9FED490B53EC102BFBF7C1FF41EC1E
:104240001B0B9FED470B53EC102BFBF7B9FF41EC19
:104250001A0B9FED450B53EC102BFCF723F841ECA8
:10426000190B9FED430B53EC102BFBF7A9FF41EC0F
:10427000180BFCF793F81FFA80F94A4600213E48D4
:10428000FCF789FF012200213B48FCF790FF012148
:104290003A48FFF745FA3A48007801287AD1394878
:1042A0000088401C37490880FDF70CFD0020344988
:1042B00008703448008840286CD100212F48FFF74F
:1042C0002FFA00247DE0002677E01248008800EEF7
:1042D000100AB8EE400ADFED2C0A20EE200A9FED0E
:1042E0002B1AC0EE010A2A4800EBC41030F8160061
:1042F00000EE100AB8EE400A60EE800A0A484AE072
:1043000000F8030872010020C08E00207002002017
:10431000B8000020860100208801002082010020D2
:10432000830100208A010020840100203002002047
:1043300030010020606A0020910100204E01002021
:1043400050020020406A002092010020180C004812
:10435000280400484A010020000000000000E03F5F
:104360009A9999999999B93F6666666666660A4010
:10437000000000000000B040007400400004004055
:104380001E0100204801002000006D4300401C4633
:10439000C06E002032E0007800EE100AB8EE400A4D
:1043A00080EE801ABCEEC10A10EE100A144901EB2F
:1043B000C41121F81600701CC6B2402E85DB601CAB
:1043C000C4B2402CFFF67FAF00200E4908800120C8
:1043D0000D490880022008800420088008200880F9
:1043E000FDF7ACFEFFF720FAFCF7C4FC01200649FC
:1043F0001039086001210548FFF792F991E50000A6
:10440000C06E002048010020280C00480004004035
:10441000120100020202024083044057000201021E
:10442000030109024300020100C032090400000137
:1044300002020100052400100105240100010424EA
:1044400002020524060001070582030800FF090493
:104450000100020A000000070503024000000705F2
:104460008102400000040309042603530054004D58
:10447000006900630072006F0065006C00650063F6
:1044800000740072006F006E0069006300730032F8
:1044900003530054004D00330032002000560069E1
:1044A0000072007400750061006C00200043004F32
:1044B000004D00200050006F0072007400200020AA
:1044C00000000000E444000800000020C4010000D7
:1044D000EA04000894450008C40100201C91000073
:1044E000243E0008012933C20112081A040713ED03
:1044F0003D1408AD3C1B08D5081AE904139D3B1B6D
:104500000885101A6D041A15041A01041A4504418D
:104510003240136F1E1B08952829080912041AAD92
:104520001C1310443308121A220832431A65083249
:10453000041A690832261A8F08323222BC73201AF4
:10454000141A03531254124D1233291A011A0B185C
:1045500005187C69040A1111248129FAC109141073
:10456000A906011C3A0A0289284B404012213A034D
:104570004159482C020304041606070809011202D7
:1045800012041A0691120A120C1210122012409AEA
:04459000806B00003C
:040000050800018965
:00000001FF
