:020000040800F2
:1000000060EF00209D0100081F34000869330008DC
:100010001B34000821230008AD4E0008000000003A
:10002000000000000000000000000000613F000828
:100030003D2D0008000000005D36000881480008E2
:10004000B7010008B7010008B7010008B7010008B0
:10005000B7010008B7010008B7010008B7010008A0
:10006000B7010008B7010008B7010008B701000890
:10007000B7010008B7010008B7010008B701000880
:10008000B7010008B7010008B7010008B701000870
:100090007D4E0008B7010008B7010008B70100084D
:1000A000B7010008B7010008B7010008B701000850
:1000B000B701000851490008B7010008B70100085E
:1000C000B7010008B7010008B7010008B701000830
:1000D000B7010008B7010008B7010008B701000820
:1000E000B7010008B70100082D4C0008B70100084F
:1000F000B7010008B7010008B7010008B701000800
:10010000000000000000000000000000B70100082F
:10011000B7010008B7010008B7010008B7010008DF
:10012000B7010008B7010008B7010008B7010008CF
:10013000B7010008B701000800000000000000003F
:10014000B7010008B7010008B7010008000000006F
:10015000000000000000000000000000000000009F
:100160000000000000000000B7010008B70100080F
:10017000B7010008000000000000000000000000BF
:1001800000000000B7010008DFF80CD000F094FA7E
:10019000004800473565000860EF002006488047AA
:1001A00006480047FEE7FEE7FEE7FEE7FEE7FEE75C
:1001B000FEE7FEE7FEE7FEE7854800088901000844
:1001C0002DE9FE4F804681EA0300C00F0C460090E7
:1001D00021F0004123F00045B8EB0200A94105D20F
:1001E0004046214690461C460B46024623F00040FE
:1001F000104347D0270DC7F30A00C3F30A510290FA
:10020000401A019040286BDAC3F3130040F4801BBE
:100210000098924620B10023D2EB030A63EB0B0B4C
:1002200001985946C0F14002504600F016F90646C2
:100230000D4650465946019A00F02EF910EB080081
:100240006141002487EA115284EAE7731A4340D0DF
:10025000009A62B3019A012A4FEA075215DC001B8B
:1002600061EB02014FF0004202EA0752CDE9004281
:10027000001C41F5801132462B4600F02EF903B0E8
:10028000BDE8F08F40462146F9E7001B61EB020113
:10029000001C41F5801300185B412018A2F50017DF
:1002A00047EB030140EAD570B6196D4111E06D08C6
:1002B0004FEA360645EAC0754FEA0752001B61EB6C
:1002C0000201001C41F5801149084FEA3000001975
:1002D000514132462B4603B0BDE8F04F00F0EEB876
:1002E0000098012240000023D0EB020263EBE07390
:1002F000009821464FEAE074B8EB000061EB04017E
:10030000E9E783F000435BE781F0004158E72DE91E
:10031000F04D81EA030404F0004B21F0004514463F
:100320004FF0000A23F0004150EA050220D054EAC1
:1003300001021DD0C5F30A570246C5F31303C1F3EA
:100340001300C1F30A5640F4801543F48013A7EB61
:100350000608101BD64608F2FD3873EB050002D3E1
:1003600008F1010801E092185B41B8F1000F03DACF
:1003700000200146BDE8F08D00204FF480110646B4
:1003800084460EE0171B73EB050705D3121B63EBC6
:10039000050306434CEA010C49084FEA3000921865
:1003A0005B4150EA0107EDD152EA030012D082EA24
:1003B000040083EA0501084305D0101BAB4106D2B7
:1003C0000122002306E000224FF0004302E06FF01C
:1003D000010253101AEB06004CEB085110EB0A0017
:1003E00041EB0B01BDE8F04D00F068B80EB5C10F50
:1003F00080EAE0700844CA07002140F233438DE8E8
:100400000E000A460B4600F068F803B000BD0EB5BA
:1004100040F2334102910021CDE900110A460B461A
:1004200000F05BF803B000BDC1F30A5210B5C1F390
:10043000130140F2FF3341F480119A4201DA0020A7
:1004400010BD40F233439A42A2F2334203DC5242DF
:1004500000F012F810BD904010BD202A04DB203AB5
:1004600000FA02F1002070479140C2F1200320FA07
:1004700003F3194390407047202A04DB203A21FA05
:1004800002F00021704721FA02F3D040C2F12002AD
:100490009140084319467047202A06DBCB17203AC3
:1004A00041FA02F043EAE07306E041FA02F3D04079
:1004B000C2F12002914008431946704710B5141E3E
:1004C00073F1000408DA401C41F1000192185B410D
:1004D0001A4301D120F0010010BD2DE9F04D9246E4
:1004E0009B4611B1B1FA81F202E0B0FA80F22032FB
:1004F0009046FFF7B2FF04460F4640EA0A0041EA81
:100500000B0153465A46084313D0114653EA0100E3
:1005100019D0C8F140025046FFF7AEFF05460E461F
:10052000504659464246FFF798FF084305D0012040
:1005300004E020463946BDE8F08D0020054346EA38
:10054000E0762C4337430A986305E40AA0EB0800E1
:100550000022FD0A44EA47540A3002D50020014631
:10056000E9E7010510196941DDE90845001969410C
:10057000BDE8F04DA2E72DE9FE4F81EA030404F047
:10058000004421F0004100944FF0000B23F00043A1
:1005900050EA01045ED052EA03045BD0C3F30A546C
:1005A000C1F30A552C44A4F2F3340194A0FB025485
:1005B000C1F3130141F48011C3F3130343F4801317
:1005C00001FB024400FB034E840A970A44EA81546B
:1005D00047EA8357A4FB076802958D0A05FB078548
:1005E0004FEA932C04FB0C542705029D4FEA065852
:1005F00047EA1637B5EB08056EEB070C870E920E2F
:1006000047EA811742EA8312A7FB0201B6EB0B010E
:1006100064EB00042B0D43EA0C335E1844EB1C50D2
:10062000DA465146E7FB0201C5F313044FEA0B33E8
:1006300043EA14534FEA0432019C43EA0603A4F14F
:100640000C040294009CCDE900B4FFF746FF03B010
:10065000BDE8F08F00200146F9E770B521F00043B6
:1006600003430CD0C1F30A550024D5EB040564EB19
:100670000403D617AD1AB34102DB0020014670BD5A
:10068000201841EB025170BD30B5041E71F1000419
:1006900004DB4FF00044404264EB0101141E73F18F
:1006A000000405DB1C464FF00043524263EB040399
:1006B000994208BF904230BD064C074D06E0E06805
:1006C00040F0010394E8070098471034AC42F6D399
:1006D000FFF75EFDE0840008008500082DE9F04D7D
:1006E00000231A461B1A8A4103DB00200146BDE89D
:1006F000F08DC1F30A52C1F3130141F480154FF09C
:10070000000BD10702D100186D41521E002704468C
:1007100040F2FF11384601EB620A3E46804602462F
:1007200000204FF48011FFF7A7FEC2197141BB18DA
:1007300046EB0100B4EB030C75EB000C04D3E41A98
:1007400065EB000517460E46241908F101006D41BE
:1007500080463428E3DDF91946EB0600091BA84161
:1007600003D24FF0FF32134601E0002213461BEB89
:10077000070046EB0A51BDE8F04DFFF79FBE70B58C
:100780008C1810F8015B15F0070301D110F8013B3C
:100790002A1106D110F8012B03E010F8016B01F8C3
:1007A000016B5B1EF9D12B0705D40023521E0DD41B
:1007B00001F8013BFAE710F8013BCB1A921C03E069
:1007C00013F8015B01F8015B521EF9D5A142D8D3A1
:1007D000002070BD21B1826842F00102826003E016
:1007E000826842F0020282607047000010B5002269
:1007F000B0F1A04F02D0124B984204D1114B1A68AD
:10080000114B1A4003E0114B1A680F4B1A40D1E903
:10081000003423438C682343CC6843EA04330C7CC4
:1008200043EA04231A43B0F1A04F02D0044B98428C
:1008300002D1044B1A6001E0044B1A6010BD0000A5
:100840000001005008030050E010FCFF08070050B2
:1008500021B1C26842F00102C26003E0C26822F026
:100860000102C2607047C26822F00202C260C26820
:100870000A43C26070470000F0B59BB00024002519
:1008800000260027FE4801F07DFFFE4801F07AFFB8
:10089000FC48503001F076FFFA48143001F072FF46
:1008A000F9481090F9481190002012900920ADF8F5
:1008B0004C0000201490802015904000169080007D
:1008C0001790202018900002199000201A9010A96B
:1008D000EB4801F0FDFF0121E94801F046FFEC483B
:1008E0001090EC481190002012900620ADF84C00BA
:1008F00000201490802015904000169080001790E2
:10090000202018900002199000201A9010A9DD48AC
:1009100001F0DEFF0121DB4801F027FFDE481090E7
:10092000DE481190002012900A20ADF84C00002003
:100930001490802015904000169080001790202081
:1009400018900002199000201A9010A9CD4850303C
:1009500001F0BEFF0121CB48503001F006FFD04826
:100960001090D0481190002012900720ADF84C0054
:100970000020149080201590400016908000179061
:10098000202018900002199000201A9010A9BD484C
:10099000143001F09DFF0121BA48143001F0E5FE4A
:1009A000EF20019003208DF8080000208DF80B0047
:1009B00001A94FF0904002F017FC4DF6070001909E
:1009C00003208DF8080000208DF80B0001A9B6481F
:1009D00002F00AFC3F20019003208DF8080000205F
:1009E0008DF80B0001A9B14802F0FEFB4FF47060D6
:1009F000019003208DF8080000208DF80B0001A95C
:100A0000AB4802F0F1FB4FF68070019003208DF8A7
:100A1000080000208DF80B0001A9A64802F0E4FBB5
:100A20000420019003208DF8080000208DF80B00B1
:100A300001A9A14802F0D8FB01214FF0A04000F02D
:100A4000CAFA01219248403800F0C5FA01219248C3
:100A5000403800F0C0FA01219148403800F0BBFA5C
:100A600000214FF0A04000F0A4FA4FF0A04000F0A9
:100A7000A8FA00BF4FF0A04000F0E6F90028F9D135
:100A80004FF0A04000F0EAF90446002180484038C9
:100A900000F08FFA7E48403800F093FA00BF7C489F
:100AA000403800F0D1F90028F9D17948403800F0F9
:100AB000D5F9054600217848403800F07AFA7648A2
:100AC000403800F07EFA00BF7348403800F0BCF9AF
:100AD0000028F9D17048403800F0C0F906460021DE
:100AE0006F48403800F065FA6D48403800F069FA08
:100AF00000BF6B48403800F0A7F90028F9D16848DA
:100B0000403800F0ABF9074600200B904FF400305E
:100B10000C9000200D9002200E908DF83C000BA947
:100B20004FF0A040FFF762FE0BA959484038FFF78D
:100B30005DFE0BA958484038FFF758FE0BA95848EE
:100B40004038FFF753FE0020039004900690079072
:100B50000890099009208DF8280003A94FF0A040C3
:100B600000F08AF900200390049006900790089006
:100B7000099006208DF8280003A94548403800F068
:100B80007BF900200390049006900790089009904C
:100B90000A208DF8280003A93F48403800F06CF97E
:100BA0000020039004900690079008900990072079
:100BB0008DF8280003A93A48403800F05DF9032376
:100BC000012206214FF0A04000F076F90323022213
:100BD00007214FF0A04000F06FF903231A460821C7
:100BE0004FF0A04000F068F90323042209214FF0E0
:100BF000A04000F061F9032305220A21C80600F095
:100C00005BF90323062201214FF0A04000F054F9C4
:100C10000323072202214FF0A04000F04DF90323E7
:100C2000082219464FF0A04000F046F9032309229C
:100C300004214FF0A04000F03FF9032301220221DC
:100C40001348403800F038F90323022219461048AF
:100C5000403800F031F903231A4604210C4840388B
:100C600000F02AF90323042205210948403800F046
:100C700023F9032305220B21054840381EE000001C
:100C8000080002400804024040000050ECA100208F
:100C900040010050FEA10020400400500AA20020A4
:100CA000400500501EA20020000400480008004833
:100CB000000C0048001000480014004800F0FCF848
:100CC000032306220C215D4800F0F6F803230122DD
:100CD00007215B4800F0F0F8032302220C2158485A
:100CE00000F0EAF803231A460121554800F0E4F821
:100CF000032304220D21524800F0DEF803230522CD
:100D000006214F4800F0D8F80323062202214C4860
:100D100000F0D2F8032307220E21494800F0CCF856
:100D2000032308220F21464800F0C6F803230922B6
:100D30001021434800F0C0F803230A221946404816
:100D400000F0BAF80323012211463E4800F0B4F83F
:100D50000323022211463B4800F0AEF803231A4653
:100D60001946384800F0A8F8032304220D2135481D
:100D700000F0A2F8032305220421324800F09CF879
:100D80000323062205212F4800F096F803230722AB
:100D90000C212C4800F090F801214FF0A040FFF703
:100DA00019FD01212548FFF715FD01212448FFF712
:100DB00011FD01212348FFF70DFD00BF01214FF078
:100DC000A04000F04FF80028F8D000BF01211B48D8
:100DD00000F048F80028F9D000BF0121184800F0C1
:100DE00041F80028F9D000BF0121164800F03AF878
:100DF0000028F9D001214FF0A040FFF729FD012183
:100E00000E48FFF725FD01210D48FFF721FD0121C7
:100E10000C48FFF71DFD02214FF0A040FFF723FD16
:100E200002210648FFF71FFD02210548FFF71BFDC1
:100E300002210448FFF717FD1BB0F0BD0001005070
:100E40000004005000050050014600208A6802F0AE
:100E500000420AB1012000E0002070470146D1F8AD
:100E6000B40070470246002013680B400BB101200C
:100E700000E000207047000010B502460020D06856
:100E80000C4B1840D1E9003423438C682343CC68D1
:100E900023430C6923434C6923438C692343184340
:100EA000D060106B20F00F000B7F5B1E18431063A7
:100EB00010BD000007C0FFFDF0B50C461D4600BF89
:100EC00000BF052A0FDA016B02EB420677001F26EE
:100ED00006FA07F3994302EB4206760004FA06F39A
:100EE000194301633CE00A2A11DA416B561F06EBF5
:100EF000460677001F2606FA07F39943561F06EBAE
:100F00004606760004FA06F31943416328E00F2AE7
:100F100013DA816BA2F10A0606EB460677001F265C
:100F200006FA07F39943A2F10A0606EB4606760095
:100F300004FA06F31943816312E0C16BA2F10F06B4
:100F400006EB460677001F2606FA07F39943A2F13F
:100F50000F0606EB4606760004FA06F31943C16352
:100F6000092C14DD8169A4F10A0606EB4607072661
:100F700006FA07F386699E4386618669A4F10A072B
:100F800007EB470705FA07F73E43866110E0416922
:100F9000661E06EB4607382606FA07F346699E43A7
:100FA0004661466904EB440705FA07F73E4346618C
:100FB000F0BD826822F08042826082680A438260CB
:100FC0007047816841F0004181607047816841F05D
:100FD000040181607047826822F04052826021B132
:100FE000826842F08052826003E0826842F00052E0
:100FF000826070472DE9F80FC04B4FF0010C4FF0A5
:101000000508C3F808C0D3F808C0D3F800C0CDF86D
:1010100000C01CF1010C0AD04368D2F804C000687B
:1010200083EA0C07136880EA030C63460FE0DDF8DF
:1010300000C0C3F800C01B68009353B14368D2F8E6
:1010400004C0006883EA0C07136843409C4664466A
:101050000FE00368D2F800C0946883EA0C07436885
:10106000D2F804C083EA0C0C8368C0686340D4687B
:101070004440A3483D0E04F0FF0950F82560CCF32E
:10108000074550F8299050F8255007F0FF0A86EAE6
:101090003525C3F3072650F82AA050F826600CF037
:1010A000FF0B4FEA364686EA396675401669C3F388
:1010B00007496E404FEA1C6550F8299050F82550BA
:1010C000CCF3072C85EA3925C4F3072950F82CC046
:1010D00050F8299050F82BB04FEA394989EA3A691B
:1010E00085EA0905D2F81490C4F3074A85EA090590
:1010F0004FEA136950F82AA050F82990240E89EA83
:101100003A29C7F3072AC7F30747DBB250F82AA0EA
:1011100050F8244050F8277050F823304FEA3A4AEC
:101120004FEA3C4C8AEA3B6A84EA37248CEA336310
:1011300089EA0A0984EA030CD2F818A0D36920329C
:10114000A8F1010889EA0A098CEA0304B8F1000F42
:1011500069DD330EC5F3074C50F8233050F82CC02E
:10116000E7B283EA3C23C9F3072C50F8277050F804
:101170002CC006F0FF0A4FEA3C4C8CEA376C83EA3D
:101180000C03D2F800C050F82AA083EA0C072B0EFB
:10119000C9F3074C50F8233050F82CC005F0FF0B72
:1011A00083EA3C23C4F3072CC5F3072550F82CC071
:1011B00050F825504FEA3C4C8CEA3A6C83EA0C0319
:1011C000D2F804C0C4F3074A83EA0C0C4FEA19634F
:1011D00050F82AA050F82330240E83EA3A23C6F3AD
:1011E000072AC6F3074650F8244050F8266050F806
:1011F0002AA084EA362409F0FF0650F82BB050F8F4
:1012000026604FEA3A4A4FEA35458AEA3B6A85EA60
:10121000366583EA0A036C40D2F808A0D56883EAF1
:101220000A036C4026E7374850FA84F300EB166C4B
:101230001B789CF800C0C9F3072743EA0C63C5F389
:10124000074CC75D10F80CC04FEA0C4C4CEA072C59
:1012500043EA0C03D2F800C083EA0C030B6050FA97
:1012600086F300EB156C1B789CF800C0C4F30727CD
:1012700043EA0C63C9F3074CC75D10F80CC04FEA92
:101280000C4C4CEA072C43EA0C03D2F804C083EA66
:101290000C034B6050FA85F300EB196C1B789CF83B
:1012A00000C0C6F3072743EA0C6CC4F30743C75DCD
:1012B000C35C1B0443EA07234CEA0303D2F808C0CB
:1012C00083EA0C038B6050FA89F300EB146C1B78F3
:1012D0009CF800C0C5F3072443EA0C63C6F3074C2F
:1012E000D26810F80CC0005D4FEA0C4C4CEA0020AC
:1012F00018435040C860BDE8F80F70470030024006
:10130000DC6E0008B46C00082DE9F04105460C467F
:1013100000F094F82868206068686060A868A060A1
:10132000E868E0604448012600F5C5611034D4E95E
:1013300000C300EB1C67CCF307483F7810F8088027
:1013400051F8277051F8288087EA3827CCF307280E
:1013500010F8088051F828804FEA384850FA8CFC81
:101360009CF800C0D4E9022551F82CC088EA3C6CF6
:1013700087EA0C0CC4F800C000EB136CC3F30747FA
:101380009CF800C0C75D51F82CC051F827708CEA5A
:10139000372CC3F30727C75D51F827704FEA37474B
:1013A00050FA83F31B7851F8233087EA33638CEAD1
:1013B0000303636000EB1263C2F3074C1B7810F861
:1013C0000CC051F8233051F82CC083EA3C23C2F3FF
:1013D000072C10F80CC051F82CC04FEA3C4C50FAC6
:1013E00082F2127851F822208CEA32625A40A260CE
:1013F00000EB1562C5F307431278C35C51F8222055
:1014000051F8233082EA3322C5F30723C35C51F835
:1014100023304FEA334350FA85FC9CF800C0761C19
:1014200051F82CC083EA3C635A40E2600A2EFFF672
:101430007DAFBDE8F0810000B46C00082DE9F00339
:10144000D0E900C38268C068184CC1E90220E1E815
:1014500004C30A26A4F5007505EB1067C0F307481E
:101460003F7815F8088047EA0867C0F3072815F8A1
:1014700008804FEA084855FA80F999F8009048EA40
:10148000092847EA080787EA0C0C54F8047B8CEA21
:10149000070C83EA0C035A405040C1E90220E1E8FE
:1014A00004C3761ED8D1BDE8F0037047B46E0008BF
:1014B0002DE9F80FC04B4FF0010C4FF00608C3F8B0
:1014C00008C0D3F808C0D3F800C0CDF800C01CF1A4
:1014D000010C0AD04368D2F804C0006883EA0C0704
:1014E000136880EA030C63460FE0DDF800C0C3F820
:1014F00000C01B68009353B14368D2F804C0006871
:1015000083EA0C07136843409C4664460FE0036877
:10151000D2F800C0946883EA0C074368D2F804C08C
:1015200083EA0C0C8368C0686340D4684440A348D5
:101530003D0E04F0FF0950F82560CCF3074550F844
:10154000299050F8255007F0FF0A86EA3525C3F3A5
:10155000072650F82AA050F826600CF0FF0B4FEA3F
:10156000364686EA396675401669C3F307496E4008
:101570004FEA1C6550F8299050F82550CCF3072C01
:1015800085EA3925C4F3072950F82CC050F8299072
:1015900050F82BB04FEA394989EA3A6985EA0905DA
:1015A000D2F81490C4F3074A85EA09054FEA136993
:1015B00050F82AA050F82990240E89EA3A29C7F356
:1015C000072AC7F30747DBB250F82AA050F8244097
:1015D00050F8277050F823304FEA3A4A4FEA3C4C13
:1015E0008AEA3B6A84EA37248CEA336389EA0A0987
:1015F00084EA030CD2F818A0D3692032A8F10108BC
:1016000089EA0A098CEA0304B8F1000F69DD330E98
:10161000C5F3074C50F8233050F82CC0E7B283EAEA
:101620003C23C9F3072C50F8277050F82CC006F063
:10163000FF0A4FEA3C4C8CEA376C83EA0C03D2F881
:1016400000C050F82AA083EA0C072B0EC9F3074C00
:1016500050F8233050F82CC005F0FF0B83EA3C23F0
:10166000C4F3072CC5F3072550F82CC050F82550BB
:101670004FEA3C4C8CEA3A6C83EA0C03D2F804C083
:10168000C4F3074A83EA0C0C4FEA196350F82AA006
:1016900050F82330240E83EA3A23C6F3072AC6F310
:1016A000074650F8244050F8266050F82AA084EAF3
:1016B000362409F0FF0650F82BB050F826604FEAA8
:1016C0003A4A4FEA35458AEA3B6A85EA366583EA53
:1016D0000A036C40D2F808A0D56883EA0A036C407C
:1016E00026E7374850FA84F300EB166C1B789CF819
:1016F00000C0C9F3072743EA0C63C5F3074CC75D75
:1017000010F80CC04FEA0C4C4CEA072C43EA0C03CF
:10171000D2F800C083EA0C030B6050FA86F300EBAA
:10172000156C1B789CF800C0C4F3072743EA0C63D0
:10173000C9F3074CC75D10F80CC04FEA0C4C4CEADB
:10174000072C43EA0C03D2F804C083EA0C034B6075
:1017500050FA85F300EB196C1B789CF800C0C6F3B7
:10176000072743EA0C6CC4F30743C75DC35C1B0443
:1017700043EA07234CEA0303D2F808C083EA0C03C8
:101780008B6050FA89F300EB146C1B789CF800C056
:10179000C5F3072443EA0C63C6F3074CD26810F87C
:1017A0000CC0005D4FEA0C4C4CEA0020184350403E
:1017B000C860BDE8F80F704700300240DC6E0008DA
:1017C000B46C00082DE9F0410C4600F08BF8444859
:1017D000012600F5C5621034D4E900C300EB1C6794
:1017E000CCF307483F7810F8088052F8277052F879
:1017F000288087EA3827CCF3072810F8088052F8A9
:1018000028804FEA384850FA8CFC9CF800C0D4E994
:10181000021552F82CC088EA3C6C87EA0C0CC4F81C
:1018200000C000EB136CC3F307479CF800C0C75D12
:1018300052F82CC052F827708CEA372CC3F30727D4
:10184000C75D52F827704FEA374750FA83F31B7889
:1018500052F8233087EA33638CEA0303636000EBBA
:101860001163C1F3074C1B7810F80CC052F82330F9
:1018700052F82CC083EA3C23C1F3072C10F80CC0AB
:1018800052F82CC04FEA3C4C50FA81F1097852F8DA
:1018900021108CEA31615940A16000EB1561C5F35C
:1018A00007430978C35C52F8211052F8233081EACB
:1018B0003321C5F30723C35C52F823304FEA334387
:1018C00050FA85FC9CF800C0761C52F82CC083EAC4
:1018D0003C635940E1600C2EFFF67DAFBDE8F0811E
:1018E000B46C00082DE9F00F02680A60D0E900C26C
:1018F0004A60D0E901328A60D0E90225CD60D0E9A2
:1019000003560E61D0E904674F611B4F4069002404
:1019100007F5007907EB1068C0F3074A98F80080D4
:1019200017F80AA048EA0A68C0F3072A17F80AA0BD
:101930004FEA0A4A57FA80FB9BF800B04AEA0B2AA2
:1019400048EA0A0888EA0C0C59F82480641C8CEADE
:10195000080C83EA0C035A40554041F818CF082C74
:10196000CD60C1E90132A4BFBDE8F00F70476E4001
:101970007040C1E90460CDE7B46C00082DE9F80FB0
:10198000C14B4FF0010C4FF00708C3F808C0D3F863
:1019900008C0D3F800C0CDF800C01CF1010C7CD009
:1019A0004368D2F804C08068946883EA0C039C46BC
:1019B00080EA04076446B5484FEA1C65C7F307464A
:1019C00050F8255050F8266004F0FF0985EA3625C6
:1019D000C3F3072650F8299050F826600CF0FF0A50
:1019E0004FEA364686EA39666E401569C3F3074901
:1019F0006E403D0E50F8299050F8255050F82AA01E
:101A000085EA3925C4F3072907F0FF0B50F8299020
:101A100050F82BB04FEA394989EA3A6985EA090951
:101A20005569C4F3074A89EA05054FEA136950F876
:101A30002AA050F82990240E89EA3A29CCF3072AE3
:101A4000CCF3074C50F8244050F82CC0DBB284EAA9
:101A50003C2CC7F3072450F82AA050F8244050F833
:101A600023304FEA3A4A4FEA34448AEA3B6A84EA2E
:101A7000336389EA0A098CEA0303D2F818A0D2F882
:101A80001CC02032A8F1010889EA0A0983EA0C0483
:101A9000B8F1000F7BDD330E00E065E0C5F3074CC5
:101AA00050F8233050F82CC0E7B283EA3C23C9F346
:101AB000072C50F8277050F82CC006F0FF0A4FEAA8
:101AC0003C4C8CEA376C83EA0C03D2F800C0C9F3B3
:101AD000074783EA0C0C2B0E50F8277050F8233080
:101AE00050F82AA083EA3723C4F3072705F0FF0B39
:101AF00050F82770C5F307254FEA374787EA3A675A
:101B00007B405768C4F3074A5F404FEA196350F8B7
:101B10002AA050F82330240E83EA3A23C6F3072A7A
:101B2000C6F3074650F8244050F8266050F82AA023
:101B300084EA362409F0FF0650F8255050F82BB0FF
:101B400050F826604FEA3A4A4FEA35458AEA3B6A3E
:101B500085EA366583EA0A036C40D2F808A0D568A6
:101B600083EA0A036C4027E7DDF800C0C3F800C031
:101B70001B68009363B14368D2F804C0806894681E
:101B800083EA0C0C80EA04076346644613E70FE01F
:101B90000368D2F800C0546883EA0C0C436883EAF7
:101BA000040783689468C0686340D468444002E7CF
:101BB000374850FA84F300EB166C1B789CF800C091
:101BC000C9F3072743EA0C63C5F3074CC75D10F858
:101BD0000CC04FEA0C4C4CEA072C43EA0C03D2F839
:101BE00000C083EA0C030B6050FA86F300EB156C1F
:101BF0001B789CF800C0C4F3072743EA0C63C9F3C1
:101C0000074CC75D10F80CC04FEA0C4C4CEA072C8F
:101C100043EA0C03D2F804C083EA0C034B6050FA89
:101C200085F300EB196C1B789CF800C0C6F30727FE
:101C300043EA0C6CC4F30743C75DC35C1B0443EA6F
:101C400007234CEA0303D2F808C083EA0C038B6035
:101C500050FA89F300EB146C1B789CF800C0C5F3B4
:101C6000072443EA0C63C6F3074CD26810F80CC093
:101C7000005D4FEA0C4C4CEA002018435040C8600D
:101C8000BDE8F80F7047000000300240DC6E00082D
:101C9000B46C00082DE9F0410C4600F08BF8444884
:101CA000012600F5C5621034D4E900C300EB1C67BF
:101CB000CCF307483F7810F8088052F8277052F8A4
:101CC000288087EA3827CCF3072810F8088052F8D4
:101CD00028804FEA384850FA8CFC9CF800C0D4E9C0
:101CE000021552F82CC088EA3C6C87EA0C0CC4F848
:101CF00000C000EB136CC3F307479CF800C0C75D3E
:101D000052F82CC052F827708CEA372CC3F30727FF
:101D1000C75D52F827704FEA374750FA83F31B78B4
:101D200052F8233087EA33638CEA0303636000EBE5
:101D30001163C1F3074C1B7810F80CC052F8233024
:101D400052F82CC083EA3C23C1F3072C10F80CC0D6
:101D500052F82CC04FEA3C4C50FA81F1097852F805
:101D600021108CEA31615940A16000EB1561C5F387
:101D700007430978C35C52F8211052F8233081EAF6
:101D80003321C5F30723C35C52F823304FEA3343B2
:101D900050FA85FC9CF800C0761C52F82CC083EAEF
:101DA0003C635940E1600E2EFFF67DAFBDE8F08147
:101DB000B46C00082DE9F04FD0E902C2D0E900541C
:101DC000C1E902C2C1E90054D0E90487C1E904872E
:101DD000D0E90663C1E906632B484FF0000900BF54
:101DE00000EB136AC3F3074B9AF800A010F80BB08E
:101DF0004AEA0B6AC3F3072B10F80BB04FEA0B4B00
:101E000050FA83FE9EF800E020314BEA0E2B4AEA9E
:101E10000B0A8AEA050A1D4D55F8295009F10109F6
:101E20008AEA05056C408CEA040C82EA0C02C1E9DE
:101E300002C2C1E90054B9F1070FA8BFBDE8F08F95
:101E400050FA82FA9AF800A000EB126BC2F3072E48
:101E50009BF800B010F80EE04AEA0B6AC2F3074B99
:101E600010F80BB04FEA0B4B4BEA0E2B4AEA0B0A69
:101E70008AEA080887EA08077E407340C1E90663DA
:101E8000C1E90487ACE70000B46C0008B46E000838
:101E900008B5DDF808C0CDF800C000F011F808BDA5
:101EA000002812BF002A4FF442607047017941F0C8
:101EB00002010171002010607047062300F05EB936
:101EC0002DE9F04F8FB005004FF00000DDF860B055
:101ED0000A901F4690468946089009900B90009002
:101EE00018BFB9F1000F38D0002F18BFBBF1000F99
:101EF00033D0287910F0060F1EBF40F61E400FB0F9
:101F0000BDE8F08F18F00F0F1CBF40F004002871DF
:101F1000012199488160816801680091491C04AEE3
:101F20000DF1200A1ED00024B8F1100F73DB59F810
:101F3000041000200ABA401C04920428FADB6A6AE2
:101F400005F1140008A905F12803182A7ED0202ADB
:101F50001A467CD0FFF74EF883E00FB04FF4426092
:101F6000BDE8F08F0099016000684FF00004009018
:101F7000C0B1B8F1100F4EDB59F8041000200ABAB6
:101F8000401C04920428FADB686A05F1140308A9CE
:101F900005F1280218283FD02028184640D0FFF726
:101FA00029F83FE0B8F1100F72DB002004EB80014C
:101FB00059F8011009BA46F82010401C0428F5DB36
:101FC0006A6A05F1140008A905F12803182A05D04A
:101FD000202A1A4606D0FFF70DF805E01A46FFF74B
:101FE00067FA01E0FFF7CAFC286A401C286200205B
:101FF0005AF8201056F8202051404AF8201004EBDF
:10200000800209BA401CB9500428F1DB103404F1F5
:1020100010004045C9DD3BE01846FFF749FA01E0F2
:10202000FFF7ACFC286A401C286200205AF82010F8
:1020300056F8202011434AF8201009BA401C3951A3
:102040000428F3DB103404F1100001E003E006E0A3
:10205000404591DD1CE01A46FFF72AFA01E0FFF740
:102060008DFC286A401C28625FF000005AF820109E
:1020700056F8202011434AF8201009BA401C395163
:102080000428F3DB103404F1100040457FF74FAF14
:1020900044456ADA686A05F1140308A905F12802C3
:1020A000182805D02028184606D0FEF7A3FF05E023
:1020B0001846FFF7FDF901E0FFF760FCA8EB040C00
:1020C0004FEAEC7100200CEB91710EE004EB800301
:1020D00059F8032012BA46F820205AF820506A40D6
:1020E0004AF8202012BAFA50401CB0EBA10FEDDBE9
:1020F00046420CEB8605002D37DD04EB800202EB37
:102100000901491E3A448CEA860C521E00231CF039
:10211000010F4FF0180608D05AF8203011F801CFFF
:102120008CEA136302F8013F01235FEA650C18BFD4
:1021300010251AD05AF820705C4206EBC40927FA21
:1021400009F791F8019005EBC40487EA0907577075
:102150005AF8207027FA04F411F8027F9B1C7C4087
:1021600002F8024FBCF1010CE4D1CBF800800FB0B3
:102170000020BDE8F08F000000300240002818BFAA
:10218000002905D003F0060C2AB9BCF1020F02D0D9
:102190004FF4426070472DE9F043446A89B0102C37
:1021A0001CBF182C202C06D1BCF1020F08D00469EA
:1021B000641E102C04D309B040F61F40BDE8F08324
:1021C000C2600479BCF1020F24F00604047149D006
:1021D000002444618461C46104620569002DD8BF94
:1021E0004FF0000C06DD15F0010C03D0167844EA20
:1021F000066444616545C8BF182433DD4FEAEC75B9
:102200000CEB957525F003063718ACEB060607F1C5
:10221000140512F80C8076427F6904EBC60608FAB2
:1022200006F63E432E600CF10107FE1707EB96758C
:1022300025F0030606EB000802EB0C09BE1B08F1B3
:10224000140599F801907642D8F8148004EBC6067C
:1022500009FA06F648EA06062E6005690CF1020C3A
:102260006545CBDC027912F0010F55D1816013F086
:10227000010F0DD006229A430AD0426A0B4600F1A4
:1022800028014FEAE27C00206C4602EB9C7C2FE0A8
:1022900000F1280C426A0020D3176C4602EB9373BE
:1022A00006E000BF51F820502DBA44F82050401CE1
:1022B000B0EBA30FF6DB102A04D0182A07D0202A8F
:1022C0002AD109E061462046FFF7B8F824E06146CC
:1022D0002046FFF707FB1FE061462046FFF76AFD37
:1022E0001AE000BF53F820502DBA44F82050401C8B
:1022F000B0EBAC0FF6DB102A07D0182A09D0202A41
:1023000004BF2046FFF7C6FC06E02046FEF7FCFFB0
:1023100002E02046FFF756FA09B00020BDE8F0833E
:1023200000BFFEE70146CAB20B1243EA0220704723
:1023300010B5002003490860032001F09BFE012036
:1023400010BD00003001002070B505460C4600208D
:10235000074908602246C021284602F0A9FD21460F
:10236000012001F0B1FE012001F0DCFE012070BD72
:102370002801002008B50020009022E1974800883D
:1023800000F00F00964908700846007800287CD1BC
:1023900094480068944908800846008800F030009E
:1023A000924908809048008800F440508E49088087
:1023B0008C4909684BF6BF7201EA020080F40050B4
:1023C00080F0200040F4004141F08001854A116016
:1023D0008248008800F0100090BB1046006848F664
:1023E0000F7108401146086000F0C0FF7D49096880
:1023F0004BF6BF7201EA02007B49098801F4805163
:1024000009B180F480507849098801F4005109B17C
:1024100080F400507549098801F0100109B180F07D
:1024200010007249098801F0200109B180F02000F4
:1024300081B241F4004141F080016A4A116008BD57
:10244000FFE76848006880B20090BDF8000000F423
:102450000060B0B363480068C0F30E0048F68F71A7
:1024600008406049086001F01FFF5E4909684BF6AB
:10247000BF7201EA02005C49098801F4805109B188
:1024800080F480505849098800E056E001F400517A
:1024900009B180F400505549098801F0100109B1D3
:1024A00080F010005149098801F0200109B180F045
:1024B000200081B241F4004141F08001494A11609D
:1024C000BDE7FFE7BDF8000000F40040002878D029
:1024D00044480068C0F30E0048F68F710840414937
:1024E000086001F081F83F4909684BF6BF7201EAC4
:1024F00002003D49098801F4805109B180F48050FF
:102500003949098801F4005109B180F40050374974
:10251000098801F0100109B180F0100033490988E1
:1025200001F0200109B180F0200081B241F40041A6
:1025300041F080012B4A116081E7294800782C493D
:1025400001EB8000D0F8000C80B20090BDF80000D4
:1025500000F40040C0B12248007801EB8000D0F8C0
:10256000000CC0F30E0048F68F7108401C49097832
:102570001F4A02EB8101C1F8000C19490978491E74
:102580001C4A52F821008047BDF8000000F080008E
:10259000B8B113480078164901EB8000D0F8000C60
:1025A00048F60F7108400E490978114A02EB810183
:1025B000C1F8000C0A490978491E0F4A52F8210057
:1025C000804708484430006880B20449088000F41D
:1025D000004000287FF4D2AE00BF30E7400000206A
:1025E0000C000020005C00402000002022000020A1
:1025F00000500040680000204C0000200B4A02EB15
:102600008001D1F8001C01F4804171B102EB80011E
:10261000D1F8001C48F68F7211404CF28002114331
:10262000024B03EB8002C2F8001C704700500040D0
:102630000B4A02EB8001D1F8001C01F0400171B19E
:1026400002EB8001D1F8001C48F68F72114048F26D
:10265000C0021143024B03EB8002C2F8001C70471A
:1026600000500040084A02EB8001D1F8001C48F6F7
:102670008F62114048F280021143034B03EB80024A
:10268000C2F8001C704700000050004001214020AB
:1026900001F046B810B52AB1036801248C402343E9
:1026A000036004E0036801248C40A343036010BD71
:1026B0001CB50121480701F053F800214FF00050EC
:1026C00001F04EF81020009003208DF80400002047
:1026D0008DF8070069464FF0904000F085FD00201E
:1026E000074908604860C8600A460021054800F0B4
:1026F0000BF8012200210348FFF7CCFF1CBD0000AE
:102700003CA200200074004070B500230024036840
:1027100040F6FE758D40AB43D2E9005635439668CE
:102720003543D66845EA060404FA01F52B430360F5
:1027300070BD18B500230093009001F10803009CC0
:1027400023440093009B1A6018BD30B532B1436832
:102750000D090124AC402343436005E043680D09A3
:102760000124AC40A343436030BD21B1026842F074
:102770000102026004E002684FF6FE731A40026034
:102780007047000001684FF6FE72114001600021A1
:10279000016041608160C1604B49884208D14A496B
:1027A0000839496841F00F01474A083A51608AE008
:1027B00045491431884208D143490839496841F0F4
:1027C000F001414A083A51607DE03F492831884292
:1027D00008D13D490839496841F470613A4A083ADC
:1027E000516070E038493C31884208D13649083997
:1027F000496841F47041344A083A516063E0324913
:102800005031884208D130490839496841F4702173
:102810002D4A083A516056E02B496431884208D16C
:1028200029490839496841F47001274A083A51603A
:1028300049E025497831884208D123490839496857
:1028400041F07061204A083A51603CE01F498842DB
:1028500006D1011F096841F00F01021F116032E02B
:102860001A491431884208D11849091F096841F0F2
:10287000F001164A121F116025E0144928318842E0
:1028800008D11249091F096841F470610F4A121FEB
:10289000116018E00D493C31884208D10B49091FED
:1028A000096841F47041094A121F11600BE00749A1
:1028B0005031884207D10549091F096841F4702148
:1028C000024A121F116070470800024008040240CB
:1028D00010B50022026847F6F0739A430C6A8B68C1
:1028E00023430C6923434C6923438C692343CC69FC
:1028F00023434C6A23438C6A23431A4302608B8927
:1029000043600B6883604B68C36010BD2DE9F047DE
:102910002748006800F110052E8825480068077ACE
:10292000CEB9042F17D12348007801280ED10021F9
:102930002148006880B2801C204A81523020204902
:10294000088000BF00201B49087003E00727102003
:102950001B49088027E0AC88A64201D8042000E08B
:1029600002200746B44200D93446A0B2A96888477D
:102970008046002000F0C4FC8146A2B24946404691
:1029800002F096FAA1B2002001F09EFB2888001BFD
:102990002880688820446880302009490880000227
:1029A0000849088000BF024909680F72BDE8F08736
:1029B0001000002008000020505C00400060004033
:1029C00022000020200000202DE9F0412F4800685F
:1029D00000F110042688A068C0B1BEB1A588B54238
:1029E00000D93546A8B2A168884707462088401B11
:1029F0002080608828446080002000F063FC8046CE
:102A0000AAB24146384600F017FE00BF208850B1F8
:102A10004FF440501E4908800021084601F054FB45
:102A200030201C4908802088A188884204DB0320CC
:102A300016490968087227E02088002804DD05206F
:102A40001249096808721FE02088E8B906200F497A
:102A50000968087210490968886880470B4800684F
:102A6000007A082806D14002094908801020094947
:102A7000088009E000210948006880B2801C084AEB
:102A80008152302003490880BDE8F0811000002009
:102A9000200000202200002014000020505C004094
:102AA000006000402DE9F84F9B48006845780027FA
:102AB000BA46062D1BD198480068007800F07F00C8
:102AC000002813D1944909688878012803D19349D3
:102AD0000968CF690AE0022803D1904909680F6AA2
:102AE00004E0032802D18D4909684F6A94E0002D63
:102AF00064D189480068408800285FD18648006812
:102B0000C08802285AD1844800680079002855D12D
:102B100081480068007800F07F0028B97E4800688E
:102B2000808808B97E4F77E07B480068007800F025
:102B30007F00012810D178490968487977490968E8
:102B40008A6900219047002866D173480068807A1E
:102B5000002861D0724F5FE06F480068007800F095
:102B60007F00022858D16C480068407900F00F06B9
:102B700069480068407900F070096748006840794A
:102B800000F0800038B1674901EB8600D0F8000CF6
:102B900000F0300806E0634901EB8600D0F8000C35
:102BA00000F4405860480078B04235D9B9F1000FC0
:102BB00032D1B8F1000F2FD0594F2DE0082D07D199
:102BC00055480068007800F07F0028BB574F23E08D
:102BD0000A2D21D150480068007800F07F000128BC
:102BE0001AD14D480068807AB0B14B4800684088DF
:102BF00090B949480068007970B947480068C088B2
:102C0000012809D1444909684879444909688A6911
:102C10000021904700B9464F57B13F480068A0F8DF
:102C200012A03D48006887610020B84700240FE0EB
:102C3000394A12685078394A12681169884704463F
:102C4000032C05D10920344909680872BDE8F88FC2
:102C500031480068008A4FF6FF71884204D109208C
:102C60002D4909680872F1E7022C03D02A48006850
:102C7000008A20B90820284909680872E6E7264832
:102C80000068007800F08000E0B323480068C08846
:102C9000009021480068008A0099884204D91E49A2
:102CA00000980968088223E01B480068008A1A49D6
:102CB0000968C98888421BDA17480068008A1749E2
:102CC000096891F82C10884203DA0020194908702D
:102CD0000EE011480068008A1049096891F82C102C
:102CE00090FBF1F201FB120010B9012011490870AC
:102CF0000A48006890F82C10074800688182FFF7A6
:102D000005FE07E0FFE70320034909680872000396
:102D10000949088000BF99E7100000201400002036
:102D20004145000800500040A0000020C5440008B4
:102D30001545000808000020200000207047000012
:102D40003EB500240A480B4910220B4BCDE9002167
:102D500002900A4A10210A4801F0CAF8044634B920
:102D600004480088502802D10220064988613EBDEF
:102D70006401002000FF00205401002030EB0020FF
:102D800000880008001000480021002200BF05E074
:102D9000002200E0521C052AFCDB491C8142F7D3CB
:102DA0007047000001200D49088008200880042099
:102DB000088002200880402009490860082009494D
:102DC00008801020088020200880402008800420EF
:102DD000054988610820886170470000280C004878
:102DE0001808004828040048001000480120014944
:102DF000086070472801002010B5012007490860CD
:102E0000032000F06DFA06490880084602884FF456
:102E10008871044800F010FC10BD00003001002053
:102E200024000020D8A1002000F01F0201219140C1
:102E30004209034B03EB4212C2F81414704700001E
:102E400000000140F0B504460D460021012019465E
:102E500015E0665CAA2E02D0665C552E09D1552677
:102E60002E54665C86F02007461CAF55861CB0B217
:102E700003E0665C2E54461CB0B24E1CB1B29142C7
:102E8000E7DBF0BD30B5034614460122012010E017
:102E90001D5C552D07D1451C5D5D85F020058D54C9
:102EA000851CE8B203E01D5C8D54451CE8B2551C3E
:102EB000EAB2A042ECDB30BD0149C86070470000B7
:102EC0000020024030B5044604254FF4302000F0C5
:102ED000E5F80546042D16D10C48006940F00200C3
:102EE0000A49086108464461006940F040000861F1
:102EF0004FF4302000F0D2F805460448006920F075
:102F0000020002490861284630BD0000002002404E
:102F100004200B49C96801F0010109B101200EE04C
:102F20000749C96801F0100109B1022007E004490E
:102F3000C96801F0040109B1032000E004207047D2
:102F4000002002400348006940F080000149086108
:102F5000704700000020024000200449C96901F0C8
:102F6000060109B1012000E0002070470020024066
:102F70000348006920F400700149086170470000AF
:102F80000020024030B5054604244FF4302000F004
:102F900085F80446042C34D11B48006940F0200019
:102FA000194908610846006940F0400008614FF483
:102FB000302000F073F80446042C1AD1124800693E
:102FC00020F02000104908610846006940F0100018
:102FD00008610E4805804FF4302000F05FF8044689
:102FE000052C0ED00848006920F010000649086141
:102FF00007E0052C05D00448006920F020000249B4
:103000000861204630BD00000020024000F8FF1F8C
:103010000548006900F4007020B90448024988603E
:103020000348886070470000002002402301674584
:10303000AB89EFCD70B504460D4604264FF4302021
:1030400000F02CF80646042E11D10A48006940F021
:1030500001000849086125804FF4302000F01EF877
:1030600006460448006920F0010002490861304624
:1030700070BD0000002002400548006900F080009B
:1030800020B1044802494860034848607047000086
:103090000020024023016745AB89EFCD00B5024611
:1030A0000423FFF735FF034603E0FFF731FF034634
:1030B000521E012B01D1002AF7D102B9052318466F
:1030C00000BD10B5FFF748FF50B9FFF7D5FFFFF778
:1030D0009FFFBB20FFF756FFFFF74AFFFFF732FFC6
:1030E00010BD00001CB5072206213B4800F0C7F8C0
:1030F00007221146384800F0C2F8C0200090022094
:103100008DF8040000208DF8060003208DF80500DE
:1031100001208DF8070069462F4800F065F87820F7
:10312000009001208DF8040000208DF806008DF835
:10313000070003208DF805006946274800F054F881
:103140004FF49850009001208DF8040000208DF875
:1031500006008DF8070003208DF8050069464FF042
:10316000904000F041F87F20009001208DF804008D
:1031700000208DF8060001208DF8070003208DF84F
:1031800005006946154800F02FF8FF200090012047
:103190008DF8040000208DF8060001208DF807004E
:1031A00003208DF8050069460D4800F01DF84FF426
:1031B0000150009001208DF8040000208DF80600D9
:1031C00001208DF8070003208DF8050069460548A9
:1031D00000F00AF81CBD0000000400480010004880
:1031E000000C004800080048F0B50A460021002401
:1031F0000025002300BF3FE0012606FA01F416680F
:1032000006EA0405A54236D11679012E02D01679B8
:10321000022E18D186684FEA410C032707FA0CF7F3
:10322000BE43866056794F00BE4087683E43866045
:10323000868801278F40BE438680878896798E4096
:10324000B6B23743878006684FEA410C032707FA76
:103250000CF7BE43066016794F00BE4007683E4338
:103260000660C3684F000326BE40B343D6794F00C3
:10327000BE403343C360491C1029BDD3F0BDF0B537
:10328000002300244D07ED0E02FA05F3CE1000F1E5
:10329000200555F826504E07F70E0F26BE40B543C1
:1032A000CF1000F1200646F82750CE1000F120057F
:1032B00055F8265045EA0304CE1000F1200545F8E4
:1032C0002640F0BD01460448006880B200EBC10012
:1032D000001D024A805A7047505C00400060004068
:1032E00001460548006880B200EBC100801D034A1A
:1032F000805AC0F309007047505C004000600040F5
:1033000001460448006880B200EBC100024A805ABE
:1033100070470000505C0040006000400146044AD5
:1033200002EB8100D0F8000C00F030007047000084
:103330000050004070B50A480468001D0568001D73
:103340000668344454B108220649204600F046F885
:10335000042204491031284600F040F870BD0000F6
:10336000ACF7FF1F2800002000BFFEE710B518488B
:103370000068047A022C01D0042C05D1FFF7C6FAAC
:1033800013480068047A1CE0062C19D11048006824
:10339000407805280ED10E480068007800F07F00C4
:1033A00040B90B490968C87800F0E4FD094909688B
:1033B000086A80470849096888688047082400E04F
:1033C0000824034909680C7200F04AF910BD000096
:1033D000100000201C0000201400002030B50B4617
:1033E000002100BF16E00A24B4EB107F05D9302479
:1033F00004EB107403F8114005E0412404EB107451
:103400000A3C03F81140000100254C00641C1D55C6
:103410004C1CE1B29142E6DB30BD00BFFEE77047D5
:103420007047000070B5002100230F22C47804B358
:10343000154C246804F4E064C4F5E064210AC1F189
:103440000403CA40447804FA03F184781440214309
:1034500009010E4C0678A155047804F01F050124DB
:10346000AC4005786D11AD0005F1E025C5F80041CF
:1034700009E0047804F01F050124AC40044D0678EF
:10348000761145F8264070BD0CED00E000E400E048
:1034900080E100E002490143024A116070470000E8
:1034A0000000FA050CED00E070B5022648480068FF
:1034B000447847480068007800F07F00002847D132
:1034C000092C03D101F0BCF8064662E0052C14D1AA
:1034D0003F480068C0787F280BDC3D480068807852
:1034E00038B93B480068808818B939480068807A44
:1034F00008B1082567E000264BE0032C0ED13448C4
:103500000068C078012807D131480068808818B960
:1035100001F0BAF806463CE002263AE0012C38D128
:103520002B480068C078012810D12948006880889D
:1035300060B927480068407A00F0200030B10020D0
:103540002449086000F008FF064622E0022620E039
:103550001F480068007800F07F00012805D10B2C7F
:1035600017D101F00DF9064613E0194800680078FC
:1035700000F07F0002280BD1012C03D100F0ECFEFB
:10358000064606E0032C04D101F092F8064600E05E
:1035900002264EB1E0B2104A1268516988470646C9
:1035A000032E01D109250EE00EB108250BE00625FA
:1035B00000210A48006880B2801C094A81523020EC
:1035C0000849088000BF024909680D7270BD0000FB
:1035D000100000200400002014000020505C004077
:1035E000006000402200002010B511480068047AF5
:1035F000022C01D0042C01D1082412E0032C01D0AC
:10360000052C05D1FFF7E0F909480068047A08E0C5
:10361000072C05D107490968C8688047082400E0DD
:103620000824034909680C7200F01AF810BD000064
:10363000100000201400002070B5561C7510064EB6
:103640008C192B4605E034F8026B20F8016B401C06
:103650005B1E002BF7D170BD00600040704700007A
:1036600010B50D4890F82C10002000F0BBFC0B4862
:103670000068007A082805D1400209490880102016
:103680000849088005480068007A092801D101200E
:1036900010BD0020FCE70000A40000201000002066
:1036A000200000202200002010B501240E480460F4
:1036B00000200E490880084600880B49086000BFBA
:1036C0000948001D006800F480600128F8D000203F
:1036D00000F054FD4FF4E05004490880084600888B
:1036E00001490860002010BD405C00401A00002025
:1036F0000021010F31B1094AD26A22F47852074BF6
:10370000DA6205E0054AD26A22F4F872034BDA6203
:10371000024AD26A0243014BDA627047001002404B
:1037200029B1064A52690243044B5A6104E0034A34
:1037300052698243014B5A617047000000100240F9
:1037400029B1064AD2690243044BDA6104E0034A14
:10375000D2698243014BDA617047000000100240D9
:1037600029B1064A12690243044B1A6104E0034A74
:1037700012698243014B1A61704700000010024039
:1037800029B1064A92690243044B9A6104E0034A54
:1037900092698243014B9A61704700000010024019
:1037A00010B501214804FFF7BBFF01218804FFF792
:1037B000B7FF0121C804FFF7B3FF01210805FFF798
:1037C000AFFF01214805FFF7ABFF01218805FFF797
:1037D000A7FF01218803FFF7D3FF01214807FFF767
:1037E000AFFF0121C802FFF7CBFF01210846FFF719
:1037F00097FF01210220FFF793FF01210807FFF740
:103800008FFF01214807FFF78BFF4FF48870FFF708
:103810006FFF0248FFF76CFF10BD00000022001090
:103820002DE9F0470022002694469046002500210D
:1038300000240023DFF8AC95D9F8049009F00C02BD
:1038400022B1042A07D0082A32D109E0DFF898957E
:10385000C0F8009031E0DFF89095C0F800902CE0BF
:10386000DFF88095D9F8049009F47016DFF87495A4
:10387000D9F8049009F4803C4FF0020909EB964610
:10388000BCF1000F04D1DFF8649506FB09F10DE0EF
:10389000DFF85095D9F82C9009F00F0909F10108CB
:1038A000DFF84495B9FBF8F909FB06F1016004E083
:1038B000DFF83495C0F8009000BF00BFDFF8249512
:1038C000D9F8049009F0F0021209DFF8249519F8EC
:1038D0000230D0F8009029FA03F9C0F80490DFF81C
:1038E0000495D9F8049009F4E062120ADFF8009513
:1038F00019F80250D0F8049029FA05F9C0F8089098
:10390000DFF8E094D9F8049009F46052D20ADFF8A5
:10391000E09419F80240D0F8049029FA04F9C0F8AC
:103920000C90DFF8C094D9F82C9009F4F8721209C1
:1039300002F00F09DFF8BCA43AF8195002F01009A0
:10394000B9F1000F05D025B1B1FBF5F9C0F8109021
:1039500003E0D0F80090C0F81090DFF88894D9F810
:103960002C9009F47852520A02F00F09DFF884A46F
:103970003AF8195002F01009B9F1000F05D025B13D
:10398000B1FBF5F9C0F8149003E0D0F80090C0F84E
:103990001490DFF85094D9F8309009F01009B9F17B
:1039A000100F04D0DFF84094C0F8189003E0D0F86E
:1039B0000090C0F81890DFF82C94D9F8309009F0F6
:1039C0002009B9F1200F04D0DFF81C94C0F81C9036
:1039D00003E0D0F80090C0F81C90DFF80894D9F804
:1039E000309009F04009B9F1400F04D0DFF8F893A6
:1039F000C0F8209003E0D0F80090C0F82090DFF8E5
:103A0000E493D9F8309009F48079B9F5807F0AD130
:103A1000D0F80090894506D19C4204D14FEA410973
:103A2000C0F8249003E0D0F80C90C0F82490002750
:103A3000DFF8BC9319F80270DFF8A893D9F830903A
:103A400009F08079B9F1807F0AD1D0F800908945DA
:103A500006D19F4204D14FEA4109C0F8309003E0FB
:103A6000D0F80890C0F83090DFF87893D9F830900B
:103A700009F00079B9F1007F0AD1D0F800908945AA
:103A800006D19F4204D14FEA4109C0F8349003E0C7
:103A9000D0F80890C0F83490DFF84893D9F8309007
:103AA00009F48059B9F5805F0AD1D0F800908945B2
:103AB00006D19C4204D14FEA4109C0F8289003E0A6
:103AC000D0F80C90C0F82890DFF81893D9F830900F
:103AD00009F40079B9F5007F0AD1D0F80090894542
:103AE00006D19C4204D14FEA4109C0F82C9003E072
:103AF000D0F80C90C0F82C90DFF8E892D9F830900C
:103B000009F48069B9F5806F0AD1D0F80090894531
:103B100006D19C4204D14FEA4109C0F84C9003E021
:103B2000D0F80C90C0F84C90DFF8B892D9F83090EB
:103B300009F40069B9F5006F0AD1D0F80090894501
:103B400006D19C4204D14FEA4109C0F8509003E0ED
:103B5000D0F80C90C0F85090DFF88892D9F83090E7
:103B600009F40059B9F5005F0AD1D0F800908945F1
:103B700006D19C4204D14FEA4109C0F8549003E0B9
:103B8000D0F80C90C0F85090DFF85892D9F83090E7
:103B900009F40049B9F5004F0AD1D0F800908945E1
:103BA00006D19C4204D14FEA4109C0F8589003E085
:103BB000D0F80C90C0F85890DFF82892D9F83090DF
:103BC00009F00309B9F1000F04D1D0F80C90C0F846
:103BD000389028E0DFF80C92D9F8309009F003090A
:103BE000B9F1010F04D1D0F80090C0F838901AE074
:103BF000DFF8F091D9F8309009F00309B9F1020F1C
:103C000004D14FF40049C0F838900CE0DFF8D491AB
:103C1000D9F8309009F00309B9F1030F03D1DFF8A7
:103C2000C891C0F83890DFF8BC91D9F8309009F409
:103C30004039B9F1000F04D1D0F80890C0F83C9099
:103C400028E0DFF8A091D9F8309009F44039B9F5AF
:103C5000803F04D1D0F80090C0F83C901AE0DFF823
:103C60008491D9F8309009F44039B9F5003F04D176
:103C70004FF40049C0F83C900CE0DFF86891D9F8A7
:103C8000309009F44039B9F5403F03D1DFF858913D
:103C9000C0F83C90DFF84C91D9F8309009F44029F5
:103CA000B9F1000F04D1D0F80890C0F8409028E096
:103CB000DFF83091D9F8309009F44029B9F5802F18
:103CC00004D1D0F80090C0F840901AE0DFF81491C9
:103CD000D9F8309009F44029B9F5002F04D14FF4F8
:103CE0000049C0F840900CE0DFF8F890D9F8309027
:103CF00009F44029B9F5402F03D1DFF8EC90C0F862
:103D00004090DFF8E090D9F8309009F44019B9F10B
:103D1000000F04D1D0F80890C0F8449028E0DFF8F4
:103D2000C490D9F8309009F44019B9F5801F04D136
:103D3000D0F80090C0F844901AE0DFF8A890D9F8C5
:103D4000309009F44019B9F5001F04D14FF400492F
:103D5000C0F844900CE0DFF88C90D9F8309009F46A
:103D60004019B9F5401F03D1DFF87C90C0F84490AA
:103D7000DFF87090D9F8309009F44009B9F1000FDC
:103D800004D1D0F80890C0F8489028E0DFF85490AB
:103D9000D9F8309009F44009B9F5800F04D1D0F872
:103DA0000090C0F848901AE0DFF83890D9F83090C9
:103DB00009F44009B9F5000F04D14FF40049C0F8E7
:103DC00048900CE0DFF81C90D9F8309009F44009D5
:103DD000B9F5400F03D1DFF81090C0F84890BDE866
:103DE000F08700000010024000127A0000093D0038
:103DF0006801002078010020014908607047000038
:103E0000D800424210B50446072C01D02E48047059
:103E10002D48007808284ED2DFE800F004111A205F
:103E20002B384E4F2948006828B900F053F8062077
:103E30002549087002E005202349087041E000F0A0
:103E400049F804202049087001202049086038E022
:103E500002201D4948700320087032E01A4840785B
:103E6000401E194948700846407808B90420087077
:103E700027E01748006883B243F01003144803603A
:103E80000520114908700A2048701AE00E48407851
:103E9000401E0D4948700846407858B90C480068E3
:103EA00083B223F010030A48036006200870002044
:103EB0000649086005E000BF00BF062002490870FF
:103EC00000BF00BF10BD00008D000020900000204A
:103ED000405C00400549096888B220F004000349AD
:103EE00008604FF43F41014A11607047405C004058
:103EF0002DE9F04FC9B006460F4690469946DDF8C9
:103F000048B1DDF84CA1549C0025002002908DF8AA
:103F1000100010200C90CDF81CB04A46414603A872
:103F2000FDF7CBFF0546BDB902A853463A463146D8
:103F3000009003A8FDF7ACFF05466DB9029820601C
:103F4000206800EB0A0102AA03A8FDF7A9FF0546B5
:103F50002068029908442060284649B0BDE8F08FE7
:103F6000704700004FF6F8710140014A1160704738
:103F7000505C004030B501460F4B1A78002014E029
:103F800003060E4C04EB9353D3F8003C48F68F74B1
:103F9000234048F280042343C4B223430406074D60
:103FA00005EB9454C4F8003C401C9042E8D341F027
:103FB0008003034C236030BDA0000020005000406F
:103FC0004C5C004010B54A105300044A126892B28B
:103FD00002EBC002121D024C135310BD505C004096
:103FE0000060004010B502461048006880B200EB47
:103FF000C200801D0E4C03193E290BDD481101F053
:104000001F040CB9441EA0B24FF4004444EA8024BB
:104010001C800AE0481001F001040CB1441CA0B25D
:104020004FF6FF7404EA80241C8010BD505C0040F1
:104030000060004030B50E4C04EB8003D3F8003C28
:104040004BF68F7403EA040201F480530BB182F43F
:10405000805201F400530BB182F4005242F4004349
:1040600043F08003024D05EB8004C4F8003C30BDF2
:104070000050004010B50B4B03EB8002D2F8002C2F
:104080004BF68F7302EA030181F4805181F40051F1
:1040900041F4004242F08002024C04EB8003C3F87A
:1040A000002C10BD0050004010B54A105200044BC7
:1040B0001B689BB203EBC003024C1A5310BD0000F7
:1040C000505C004000600040044A126892B202EB6B
:1040D000C002921C024BD15270470000505C00405D
:1040E0000060004030B50E4C04EB8003D3F8003C78
:1040F00048F6BF7403EA040201F010030BB182F02A
:10410000100201F020030BB182F0200242F40043C0
:1041100043F08003024D05EB8004C4F8003C30BD41
:104120000050004010B50B4B03EB8002D2F8002C7E
:1041300048F6BF7302EA030181F0100181F020010B
:1041400041F4004242F08002024C04EB8003C3F8C9
:10415000002C10BD0050004010B5074B03EB80024F
:10416000D2F8002C48F68F131A400A43024C04EB95
:104170008003C3F8002C10BD0050004001490860C6
:1041800070470000445C00400CB500200190009096
:104190002C48006840F480302A49086000BF294854
:1041A000006800F4003000900198401C01900098D5
:1041B00018B90198B0F5A04FF1D12248006800F479
:1041C000003010B10120009001E000200090009824
:1041D000012836D112201C4908601A484068194944
:1041E00048600846406848600846406840F480607F
:1041F00048600846406820F47C10486008464068E3
:1042000040F4E81048600846006840F0807008609C
:1042100000BF0C48006800F000700028F9D0094881
:10422000406820F00300074948600846406840F0B5
:104230000200486000BF0348406800F00C000828F6
:10424000F9D10CBD00100240002002401CB5012134
:104250004804FFF765FA4FF4C050009003208DF832
:10426000050002208DF8040000208DF806008DF86E
:10427000070069464FF09040FEF7B6FF0E220B2173
:104280004FF09040FEF7FBFF0E220C214FF09040C4
:10429000FEF7F5FF1CBD10B50020FFF7ADFD0121B5
:1042A000C805FFF74DFA10BD38B50024274800684F
:1042B00080B2001D2649405A0844009025480068F5
:1042C000007A092832D000980078224909680870DD
:1042D0000098401C0090009800781E4909684870BA
:1042E0000098401C0090009800EB4400009000995A
:1042F00031F8020B0091FEF715F81649096848805D
:10430000009800EB44000090009931F8020B0091F6
:10431000FEF708F80F4909688880009800EB440010
:104320000090009800880B490968C880012009495D
:104330000968087207480068C08810B9FFF7B4F828
:1043400001E0FEF7AFFBFFF78BF938BD505C004092
:1043500000600040100000202DE9F047544800683C
:10436000007800F07F08B8F1000F0AD150480068CB
:10437000407A00F0DF004E49096848720020BDE82D
:10438000F087B8F1020F7CD149480068408818B91D
:1043900047480068007908B10220F0E7DFF814917F
:1043A00043480068477927F080052C46404800685C
:1043B000407900F0800038B13F4901EB8400D0F82B
:1043C000000C00F0300606E03B4901EB8400D0F819
:1043D000000C00F4405699F80000A84204D91EB120
:1043E00033480068807A08B90220C8E707F08000E7
:1043F00080B1314901EB8400D0F8000C00F03000AE
:1044000010284BD1E0B2FEF713F9E0B23021FFF7EC
:1044100069FE43E0284901EB8400D0F8000C00F469
:104420004050B0F5805F39D1E4B9244A92F82C109D
:10443000E0B2FFF7D7FD204A02EB8401D1F8001C5F
:104440004BF68F7201EA020080F4805080F4005035
:1044500040F4004141F08001174B03EB8402C2F8A5
:10446000001C1BE0E0B2FEF7C9F8134A02EB84011E
:10447000D1F8001C4BF68F7201EA020080F48050E4
:1044800000E011E080F4005040F4004141F0800170
:10449000094B03EB8402C2F8001C00BF08490968FD
:1044A0004869804700206AE700BF022067E70000F4
:1044B00010000020A000002000500040A4000020B8
:1044C0001C00002010B504462CB9012006490968DB
:1044D0000882002010BD0549096808688047024825
:1044E00000680A30F6E70000100000201C000020E1
:1044F00010B5024606480068438A32B98888C01A57
:10450000034C24682082002010BD08681844FBE793
:104510001000002010B504462CB901200649096896
:104520000882002010BD0549096888688047024854
:1045300000680C30F6E70000100000201C0000208E
:1045400010B504462CB902203949096808820020B8
:1045500010BD00203749088035480068007800F019
:104560007F0018BB32490968487A00F0200131B158
:104570003049097841F002012E4A117005E02D49B9
:10458000097801F0FD012B4A117000F0400131B1B2
:104590002849097841F00101264A117005E02549B2
:1045A000097801F0FE01234A11703AE020480068C2
:1045B000007800F07F00012801D11E48C8E71C48A0
:1045C0000068007800F07F00022828D1184A12689D
:1045D000517901F00F0001F080027AB1164B03EB24
:1045E0008002D2F8002C02F03002102A16D1114AB3
:1045F000127842F001020F4B1A700FE00E4B03EBE2
:104600008002D2F8002C02F44052B2F5805F05D14E
:10461000084A127842F00102064B1A7001E00020AD
:1046200096E70649096808698047024890E7000054
:104630001000002000000020005000401C0000205E
:1046400010B50E480068C0780D494978884213DCDF
:104650000A480068807878B908480068808858B9A6
:1046600006480068C07805490968887205490968E4
:1046700048688047002010BD0220FCE710000020A1
:10468000A00000201C00002010B507480068407AF8
:1046900040F0200004490968487204490968C86963
:1046A0008047002010BD0000100000201C000020EA
:1046B0002DE9F0412E480068467926F080073C46F7
:1046C0002B480068407900F0800038B1294901EB9F
:1046D0008400D0F8000C00F0300506E0254901EB1D
:1046E0008400D0F8000C00F4405523480078A04224
:1046F00008D91F480068408820B91DB11C480068CF
:10470000807A10B90220BDE8F08106F08000A0B1E7
:10471000184A02EB8401D1F8001C48F6BF7201EA86
:10472000020080F0100040F4004141F08001114B84
:1047300003EB8402C2F8001C14E00E4A02EB840171
:10474000D1F8001C4BF68F7201EA020080F4805011
:1047500040F4004141F08001064B03EB8402C2F8B3
:10476000001C00BF05490968886980470020CAE726
:104770001000002000500040A00000201C0000207D
:1047800010B5174B1B68D978154B1B685879154B1A
:104790001B689A699047044611480068807AE8B11E
:1047A0003CB90F480068007918B90D480068807856
:1047B00008B1022010BD8CB90B490968C868804750
:1047C00007480068407906490968C87204480068CB
:1047D000C0780349096808730020EBE70220E9E785
:1047E00010000020140000201C00002010B5002143
:1047F000204A126890B200BF09E01F4B03EB810210
:10480000D2F8002C92B21D4B43F82120491C0829F4
:10481000F3D340F48060174A106040F0010010604C
:1048200020F00100106000BF124A121D126802F44D
:104830008062002AF8D04FF6FF320E4B1B1D1A6023
:10484000002109E00D4A52F8212092B20A4C04EBF3
:104850008103C3F8002C491C0829F3D340F0080059
:10486000044A1060126890B240F00400014A1060DF
:1048700010BD0000405C004000500040B801002026
:104880007047000010B51B48006840F470001949DB
:1048900008601948006840F00100174908600846A0
:1048A00040681649084014494860084600681449A1
:1048B0000840114908600846006820F4802008601C
:1048C0000846406820F4FE0048600846C06A20F0B0
:1048D0000F00C8620846006B0A4908400649086391
:1048E00000208860FFF750FC4FF0006001498039DC
:1048F000086010BD88ED00E0001002400CC07FF899
:10490000FFFFF6FECCFC00FF3EB504460F4800F06A
:1049100032F9601E01904720ADF800000020ADF88C
:104920000800ADF802006946084800F02BF90121A3
:10493000064800F0EFF80021044800F0DFF80122FB
:104940001146024800F00BF93EBD00000004004093
:1049500070B50024002501214E4800F0EFF8002832
:1049600075D001214B4800F0D9F801F00DFD0A2067
:10497000FEF70AFA00BF85E025B9042046490885FC
:1049800008200885012D04D10420434988610820AE
:1049900088614FF0A040FCF719FB4048FCF716FB7C
:1049A0003F48FCF713FB3F48FCF710FB0A20FEF7DB
:1049B000EBF9002413E03C4830F814103B483C4A23
:1049C000127800EB42323B480078401E02EBC010E8
:1049D000202202FB054220F81210601CC4B2092CF0
:1049E000E9DB002415E0344830F814102F48304A31
:1049F000127800EB42322F480078401E02EBC012C2
:104A000004F10900202303FB050022F81010601CAC
:104A1000C4B2062CE7DB002415E0284830F8141057
:104A20002248234A127800EB423222480078401E86
:104A300002EBC01204F10F00202303FB050022F853
:104A40001010601CC4B20A2CE7DB002416E01FE043
:104A50001B4830F814101548154A127800EB423202
:104A600014480078401E02EBC01204F11900202304
:104A700003FB050022F81010601CC4B2072CE7DB12
:104A8000681CC5B2022DFFF677AF01200D490870F2
:104A900070BD0000000400400010004800010050FC
:104AA0000004005000050050ECA10020D8010020B7
:104AB0008600002036010020FEA100200AA200206E
:104AC0001EA200208500002008B501210220FEF76B
:104AD00037FE1D208DF8000002208DF80100012016
:104AE0008DF802008DF803006846FEF79BFC01215B
:104AF000014800F013F808BD0004004021B102880D
:104B000042F08002028004E002884FF67F731A4070
:104B100002807047CA4392B202617047CA4392B2A0
:104B20000261704721B1028842F00102028004E074
:104B300002884FF6FE731A400280704730B5024675
:104B4000002000230024156905EA0103D56805EA61
:104B5000010413B10CB1012000E0002030BD10B5FC
:104B60001AB1C3680B43C36004E0C368CC43A4B26A
:104B70002340C36010BD81684FF6F8721140816018
:104B800070470000002202881E4B98420ED01E4B38
:104B900098420BD0B0F1804F08D01C4B984205D002
:104BA0001B4B984202D01B4B984204D14FF68F7397
:104BB0001A404B881A43184B984207D0174B98421B
:104BC00004D04FF6FF431A400B891A4302804B680A
:104BD000C3620B8803850B4B98420ED00A4B984258
:104BE0000BD00F4B984208D00E4B984205D00E4B7D
:104BF000984202D0074B984201D14B89038601238A
:104C000043617047002C0140003401400004004023
:104C10000008004000500140001000400014004017
:104C200000400140004401400048014010B51220FE
:104C3000FEF7FAF810BD000010B5084808490860F2
:104C400002200968087207480749086007480849B0
:104C50000860054909680868804710BD9C0100206C
:104C600010000020A400002014000020D400002028
:104C70001C00002008B54FF4A060FEF70BFC1420C8
:104C80008DF8000001208DF8010000208DF8020051
:104C900001208DF803006846FEF7C4FB2A208DF83A
:104CA000000000208DF801006846FEF7BBFB08BD40
:104CB00010B588B000246848006868490880084634
:104CC000008800F4007066490988084040B14FF63A
:104CD000FF506149086063480078401C61490870D2
:104CE0005E48008800F400405D490988084008B12A
:104CF000FDF740FB5948008800F480605849098856
:104D0000084030B14FF6FF305349086056494868B3
:104D100080475248008800F40050514909880840F3
:104D200018B14DF6FF704C4908604C48008800F4FB
:104D300080504B490988084030B14EF6FF70464913
:104D400008600020FFF75EF84448008800F4006027
:104D500043490988084060B14448007810B1FFF722
:104D600045FD02E00220FFF74DF84FF2FF703A498F
:104D700008603A48008800F4807039490988084082
:104D8000002866D04FF6FF6033490860081D0068B0
:104D900000F40040002856D035480068401C3449D3
:104DA000086008460068032850D92B48001F006897
:104DB00000F00800002849D12748001F006880B291
:104DC0002C490860002408E02B4901EB8400D0F84E
:104DD000000C80B24DF82400641C082CF4D3254844
:104DE000006840F00100234908600846006880B26E
:104DF0001949091F08601F48006820F001001D497B
:104E000008600846006880B21349091F086000BFA7
:104E10001148006800F480600028F9D04FF6FF3098
:104E20000D490860002408E05DF8240080B2124AB1
:104E300002EB8401C1F8000C641C082CF4D30020A0
:104E40000B49086002E00020094908600720FEF7CE
:104E5000D9FF08B010BD0000445C004040000020B5
:104E60001A00002042000020A40000208C00002036
:104E700044000020480000200050004010B5FFF71B
:104E800017FFFDF755FA10BD0020064908604FF4E2
:104E90003F4005490880084600880249091F08600C
:104EA00000207047445C00401A00002000BFFEE76D
:104EB00070B5561C7510064E8C192B4605E030F85F
:104EC000016B24F8026B401C5B1E002BF7D170BDF8
:104ED0000060004070B504460025212C08D112481E
:104EE0000068007800F07F0021280ED10F4D0CE003
:104EF000202C0AD10C480068007800F07F0021289F
:104F000000D10B4D20200B4908700DB9022070BD57
:104F1000054800688561002103480068418200203F
:104F2000A8470020F3E7000010000020614F0008B0
:104F3000F15000089400002010B5044602492046B4
:104F4000FFF7D6FA10BD00000001002010B504469E
:104F500002492046FFF7CCFA10BD0000F8000020FF
:104F6000014629B90820034A1268108200207047C0
:104F70000148FCE7100000209800002070B50546AD
:104F800006480068C478042C01DB002070BD04488A
:104F900000EBC4012846FFF7ABFAF7E7100000204A
:104FA000080100200246002901DD02207047012A85
:104FB00001DD0220FAE70020F8E70000014608487A
:104FC0000068007800F07F00212807D1022901D174
:104FD00000207047222901D10020FAE70220F8E7DB
:104FE0001000002010B50020344909688872344848
:104FF000C079324909684872002030490968C8728E
:10500000FEF7B0FF4FF400710020FFF7A5F8102164
:105010000020FFF767F840210020FEF7D3FF802132
:105020000020FFF741F80020FDF71CFB254890F811
:105030002C100020FEF7D6FF0020FFF71BF8002100
:105040000120FFF789F8C0210120FFF72DF820216A
:105050000120FFF747F800210120FEF7EBFF4FF496
:10506000C0610220FFF778F84FF480710220FFF74B
:105070001BF800210220FEF7DDFF20210220FFF7B0
:1050800031F800210320FFF767F84FF488710320FF
:10509000FEF798FF40210320FEF7A4FF4FF4405194
:1050A0000320FEF7C7FF00210320FFF71BF80020B5
:1050B000FEF760FF01200449086010BD10000020C9
:1050C000126C0008A4000020880000200348817AA8
:1050D00011B10521024A1160704700009C010020B7
:1050E00088000020042001490860704788000020E3
:1050F000014629B90820034A12681082002070472F
:105100000148FCE7100000209800002003480078C8
:10511000202802D100200149087070479400002027
:105120007047000010B5FEF705F900200549096831
:105130008872FEF7B9FAFFF7A7FE0020024908605F
:1051400010BD0000100000208800002003B401986A
:105150004100009850EAC12018BF04204A0D18BF32
:1051600040F0010040F2FF72B2EB515F08BF40F027
:105170000200012808BF052002B0704700000000AF
:105180002DE9F04D2DED040B2DED0E8B96B0DDE9E4
:105190002550279CDDF890A025F0004624F000481B
:1051A000BAF1000F14BF0121002101EB4502FC49B7
:1051B00053184A1093422AD3002814BF0123002316
:1051C00003EB44030B44F7498B4220D358EA000118
:1051D0009FEDF59B76D0DFF8D8B35D4503D1BAF1EA
:1051E000000F05D188E0BAF1000F08BF002100D000
:1051F000012101EB450111F5001F08D8002814BF5B
:105200000121002101EB440111F5001F0BD99DED97
:10521000261B9DED240B16B0BDEC0E8B04B0BDE833
:10522000F04D00F069BE0027002DBCBFE149884564
:1052300021DAE1498845A8BF02271CDAC3451ADCF8
:10524000DE4901EB2851142908DDC1F1340220FAAE
:1052500002F101FA02F282420DD108E058B9C1F11F
:10526000140228FA02F101FA02F2424503D101F0D8
:105270000101C1F1020756EA0A0124D1002C22DA09
:10528000002D18BF022F01D0012F0AD0022000F0FC
:105290007FFE16B0BDEC0E8B04B0BDE8F04D00F003
:1052A00013BE022000F074FE00F00EFE51EC100B55
:1052B00081F0004141EC100B16B0BDEC0E8B04B038
:1052C000BDE8F08D18E09FEDBEAB9FEDBF8B0028D1
:1052D00071D1B848804522D105F1804010F5801089
:1052E00008BFBAF1000F07D0B3450ADC002CA8BFF5
:1052F0009DED260BE0DA0DE0B0EE490AF0EE690A0A
:10530000DAE7002C06DA9DED260B51EC100B81F04C
:1053100000416FE0AE48784490ED000BCCE7D845F3
:105320004DD1002C48DA2EB186423AD1BAF1000FA5
:1053300042D126E0BAF1000F13D0022000F028FE7F
:1053400000F0F6FD8DED020B9DED240B8DED000BB5
:1053500010EE900A039961F31E0003909DED020B7D
:10536000AAE78DED02AB9DED240B1AEE901A10EE1C
:10537000900A8DED000B61F31E0003909DED020B72
:105380009AE78DED028B9DED240B18EE901A10EE2E
:10539000900A8DED000B61F31E0003909DED020B52
:1053A0008AE709DA9DED240B51EC190B53EC102B15
:1053B000FAF7ADFF1EE020E09DED240B7CE786426E
:1053C0001BDAB4F1804F0DD0A4F10050B0F1FF50C2
:1053D00013D1002D11DB9DED240B51EC100B01F0CE
:1053E00085FB07E09DED240B53EC102B51EC100BCB
:1053F00000F0C2BC41EC100B5EE79DED240B51ECBC
:10540000100B00F09BFEBAF1000FCDE90E0142D166
:105410009FED710B46B3A6F1E040B0F17F600CD078
:105420005E4538D1002D00DAA7B3022F0CBF012052
:105430004FF0FF30FAF7DAFFDCE7002D01DD002C3A
:105440000DDA002D01DD002C1FDB002D16DA002CFB
:1054500014DB012F08BF9FED620B3FF42DAFB0EEC0
:105460004A0AF0EE6A0A27E7022F18BF002D0CD077
:10547000012F0AD1002DFFF61FAF06E0002DB8BFA7
:10548000002C08DA012F3FF417AFB0EE480AF0EE17
:10549000680A11E71BE0012000EBE57050EA070104
:1054A00015D0791EB0EE498AF0EE698A084308BF2C
:1054B0009FED4D8B4E480025804570DD4D494E488F
:1054C000884514DDB0420DDB002C19DB2FE00120F4
:1054D00000F05EFD16B0BDEC0E8B04B0BDE8F04DE3
:1054E00000F016BDB34502DC002C09DC1FE086424B
:1054F00002DA002C1BDA03E05E452BDD002C16DD02
:10550000022000F045FD00F013FD8DED020B53EC81
:105510001A2B51EC180BFBF72EF8CDE9000103997B
:10552000019861F31E0003909DED020BC4E602207A
:1055300000F02EFD00F00CFD10EE901A18EE900A0F
:105540008DED020B8DED008B61F31E0003909DED40
:10555000020BB1E69DED0E0B53EC192B51EC100B29
:10556000FAF7CFFE9FED260BCDE9080153EC102B87
:105570009DED080B51EC100BFAF7FDFF9FED221B80
:1055800053EC112BFAF7C0FE9DED081B53EC112BC9
:10559000FAF7F1FF9FED1E1B53EC112B3CE08CE062
:1055A000FFFF1F00FFFF0F00000000000000F03FA2
:1055B0000000F03F0000F07F0000404301FCFFFFCF
:1055C000000000000000F07F00000000000000006C
:1055D000BE3100000000000000000000000000805C
:1055E000000000000000F0FF000000000000F0BF1D
:1055F0000000E0410000F043FFFFEF3F000000002B
:10560000000000000000D03F555555555555D53F79
:10561000000000000000E03FFAF776FE9DED080B69
:1056200041EC1A0B53EC102B51EC100BFAF7A3FFC3
:1056300053EC1A2BFAF79FFF41EC1A0B9FEDFE0B70
:1056400053EC102B9DED080B51EC100BFAF793FF68
:1056500041EC1B0B9FEDFA0B51EC1A0B53EC102B8A
:10566000FAF789FF41EC1A0B9FEDF70B53EC102B67
:105670009DED080B51EC100BFAF77DFF53EC1A2B44
:10568000FAF73FFE41EC1A0B51EC1B0B53EC1A2BB3
:10569000FAF796FD0690CDE906519DED060B53EC09
:1056A0001B2B51EC100BFAF72CFE53EC1A2BFAF7CC
:1056B0002BFE41EC100B00F0A1B90020B6F5801FC5
:1056C0000EDA9FEDE30B53EC102B9DED0E0B51EC1E
:1056D000100BFAF750FFCDE90E016FF034000E46C3
:1056E00000EB2650A0F2FF37C6F31300DA4940F072
:1056F0007F6646F040568842D8BF002408DDD7496F
:105700008142C8BF012403DC0024A6F580167F1C5B
:10571000D348784400EBC4000F9690ED00CB9DED8C
:105720000E0B53EC1C2B51EC100BFAF7EAFD9DED20
:105730000E0B41EC1B0B53EC1C2B51EC100BFAF72E
:105740003FFD41EC100B51EC190B53EC102BFAF709
:10575000DEFD41EC1D0B51EC1B0B53EC1D2BFAF73E
:105760000AFF41EC1A0BBF488DED10AB7844109541
:1057700090ED000B4FF0005040EA660000EB8440D3
:105780008DED080B00F5002009909DED080B53EC02
:105790001C2B51EC100BFAF7B4FD9DED0E1B53ECD6
:1057A000112BFAF7B1FD41EC100B53EC102B9DEDD2
:1057B000100B51EC100BFAF7DEFE9DED080B41ECDF
:1057C0001C0B53EC102B9DED100B51EC100BFAF74A
:1057D000D2FE53EC1B2BFAF797FD53EC1C2BFAF778
:1057E00090FD53EC1D2BFAF7C6FE41EC1C0B53EC5D
:1057F0001A2B51EC1A0BFAF7BEFE41EC1B0B9A4820
:105800000621B0EE4B0AF0EE6B0A784400F0E0FAA5
:10581000B0EE401AF0EE601AB0EE41DAF0EE61DA66
:1058200053EC1B2B51EC1B0BFAF7A5FE53EC1D2B75
:10583000FAF7A1FE9DED100B41EC1B0B53EC1A2B5C
:1058400051EC100BFAF7BCFC53EC1C2BFAF793FE4F
:1058500053EC1B2BFAF7B4FC9DED100B41EC1B0B2A
:1058600053EC102B51EC100BFAF785FE41EC1D0B9D
:105870009FED7FEB53EC1E2BFAF7A2FC53EC1B2B96
:10588000FAF79EFC0890CDE908519DED080B53EC0A
:105890001E2B51EC100BFAF734FD53EC1D2BFAF7CD
:1058A00030FD53EC1B2BFAF72FFD9DED080B41EC5F
:1058B0001D0B53EC102B9DED100B51EC100BFAF758
:1058C0005AFE41EC1B0B53EC1A2B51EC1D0BFAF753
:1058D00052FE9DED080B41EC1A0B53EC102B51ECD2
:1058E0001C0BFAF748FE53EC1A2BFAF769FC41EC53
:1058F0001A0B51EC1B0B53EC1A2BFAF761FC0C90B2
:10590000CDE90C519DED0C0B53EC1B2B51EC100B06
:10591000FAF7F7FC53EC1A2BFAF7F6FC41EC1B0BE9
:105920009FED550B53EC102B9DED0C0B51EC100B18
:10593000FAF721FE41EC1A0B9FED510B51EC1B0BBA
:1059400053EC102BFAF717FE41EC1B0B9FED4E0B9F
:1059500053EC102B9DED0C0B51EC100BFAF70BFEDA
:1059600053EC1B2BFAF72CFC41EC100B4848784405
:1059700000EBC40090ED001B51EC100B53EC112B0D
:10598000FAF71EFC41EC1B0B3846FAF72FFDCDE968
:10599000080153EC1B2B51EC1A0BFAF711FC41ECEC
:1059A000100B3C48784400EBC40090ED00CB51EC68
:1059B000100B53EC1C2BFAF703FC9DED081B53EC6A
:1059C000112BFAF7FDFB0690CDE906519DED080B72
:1059D00053EC102B9DED060B51EC100BFAF791FCDC
:1059E00053EC1C2BFAF78DFC53EC1A2BFAF789FCBD
:1059F00053EC1B2BFAF788FC41EC100B9DED261B9A
:105A000053EC102B8DED001B00959DED260B51ECFA
:105A1000100BFAF7B0FD9DED000B41EC1A0B53ECA7
:105A2000102B9DED260B51EC100BFAF76AFC9DED47
:105A3000061B53EC112B2FE0000000604715F73FC9
:105A4000FE822B654715F73F44DF5DF80BAE543EF1
:105A500000000000000040438E9803007AB60B005F
:105A60003A2D0000682D0000722C0000000000009C
:105A70000000000000000840000000E009C7EE3F01
:105A8000FD033ADC09C7EE3FF5015B14E02F3EBE93
:105A9000FE2A0000B82A0000FAF76DFD53EC1A2B1D
:105AA000FAF78EFB9DED060B41EC1A0B53EC102B15
:105AB0009DED000B51EC100BFAF75DFDCDE90C01EB
:105AC0009DED0C0B51EC1A0B53EC102BFAF778FBF5
:105AD000CDE902010C46AA498C422FDB611A08432A
